:020000040800F2
:10000000D06500204901000899460008D138000851
:1000100095460008811C0008ED6D000800000000F6
:10002000000000000000000000000000C9460008B9
:10003000851C0008000000009D460008CB46000813
:100040006301000863010008630100086301000800
:1000500063010008630100086301000863010008F0
:1000600063010008891C0008511D00086301000895
:1000700063010008630100086301000863010008D0
:1000800063010008630100086301000863010008C0
:1000900063010008630100086301000863010008B0
:1000A00063010008630100086301000863010008A0
:1000B00063010008016B0008630100086301000888
:1000C0006301000863010008630100086301000880
:1000D0006301000863010008630100086301000870
:1000E0006301000863010008630100086301000860
:1000F0006301000863010008630100086301000850
:10010000630100086301000863010008630100083F
:10011000630100086301000863010008630100082F
:10012000630100086301000863010008630100081F
:10013000DFF810D001F0ECFC004800472572000801
:10014000AFF30080D065002006488047064800478E
:10015000FEE7FEE7FEE7FEE7FEE7FEE7FEE7FEE777
:10016000FEE7FEE755470008310100082DE9F04F92
:100170004FF0000C4FF0000301EB9C5EBEF9025003
:10018000BEF900400EF5806EBEF90290BEF9008007
:100190000EF5806EBEF90270BEF900600EF5806E3D
:1001A000BEF902B0BEF900A00EF5806ED044D9446D
:1001B000A8EB4A0AA9EB4B0B4FEAA4044FEAA505AA
:1001C00004EBA60405EBA705A4EB6606A5EB670701
:1001D00004EBA80405EBA905A4EB6808A5EB6909E5
:1001E00006EBAB06A7EBAA07A6EB6B0B07EB6A0ABD
:1001F000458020F8044B478020F8046BA0F802905B
:1002000020F8048BA0F802A020F804BB03F101033E
:1002100093FAA3FCB3F5807FAED1A0EB82014FF03F
:10022000100312090FF2341000F1000006B403EBC2
:10023000430C6144A2F5803202EB8332B1F90250E3
:10024000B1F90040A1EB0301B0F902B0B0F900A090
:1002500000F10400A5EB040E0EFB0BFC0AEB4B0EA9
:1002600005FB0ACB04FB0ECAB1F90250B1F90040FC
:10027000A1EB0301B0F90290B0F9008000F1040095
:10028000A5EB040E0EFB09FC08EB490E05FB08C9A3
:1002900004FB0EC8B1F90250B1F90040A1EB030113
:1002A000B0F90270B0F9006000F10400A5EB040E93
:1002B0000EFB07FC06EB470E05FB06C704FB0EC64C
:1002C000B1F90250B1F9004001F10001D044D94424
:1002D000A8EB4A0AA9EB4B0B4FEAA4044FEAA50589
:1002E00004EB264405EB2745A4EBE636A5EBE73700
:1002F00004EB284405EB2945A4EBE838A5EBE939E4
:1003000006EB2B46A7EB2A47A6EBEB3B07EBEA3ABB
:100310004D800C8019444F800E801944A1F8029042
:10032000A1F800801944A1F802A021F804BBB2F59D
:10033000803283DA03EB430C6144A2F101025FEAED
:10034000024E18BFA0EB0C007FF476AF06BC4FEA5C
:10035000830392087FF46AAFBDE8F08F004000008D
:1003600000400000004000005DDD213BA3227E181C
:100370000000412D7EA5412D0000412D00C0004010
:100380005DDD82E75DDD213B7EA5412D0040000063
:100390000040000000400000AA2A94126B39460673
:1003A00049327C0CA8118E2349327C0CA3227E1882
:1003B00021F77931AA2A9412A8118E235DDD213B01
:1003C000A3227E180000412D95C6B13F461A2B1E70
:1003D00058EE3735BEB4C53EA8118E235DDD213BF6
:1003E00063A97138DF089A28B7CDC53E7EA5412D97
:1003F0000000412D00C0004063A92B1E21F7793178
:10040000BEB4C53EBEB47C0C58EE373561AC213B62
:1004100095C6BAF9BAE571383BA737355DDD82E795
:100420005DDD213B7EA5412D21F766D756D53F3DA9
:100430003BA78E23A811C9CAB7CDC53E61AC7E18B3
:10044000AA2AC1C295C6B13FBEB47C0C00400000D0
:1004500000400000004000001E3BB504693E9201D0
:10046000C83C2403EB356409C83C24036B394606B9
:100470006C30060E1E3BB504EB356409AA2A9412B3
:100480006B39460649327C0CAE240917AF37D607C4
:10049000882E8D0F7E1E5D1BEB356409AA2A9412EF
:1004A00024188C1F1E34F10AB3269015A8118E2330
:1004B00049327C0CA3227E18140B60276C30060E88
:1004C0007E1E5D1B7104FB2A882E8D0F461A2B1E83
:1004D000C7FD5A2E9D2C1211FE15E72021F7793108
:1004E000AA2A9412A8118E2387F05334B228131429
:1004F000480D202602EAE536B3269015DF089A2833
:100500009CE32B39AE2409177104FB2A5DDD213BE6
:10051000A3227E180000412D4ED7C53C9320EF1931
:100520008FFB6C2F78D1153E7E1E5D1B21F7793134
:10053000E2CB0F3F641CC61CB8F2683395C6B13FCE
:10054000461A2B1E58EE373597C1FB3F24188C1FD7
:1005500002EAE536F0BCEC3FFE15E720BAE571385B
:10056000A6B8853FD5133D2282E1DB39BEB4C53E36
:10057000A8118E235DDD213B40B1AF3D790FDA2418
:100580004DD9423C2EAE423C480D202656D53F3D2B
:100590008EAB823A140B602778D1153E63A971386F
:1005A000DF089A28B7CDC53EB1A71236A906CE29D5
:1005B00015CA4F3F78A668337104FB2A95C6B13F30
:1005C000BCA576303902212C38C3EC3F7EA5412DE5
:1005D0000000412D00C00040BCA5CE29C7FD5A2E09
:1005E000F0BCEC3F78A620268FFB6C2F09BAB13FF8
:1005F000B1A73D2257F976304DB74F3F63A92B1E67
:1006000021F77931BEB4C53E8EABEF19ECF47432EC
:100610005EB2153E2EAE9015B8F268332DB03F3D58
:1006200040B1121187F053342EAE423CBEB47C0C64
:1006300058EE373561AC213BA6B8D6072BEC123605
:10064000C8AADB39F0BC240302EAE53663A9713895
:1006500097C16EFEDCE7B03734A8E53695C6BAF927
:10066000BAE571383BA73735E2CB0FF59CE32B3960
:1006700078A6683378D173F082E1DB39EDA5793162
:100680004ED7EDEB6DDF823A99A56C2F5DDD82E7E9
:100690005DDD213B7EA5412D9CE33AE352DBB63B79
:1006A00099A5FB2A02EA19DF4DD9423CEDA59A280B
:1006B00087F026DB4ED7C53C78A6202621F766D7E3
:1006C00056D53F3D3BA78E23C7FDDFD363D3AF3D58
:1006D00034A8E720710494D078D1153E63A92B1E6D
:1006E000140B8CCD94CF723EC8AA5D1BA811C9CA49
:1006F000B7CDC53E61AC7E18241850C8E2CB0F3F81
:100700002EAE90157E1E25C615CA4F3F2DB09412F1
:10071000AE244AC451C8853F5EB28D0FAA2AC1C219
:1007200095C6B13FBEB47C0C6C308EC1E2C4D43FE0
:100730004DB76409EB35B1C038C3EC3F09BA460682
:100740001E3B2CC097C1FB3FF0BC240300400000BF
:100750000040000000400000D03E2E019B3F65009D
:10076000363FC9009A3D5B02363FC900693E92019F
:100770005F3C8803D03E2E019A3D5B021E3BB504D0
:10078000693E9201C83C2403D939E205023EF701D3
:10079000F43BED038E380E079A3D5B021E3BB50419
:1007A0003F373908313DC002463A7E05EB356409D2
:1007B000C83C24036B39460692348E0A5F3C88039A
:1007C0008E380E073433B70BF43BED03AF37D60743
:1007D000D231DF0C8A3B5104CE369D086C30060EB8
:1007E0001E3BB504EB356409022F2B0FB23A1A05F4
:1007F00005352B0A932D5010463A7E051E34F10A1A
:10080000212C7311D939E2053433B70BAA2A94127B
:100810006B39460649327C0C3129B413FD38AA06DF
:100820005B31410DB327D2148E380E076C30060EA3
:100830003226EE151F3872077B2FCA0EAE24091719
:10084000AF37D607882E8D0F262321183F3739085A
:10085000932D50109C213719CE369D089D2C1211D6
:100860000E204B1A5D360109A42BD3117E1E5D1B91
:10087000EB356409AA2A9412EB1C6C1C7835C70965
:10088000AF295413561B791D05352B0AB2281314B2
:10089000BE19841E92348E0AB327D21424188C1FDA
:1008A0001E34F10AB326901588169120A933540BF3
:1008B000B1254C16EA1493213433B70BAE24091733
:1008C0004A139222BF321A0CA923C417A8118E23EF
:1008D00049327C0CA3227E1805108824D231DF0C0B
:1008E0009C213719610E7E255B31410D9320EF1954
:1008F000BB0C7126E430A40D891FA71A140B6027C6
:100900006C30060E7E1E5D1B6D094C28F42F680EA0
:10091000721D121CC40735297B2FCA0E641CC61C0D
:100920001B061A2A022F2B0F561B791D7104FB2A56
:10093000882E8D0F461A2B1EC702D82B0E2EEE0FB7
:100940003519DC1E1C01B22C932D501024188C1F5D
:1009500072FF882D182DB11011173A20C7FD5A2E9D
:100960009D2C1211FE15E7201DFC282F212C731140
:10097000EA14932173FAF22FA42BD311D5133D223D
:10098000CAF8B830282B3412BF12E72221F7793188
:10099000AA2A9412A8118E2379F536322D2AF41240
:1009A00091103524D2F3EF32AF295413790FDA24A2
:1009B0002CF2A3333129B413610E7E2587F0533412
:1009C000B2281314480D2026E3EEFF3433287314A5
:1009D0002E0CC12641EDA535B327D214140B602788
:1009E000A1EB483633273115FA09FE2702EAE5362E
:1009F000B3269015DF089A2865E87E373226EE1573
:100A0000C4073529CBE61238B1254C16A906CE29E4
:100A100032E5A1382F25AB168D05652A9CE32B39CD
:100A2000AE2409177104FB2A08E2B0392B2466179B
:100A300055038F2B77E0303AA923C4173902212CB4
:100A4000E9DEAB3A262321181C01B22C5DDD213BE7
:100A5000A3227E180000412DD5DB923B1F22DB181C
:100A6000E4FECF2D4FDAFD3B9C213719C7FD5A2EEE
:100A7000CDD8643C17219319ABFCE42E4ED7C53C6E
:100A80009320EF198FFB6C2FD3D5213D0E204B1AED
:100A900073FAF22F5CD4783D891FA71A57F9763084
:100AA000E8D2C93D041F021B3CF8F93078D1153E4D
:100AB0007E1E5D1B21F779310CD05C3EF81DB81B02
:100AC00006F6F831A5CE9D3E721D121CECF4743270
:100AD00041CDD83EEB1C6C1CD2F3EF32E2CB0F3F82
:100AE000641CC61CB8F2683388CA403FDD1B201D59
:100AF0009FF1DF3332C96B3F561B791D87F05334AA
:100B0000E1C7913FCE1AD31D6FEFC63495C6B13FF2
:100B1000461A2B1E58EE37354EC5CC3FBE19841EE3
:100B200041EDA5350CC4E13F3519DC1E2BEC123626
:100B3000CFC2F13FAD18341F16EB7D3697C1FB3F96
:100B400024188C1F02EAE53665C000409B17E31F9E
:100B5000EFE84B3738BFFF3F11173A20DCE7B037DB
:100B600011BEF83F88169120CBE61238F0BCEC3F5E
:100B7000FE15E720BAE57138D4BBDB3F74153D2183
:100B8000AAE4CF38BFBAC43FEA1493219CE32B39BF
:100B9000AFB9A73F5F14E8218EE28439A6B8853F3C
:100BA000D5133D2282E1DB39A2B75D3F4A13922281
:100BB00077E0303AA5B6303FBF12E7226DDF823AC8
:100BC000AFB5FD3E34123B2364DED33ABEB4C53E1E
:100BD000A8118E235DDD213BD5B3883E1D11E22394
:100BE00057DC6D3BF2B2453E9110352452DBB63BEB
:100BF00015B2FC3D051088244FDAFD3B40B1AF3DF6
:100C0000790FDA244DD9423C71B05B3DED0E2C25B5
:100C10004DD8853CA9AF033D610E7E254ED7C53C1E
:100C2000E8AEA53CD40DCF2551D6033D2EAE423CB7
:100C3000480D202656D53F3D7BADDA3BBB0C7126D7
:100C40005CD4783DD0AC6D3B2E0CC12663D3AF3D58
:100C50002BACFA3AA10B11276DD2E33D8EAB823A51
:100C6000140B602778D1153EF8AA063A870AAF27F9
:100C700085D0453E6AAA8439FA09FE2794CF723E90
:100C8000E3A9FD386D094C28A5CE9D3E63A97138B6
:100C9000DF089A28B7CDC53EEBA8E1375208E72810
:100CA000CCCCEB3E7BA84B37C4073529E2CB0F3FBA
:100CB00012A8B13636078129FBCA303FB1A71236D8
:100CC000A906CE2915CA4F3F57A76E351B061A2A0B
:100CD00032C96B3F05A7C6348D05652A51C8853FCB
:100CE000BBA61934FF04B02A72C79C3F78A66833AC
:100CF0007104FB2A95C6B13F3EA6B232E303452BF1
:100D0000BAC5C43F0BA6F83155038F2BE2C4D43FBC
:100D1000E0A53931C702D82B0CC4E13FBCA5763021
:100D20003902212C38C3EC3FA1A5AF2FAA016A2CB0
:100D300066C2F53F8DA5E42E1C01B22C97C1FB3F86
:100D400081A5152E8E00FA2CCAC0FF3F7EA5412D2D
:100D50000000412D00C0004081A56A2C72FF882D43
:100D600038BFFF3F8DA58F2BE4FECF2D73BEFB3F19
:100D7000A1A5B02A56FE152EB0BDF53FBCA5CE29C3
:100D8000C7FD5A2EF0BCEC3FE0A5E72839FD9F2EA9
:100D900032BCE13F0BA6FE27ABFCE42E77BBD43F71
:100DA0003EA611271DFC282FBFBAC43F78A62026D7
:100DB0008FFB6C2F09BAB13FBBA62C2501FBAF2FCF
:100DC00056B99C3F05A7352473FAF22FA6B8853F84
:100DD00057A73B23E5F93430F8B76B3FB1A73D2265
:100DE00057F976304DB74F3F12A83D21CAF8B830B9
:100DF000A5B6303F7BA83A203CF8F93000B60F3F4B
:100E0000EBA8341FAEF739315EB5EB3E63A92B1E5C
:100E100021F77931BEB4C53EE3A9201D93F6B9315F
:100E200022B49D3E6AAA121C06F6F83188B3723EBF
:100E3000F8AA021B79F53632F2B2453E8EABEF19B5
:100E4000ECF474325EB2153E2BACDB185FF4B232B8
:100E5000CDB1E33DD0ACC417D2F3EF3240B1AF3DDA
:100E60007BADAB1645F32C33B5B0783D2EAE901567
:100E7000B8F268332DB03F3DE8AE73142CF2A333C3
:100E8000A9AF033DA9AF54139FF1DF3328AFC53C91
:100E900071B0341213F11934A9AE853C40B112116E
:100EA00087F053342EAE423C15B2EE0FFBEF8D347B
:100EB000B6ADFD3BF2B2CA0E6FEFC63441ADB63BE4
:100EC000D5B3A40DE3EEFF34D0AC6D3BBEB47C0CC7
:100ED00058EE373561AC213BAFB5540BCCED6E35D8
:100EE000F6ABD33AA5B62B0A41EDA5358EAB823AC7
:100EF000A2B70109B6ECDC3529AB303AA6B8D60763
:100F00002BEC1236C8AADB39AFB9AA06A1EB4836DA
:100F10006AAA8439BFBA7E0516EB7D360FAA2B3933
:100F2000D4BB51048CEAB136B7A9CF38F0BC240346
:100F300002EAE53663A9713811BEF70178E918377E
:100F400012A9123838BFC900EFE84B37C5A8B0372F
:100F500065C09BFF65E87E377BA84B3797C16EFE67
:100F6000DCE7B03734A8E536CFC240FD53E7E137C0
:100F7000F1A77D360CC413FCCBE61238B1A71236AC
:100F80004EC5E6FA42E6423874A7A53595C6BAF9C9
:100F9000BAE571383BA73735E1C78EF832E5A1389D
:100FA00005A7C63432C963F7AAE4CF38D3A65334B1
:100FB00088CA39F623E4FD38A4A6DF33E2CB0FF567
:100FC0009CE32B3978A6683341CDE6F315E3583915
:100FD00050A6EF32A5CEBFF28EE284392CA6743231
:100FE0000CD098F108E2B0390BA6F83178D173F043
:100FF00082E1DB39EDA57931E8D24FEFFCE0063A2A
:10100000D3A5F9305CD42DEE77E0303ABCA576302C
:10101000D3D50CEDF2DF593AA9A5F22F4ED7EDEB5F
:101020006DDF823A99A56C2FCDD8CFEAE9DEAB3AD5
:101030008DA5E42E4FDAB4E964DED33A85A55A2EA5
:10104000D5DB9AE8E1DDFA3A7FA5CF2D5DDD82E7B9
:101050005DDD213B7EA5412DE9DE6DE6DADC473B17
:101060007FA5B22C77E059E557DC6D3B85A5212C97
:1010700008E248E4D5DB923B8DA58F2B9CE33AE355
:1010800052DBB63B99A5FB2A32E52DE2D1DADA3BF9
:10109000A9A5652ACBE624E14FDAFD3BBCA5CE2904
:1010A00065E81DE0CED9203CD3A5352902EA19DF39
:1010B0004DD9423CEDA59A28A1EB18DECDD8643C71
:1010C0000BA6FE2741ED19DD4DD8853C2CA66027E7
:1010D000E3EE1EDCCDD7A53C50A6C12687F026DB6B
:1010E0004ED7C53C78A620262CF231DACFD6E43C88
:1010F000A4A67E25D2F33FD951D6033DD3A6DA2448
:1011000079F551D8D3D5213D05A7352421F766D7E8
:1011100056D53F3D3BA78E23CAF87FD6D8D45B3D3A
:1011200074A7E72273FA9BD55CD4783DB1A73D2222
:101130001DFCBBD4DFD3933DF1A79321C7FDDFD3C3
:1011400063D3AF3D34A8E72072FF06D3E8D2C93D90
:101150007BA83A201C0131D26DD2E33DC5A88C1F7B
:10116000C70261D1F2D1FC3D12A9DC1E710494D0FA
:1011700078D1153E63A92B1E1B06CCCFFED02D3E89
:10118000B7A9791DC40707CF85D0453E0FAAC61C55
:101190006D0947CE0CD05C3E6AAA121C140B8CCD94
:1011A00094CF723EC8AA5D1BBB0CD4CC1CCF883E2A
:1011B00029ABA71A610E21CCA5CE9D3E8EABEF19AF
:1011C000051073CB2ECEB13EF6AB3719A811C9CAA4
:1011D000B7CDC53E61AC7E184A1324CA41CDD83E76
:1011E000D0ACC417EA1483C9CCCCEB3E41AD09178F
:1011F0008816E8C857CCFD3EB6AD4C16241850C82A
:10120000E2CB0F3F2EAE9015BE19BEC76ECB203F6E
:10121000A9AED214561B31C7FBCA303F28AF1314F6
:10122000EB1CA8C688CA403FA9AF54137E1E25C632
:1012300015CA4F3F2DB094120E20A7C5A3C95D3F1C
:10124000B5B0D3119C212DC532C96B3F40B11211ED
:101250002623B9C4C1C8783FCDB15010AE244AC4CA
:1012600051C8853F5EB28D0F3226E0C3E1C7913F82
:10127000F2B2CA0EB3277BC372C79C3F88B3060E77
:1012800031291CC303C7A73F22B4410DAA2AC1C2FA
:1012900095C6B13FBEB47C0C212C6DC227C6BB3FA6
:1012A0005EB5B70B932D1DC2BAC5C43F00B6F10A97
:1012B000022FD3C14EC5CC3FA5B62B0A6C308EC1D0
:1012C000E2C4D43F4DB76409D2314FC176C4DB3F8D
:1012D000F8B79D08343315C10CC4E13FA6B8D60752
:1012E0009234E0C0A1C3E73F56B90E07EB35B1C059
:1012F00038C3EC3F09BA46063F3788C0CFC2F13F3A
:10130000BFBA7E058E3864C066C2F53F77BBB504B0
:10131000D93945C0FEC1F83F32BCED031E3B2CC09D
:1013200097C1FB3FF0BC24035F3C19C030C1FD3FB7
:10133000B0BD5B029A3D0BC0CAC0FF3F73BE9201B5
:10134000D03E03C065C0004038BFC900202A04DB7E
:10135000203A21FA02F00021704721FA02F3D0402E
:10136000C2F120029140084319467047D2B201E011
:1013700000F8012B491EFBD270470022F6E710B59A
:1013800013460A4604461946FFF7F0FF204610BDF3
:10139000F0B480EA0102D40F4200B2EB410F02D256
:1013A0000246084611464A0042D0C30DDDB2C1F3E1
:1013B000C752AD1A202D35DAC1F3160141F40002EF
:1013C00004B15242C5F1200602FA06F12A41104446
:1013D000B3EBD05F23D0C4B1012DA0EBC35009DC27
:1013E000F0BC4FF0004202EAC352DBB200F500004D
:1013F00000F0B2BA400000F1807000EBC350A0F1E1
:10140000807040EAD170490009E0490841EAC071A2
:10141000A0EBC35000F50000400800EBC350F0BC47
:1014200000F091BA6142012202EB4101001BF6E794
:10143000F0BC704781F00041AAE780F00040A7E7C8
:1014400080EA010210B502F00043400022D04A00B9
:101450001FD0010E01EB1261C0F35600C2F3560219
:1014600040F4000042F40002A0FB022000047F3997
:10147000140400D0401C50EA124001D44000491E20
:10148000C2B20C0604EBD010401C4008802A02D0E7
:1014900003E0002010BD20F00100002900DA002048
:1014A000184310BD2DE9FE4F804681EA0300C00FAE
:1014B0000C46009021F0004123F00045B8EB0200FB
:1014C000A94105D24046214690461C460B4602469D
:1014D00023F00040104347D0270DC7F30A00C3F3A1
:1014E0000A510290401A019040286BDAC3F31300AE
:1014F00040F4801B0098924620B10023D2EB030AEF
:1015000063EB0B0B01985946C0F14002504600F0C6
:10151000F9F906460D4650465946019A00F001FA7F
:1015200010EB08006141002487EA115284EAE77356
:101530001A4340D0009A62B3019A012A4FEA075237
:1015400015DC001B61EB02014FF0004202EA07527A
:10155000CDE90042001C41F5801132462B4600F0D7
:1015600038FA03B0BDE8F08F40462146F9E7001B8A
:1015700061EB0201001C41F5801300185B4120184B
:10158000A2F5001747EB030140EAD570B6196D418B
:1015900011E06D084FEA360645EAC0754FEA07527A
:1015A000001B61EB0201001C41F5801149084FEA64
:1015B00030000019514132462B4603B0BDE8F04FD0
:1015C00000F0F8B90098012240000023D0EB02029D
:1015D00063EBE073009821464FEAE074B8EB00003B
:1015E00061EB0401E9E783F000435BE781F0004130
:1015F00058E72DE9FE4F81EA030404F0004421F08E
:10160000004100944FF0000B23F0004350EA010426
:101610005ED052EA03045BD0C3F30A54C1F30A5507
:101620002C44A4F2F3340194A0FB0254C1F313013F
:1016300041F48011C3F3130343F4801301FB02440C
:1016400000FB034E840A970A44EA815447EA835711
:10165000A4FB076802958D0A05FB07854FEA932CCA
:1016600004FB0C542705029D4FEA065847EA16373B
:10167000B5EB08056EEB070C870E920E47EA811753
:1016800042EA8312A7FB0201B6EB0B0164EB0004F4
:101690002B0D43EA0C335E1844EB1C50DA465146DE
:1016A000E7FB0201C5F313044FEA0B3343EA14537B
:1016B0004FEA0432019C43EA0603A4F10C040294AD
:1016C000009CCDE900B400F084F903B0BDE8F08FD0
:1016D00000200146F9E72DE9F04D81EA030404F00A
:1016E000004B21F0004514464FF0000A23F0004162
:1016F00050EA050220D054EA01021DD0C5F30A5772
:101700000246C5F31303C1F31300C1F30A5640F4B4
:10171000801543F48013A7EB0608101BD64608F289
:10172000FD3873EB050002D308F1010801E09218BF
:101730005B41B8F1000F03DA00200146BDE8F08DEF
:1017400000204FF48011064684460EE0171B73EB11
:10175000050705D3121B63EB050306434CEA010C96
:1017600049084FEA300092185B4150EA0107EDD179
:1017700052EA030012D082EA040083EA050108431A
:1017800005D0101BAB4106D20122002306E0002247
:101790004FF0004302E06FF0010253101AEB060015
:1017A0004CEB085110EB0A0041EB0B01BDE8F04D8A
:1017B00000F000B9C10F80EAE0700844CA07962320
:1017C000002100F0C9B80EB540F23341029100216A
:1017D000CDE900110A460B4600F0FBF803B000BD4E
:1017E00000F0004220F00040C10DC0F3160040F4AC
:1017F00000007F2901DA00207047962903DCC1F13F
:101800009601C84001E096398840002AF4D0404251
:101810007047C1F30A5210B5C1F3130140F2FF3310
:1018200041F480119A4201DA002010BD40F23343A6
:101830009A42A2F2334203DC5242FFF787FD10BD09
:10184000904010BD00F0004230F000400AD0C10DC1
:1018500001F56071C0F3160042EA0151C208400769
:1018600011437047002001467047000030B5041E48
:1018700071F1000404DB4FF00044404264EB0101CD
:10188000141E73F1000405DB1C464FF00043524266
:1018900063EB04038B4208BF824230BD30B5041EA7
:1018A00071F1000404DB4FF00044404264EB01019D
:1018B000141E73F1000405DB1C464FF00043524236
:1018C00063EB0403994208BF904230BD01F000432E
:1018D00030B421F0004150EA010206D00A0DA2F511
:1018E0006072C1F31301002A02DC30BC0020704793
:1018F000440F44EAC104C100E01830BC00EBC25000
:1019000000F021B8202A04DB203A00FA02F100207E
:1019100070479140C2F1200320FA03F3194390402D
:101920007047202A06DBCB17203A41FA02F043EA3F
:10193000E07306E041FA02F3D040C2F12002914088
:101940000843194670470029A8BF7047401C49004A
:1019500008BF20F00100704710B4B0FA80FC00FA14
:101960000CF050EA010404BF10BC704749B1CCF13F
:10197000200421FA04F411FA0CF118BF01212143CB
:101980000843A3EB0C01CB1D4FEA00614FEA102086
:1019900042BF002010BC704700EBC3501044002928
:1019A000A4BF10BC7047401C490008BF20F00100D4
:1019B00010BC704710B5141E73F1000408DA401C07
:1019C00041F1000192185B411A4301D120F001005E
:1019D00010BD2DE9F04D92469B4611B1B1FA81F24E
:1019E00002E0B0FA80F220329046FFF78BFF044607
:1019F0000F4640EA0A0041EA0B0153465A460843A3
:101A000013D0114653EA010019D0C8F140025046E4
:101A1000FFF79CFC05460E46504659464246FFF7E6
:101A200071FF084305D0012004E020463946BDE897
:101A3000F08D0020054346EAE0762C4337430A98B0
:101A40006305E40AA0EB08000022FD0A44EA4754BB
:101A50000A3002D500200146E9E701051019694165
:101A6000DDE9084500196941BDE8F04DA2E72DE91F
:101A7000F04D00231A461B1A8A4103DB0020014661
:101A8000BDE8F08DC1F30A52C1F3130141F4801592
:101A90004FF0000BD10702D100186D41521E0027F4
:101AA000044640F2FF11384601EB620A3E4680468A
:101AB000024600204FF48011FFF748FCC219714123
:101AC000BB1846EB0100B4EB030C75EB000C04D320
:101AD000E41A65EB000517460E46241908F10100CB
:101AE0006D4180463428E3DDF91946EB0600091BF9
:101AF000A84103D24FF0FF32134601E00022134603
:101B00001BEB070046EB0A51BDE8F04DFFF752BF53
:101B1000064C074D06E0E06840F0010394E807003A
:101B200098471034AC42F6D3FEF706FBE8BB00083A
:101B300008BC000870B58D1810F8014B14F00302B2
:101B400001D110F8012B231106D110F8013B03E05D
:101B500010F8016B01F8016B521EF9D1ABB110F80E
:101B6000012B04F00C048A1A0C2C03D0A2EB841273
:101B70009B1C08E010F8014BA2EB0422F8E712F8D6
:101B8000014B01F8014B5B1EF9D5A942D4D30020CB
:101B900070BD70B5044600252068806800F0010023
:101BA00018B32068806820F001002168886000F088
:101BB00079FF054613E000F075FF401B02280ED99F
:101BC0002068806800F0010048B1A06A40F0100071
:101BD000A062E06A40F00100E062012070BD206870
:101BE000806800F001000028E5D10020F6E7000041
:101BF00038B504460025002000902068806800F079
:101C0000010078BB2068806840F00100216888608E
:101C1000194800681949B0FBF1F0009002E0009803
:101C2000401E009000980028F9D100F03BFF0546C7
:101C300019E000F037FF401B022814D920688068A3
:101C400000F0010078B9A06A40F01000A062E06ADC
:101C500040F00100E06200BF002084F8240000BFD3
:101C6000012038BD05E02068806800F001000028F0
:101C7000DFD00020F5E700006C10002040420F008C
:101C800000BFFEE7704700001CB50A2000F0F4FC1E
:101C90001F20264908600821254800F0EBFE002897
:101CA0003FD124480078012825D100BF2248006890
:101CB000006A41F21111084068B91F480068006AC3
:101CC0008910084038B91C480068006820F00100FD
:101CD00019490968086000BF00201649087017A05C
:101CE00010210B46C822CDE900100A214FF4D27012
:101CF00002F0E0FA15E010480068006840F00100CA
:101D00000D490968086001200A4908700DA01021DA
:101D10000B46C822CDE900100A214FF4D27002F020
:101D2000C9FA0820094908601CBD00000000002015
:101D300000180140201000204461002053544F50EF
:101D400020200000574F524B0000000014040140B7
:101D500008B50A2000F090FC10212C4800F08AFE03
:101D600000284ED11F202A4908602A480078401CCC
:101D70002849087008460078012806D164202649C1
:101D800008800A202549088024E02248007802289B
:101D900006D10A202049088064202049088019E0E3
:101DA0001C480078032807D102201B4908804FF403
:101DB000FA701A4908800DE016480078042809D105
:101DC0004FF47A70144908800120144908800020DB
:101DD0001049087010200323009010480288E32166
:101DE0004FF4D27002F01CFA00BF0B480088401E6E
:101DF0000B490968C86208480088401E0849C86045
:101E000000BF10200749086008BD0000001801400D
:101E1000000000201E100020081000200A100020E2
:101E2000446100201404014072B600BFFEE70000C8
:101E300070B50446B3F5804F13D1D1E9000540EAEF
:101E400005108D6840EA05208D6928438D8940EA98
:101E5000054054F82250064E3540284344F82200ED
:101E600003E06FF0704044F82200002070BD0000D5
:101E70000000F0CF70B50246086852F8200020F04C
:101E800001000E6842F826008868082801D1402326
:101E900000E00023486818438E683043CE68304322
:101EA0000E6930434E693043CE6930430E6A304389
:101EB0004E6A30438E6A3043CE6A30430E6B40EA3E
:101EC000060488690443486B0443074D45F4806564
:101ED00045F4E025086852F82000A84320430E6826
:101EE00042F82600002070BD7FFB080010B50346B5
:101EF000D1E9000440EA04108C6840EA04208C898F
:101F000040EA0444088A401E44EA0054087D801ECA
:101F100044EA00608C692043541C53F8244004F0C8
:101F200040442043541C43F82400002010BD00000E
:101F30002DE9F04F93B0002012908346282106A887
:101F4000FFF71BFADA464FF48062A249A248FEF777
:101F50000DF901244FE0A04931F8241008B2FFF731
:101F600029FC11909C4951F824100814FFF722FC19
:101F7000109010990846FFF763FA029011990846ED
:101F8000FFF75EFA01900299FFF702FA0390FFF75C
:101F900059FCCDE9040105F054FA06460F4606A89F
:101FA00000EBCA0003C802460B46CDE904013046E7
:101FB0003946FFF773FC1CD206A800EBCA00C0C06C
:101FC0001294002513E006A800EBCA0103C9CDE96D
:101FD000040106A800EBC50003C8CDE90201DDE954
:101FE0000423FFF743FC00D2AA46681C85B2052DE6
:101FF000E9DB601C84B2B4F5007FACDB012427E090
:10200000DDE90601CDE9020106A800EBC40103C920
:10201000CDE90001DDE90223FFF75DFBCDE9040115
:10202000FFF754FC81464846FFF70CFC6B4A6C4BAB
:10203000CDE90401FFF732FC08D249464846FFF7D4
:10204000FFF959460590FFF7A3F98346601C84B257
:10205000052CD5DB5846FFF7F5FBCDE9020105F06D
:10206000F0F9CDE90401FFF731FC83465D480088B3
:10207000B0F57A7F14D11298FFF7A5FB00225A4BD6
:10208000CDE90001FFF727FB0022584BCDE9020103
:10209000FFF7AFFACDE90401FFF7BBFB5449086035
:1020A00050480088642814D11298FFF78CFB002256
:1020B0004D4BCDE90001FFF70EFB00224D4BCDE962
:1020C0000201FFF796FACDE90401FFF7A2FB4849A8
:1020D0000860444800880A2814D11298FFF773FB5F
:1020E0000022414BCDE90001FFF7F5FA0022424BF7
:1020F000CDE90201FFF77DFACDE90401FFF789FB85
:102100003B49086037480088022814D11298FFF72D
:102110005AFB0022344BCDE90001FFF7DCFA002224
:10212000364BCDE90201FFF764FACDE90401FFF770
:1021300070FB2F4908601020052300902C48C02117
:1021400002684FF4D27002F06BF82D495846FFF741
:1021500077F90590FFF744FB80461F202949086066
:10216000642098FBF0F005901020022300904FF4BB
:1021700083714FF4D270059A02F052F822A0102118
:102180000B460A46CDE900104FF483714FF4DB7023
:1021900002F090F8642098FBF0F100FB11800590AC
:1021A0001020022300904FF483714FF4DE70059AE3
:1021B00002F036F815A010210B460A46CDE90010B2
:1021C0004FF483714FF4E77002F074F813B0BDE878
:1021D000F08F0000CC200020CC3000207B14AE47D4
:1021E000E17A843F081000200000904000408F40BA
:1021F0000C100020008DC3408076F840007D0E4119
:1022000000401C46000000202E00000025000000B9
:1022100038B5024600230020009000BF92F8240049
:10222000012801D1022038BD012082F8240000BF1E
:102230004868072812D21068406B0C79641E04EBC2
:1022400084051F24AC40A0430D796D1E05EB850568
:102250000C68AC4020431468606327E048680D2890
:1022600012D21068006B0C79E41F04EB84051F2464
:10227000AC40A0430D79ED1F05EB85050C68AC4023
:1022800020431468206311E01068C06A0C790D3C8B
:1022900004EB84051F24AC40A0430D790D3D05EBF4
:1022A00085050C68AC4020431468E06208680A2881
:1022B00012D31068C0680C780A3C04EB440507246C
:1022C000AC40A0430D780A3D05EB45058C68AC4059
:1022D00020431468E0600FE0106800690C7804EB9C
:1022E00044050724AC40A0430D7805EB45058C68F8
:1022F000AC402043146820610868102802D00868A8
:10230000112827D1174C1068A0421ED11068806890
:1023100000F40000F0B91068806840F40000146810
:10232000A0600868102815D10F4800680F4CB0FB5A
:10233000F4F000EB80004000009002E00098401EA6
:10234000009000980028F9D104E0906A40F0200045
:102350009062012300BF002082F8240000BF1846CD
:1023600061E70000002401406C10002040420F0093
:1023700001460868C06C70472DE9F041044600270B
:1023800000250026A84614B90120BDE8F081A06808
:1023900010B1207D00B100BFA06A30B90020E0621A
:1023A00084F82400204600F097F82046FFF7F1FB60
:1023B0000746A06A00F01000002873D1002F7ED1DC
:1023C000A06A20F4885040F00200A0623F4AD4E99D
:1023D0000001904208D1E069B0F5402F02D14FF4DE
:1023E000002002E0E06900E0E0690143207B41EA6F
:1023F00040000643A068B0F5807F02D0A0680128A5
:1024000002D14FF4807000E000200543207D0128B8
:1024100011D1207B38B9A069401E4FF4006141EA18
:102420004030054307E0A06A40F02000A062E06A67
:1024300040F00100E0622068406820F469402843D1
:10244000216848602068806821490840304321683D
:102450008860A068B0F5807F02D0A068012802D112
:102460004FF4807000E00020B0F5807F03D1208A17
:10247000401E4FEA00582068C06A20F4700040EA0D
:1024800008002168C8622068806812490840B0428C
:1024900009D10020E062A06A20F0020040F00100B3
:1024A000A06211E00BE0A06A20F0020040F01000F2
:1024B000A062E06A40F00100E062012704E0A06A47
:1024C00040F01000A062012738465EE7003C014062
:1024D000FDF7E1FFFE0E1FFF10B586B00446002099
:1024E000029003900490059014492068884222D1FC
:1024F00000BF1348806940F40070114988610846A4
:10250000806900F40070019000BF00BF00BF084662
:10251000806940F0040088610846806900F004008A
:10252000019000BF00BF022002900320039002A987
:10253000044800F0FFF806B010BD00000024014080
:10254000001002400008014070B50446002500BF9D
:1025500094F82400012801D1022070BD012084F8E4
:10256000240000BF2046FFF743FB0546002D77D12E
:10257000A06A40F20121884340F48070A0623C4987
:102580002068884208D13B48006800F4702008B9F0
:10259000012002E0002000E0012078B1A06A20F4D0
:1025A0008010A0622068406800F4806000B3A06AD8
:1025B00020F4005040F48050A06219E0A06A40F47A
:1025C0008010A0622B49091F2068884203D0284947
:1025D0002068884204D12748006800F4806000E049
:1025E000002028B1A06A20F4005040F48050A0627E
:1025F000A06A00F4805020B1E06A20F00600E0629A
:1026000001E00020E06200BF002084F8240000BF49
:10261000C01E216808602068806800F46020B0F562
:10262000602F16D112492068884208D111480068ED
:1026300000F4702008B9012002E0002000E0012031
:1026400038B12068806840F4A000216888600CE000
:1026500006E02068806840F480102168886004E00B
:1026600000BF002084F8240000BF284675E7000062
:10267000002801400424014070B5044600F012FA1D
:1026800006462546681C10B104480078054400BF82
:1026900000F008FA801BA842FAD370BD6810002031
:1026A00000B585B0002001900290039004901C4872
:1026B000006808B105B000BD01201949086000BFDD
:1026C0001848406940F480701649486108464069DE
:1026D00000F48070009000BF00BF41F20100019043
:1026E000022002900320049001A90F4800F022F874
:1026F0004FF680700190022002900320049001A9FF
:102700000A4800F017F84CF2337001900220029052
:102710000320049001A9064800F00CF800BFC9E7A7
:102720005810002000100240002001400018014015
:10273000001401402DE9F847024600239C467BE146
:102740004FF0010808FA03F4D1F8008008EA040009
:10275000A0427DD1DFF8F4A2D1F80480A8EB0A09E9
:10276000D0453AD014DCB8F1030F50D009DCB8F1F1
:10277000000F31D0B8F1010F1CD0B8F1020F49D1D0
:1027800020E0B8F1110F18D0B8F1120F42D11EE0BD
:10279000B9F5881F25D006DCB9F5803F20D0B9F502
:1027A000801F37D11AE0B9F5001F18D0B9F5041F02
:1027B00030D117E0D1F80CC02DE0D1F80C8008F131
:1027C000040C28E0D1F80C8008F1080C23E0D1F8C3
:1027D0000C8008F10C0C1EE000BF00BF00BF00BF62
:1027E00000BF00BFD1F80880B8F1000F02D14FF050
:1027F000040C0BE0D1F80880B8F1010F03D14FF0C1
:10280000080C146102E04FF0080C546103E04FF033
:10281000000C00E000BF00BFFF2801D8904601E097
:1028200002F104084646FF2802D84FEA830803E075
:10283000A3F108084FEA88084746D6F800804FF011
:102840000F0909FA07F928EA09080CFA07F900E064
:102850007AE048EA0908C6F80080D1F8048008F058
:102860008058B8F1805F6FD100BFDFF8E481D8F8FD
:10287000188048F00108DFF8D891C9F81880C846D8
:10288000D8F8188008F00108CDF8008000BF00BF1C
:102890004FEAB9384FEA930958F829504FEA83783C
:1028A0004FEA18794FF00F0808FA09F825EA0805E9
:1028B000DFF8A081424502D14FF0000824E0DFF8A4
:1028C0009881424502D14FF001081DE0DFF88C816C
:1028D000424502D14FF0020816E0DFF884814245FC
:1028E00002D14FF003080FE0DFF87881424502D1B2
:1028F0004FF0040808E0DFF87081424502D14FF044
:10290000050801E04FF006084FEA83794FEA19798C
:1029100008FA09F848EA0505DFF850814FEA9309FB
:1029200048F82950D1F8048008F48038B8F5803F81
:102930000BD1DFF83C81D8F8008048EA0008DFF8C6
:102940003091C9F800800AE075E0DFF82481D8F8FA
:10295000008028EA0008DFF81891C9F80080D1F853
:10296000048008F40038B8F5003F0ED1DFF800818C
:1029700008F10408D8F8008048EA0008DFF8F09071
:1029800009F10409C9F800800DE0DFF8E48008F1DE
:102990000408D8F8008028EA0008DFF8D49009F18C
:1029A0000409C9F80080D1F8048008F48018B8F54B
:1029B000801F0ED1DFF8B88008F10808D8F8008031
:1029C00048EA0008DFF8A89009F10809C9F8008072
:1029D0000DE0DFF89C8008F10808D8F8008028EAAC
:1029E0000008DFF88C9009F10809C9F80080D1F8D7
:1029F000048008F40018B8F5001F0ED1DFF87080CD
:102A000008F10C08D8F8008048EA0008DFF8609068
:102A100009F10C09C9F800800DE0DFF8548008F1D5
:102A20000C08D8F8008028EA0008DFF8449009F183
:102A30000C09C9F800805B1CD1F8008028FA03F863
:102A4000B8F1000F7FF47CAEBDE8F88700001110EC
:102A50000010024000080140000C0140001001403D
:102A60000014014000180140001C01400800014012
:102A700000040140024693680B400BB1012000E0C6
:102A80000020704710B5C26821EA020302EA01047F
:102A900043EA0443036110BD0AB1016101E00B0484
:102AA0000361704701480068704700006010002013
:102AB00003480068034909780844014908607047E1
:102AC000601000206810002010B50848006840F031
:102AD000100006490860032000F0ACF8002000F068
:102AE00007F800F02BF8002010BD00000020024085
:102AF00070B504460E4800784FF47A71B1FBF0F0DF
:102B00000C490968B1FBF0F5284600F0DFFC08B17C
:102B1000012070BD102C07D200222146501E00F06B
:102B20004BF80548046001E00120F2E70020F0E7DF
:102B3000681000206C1000206410002008B500BF51
:102B40001348806940F00100114988610846806996
:102B500000F00100009000BF00BF00BF0846C06940
:102B600040F08050C8610846C06900F08050009075
:102B700000BF00BF052000F05DF800BF05494868B0
:102B800020F0E06040F00070486000BF08BD000029
:102B9000001002400000014001460846002809DB01
:102BA00000F01F0301229A4043099B0003F1E02338
:102BB000C3F8002100BF70472DE9F05F80460D4645
:102BC0001646002704F014F9074639462A463346CC
:102BD00001F00700C0F1070ABAF1040F02D94FF063
:102BE000040A01E0C0F1070AD14600F1040ABAF173
:102BF000070F02D24FF0000A01E0A0F1030AD44609
:102C00004FF0010A0AFA09FAAAF1010A0AEA020ACD
:102C10000AFA0CFA4FF0010B0BFA0CFBABF1010BAB
:102C20000BEA030B4AEA0B042146404604F0E8F89D
:102C3000BDE8F09F00BF00F00702064B19684FF691
:102C4000FF031940044B0B4343EA0221014B196077
:102C500000BF70470CED00E00000FA05F8B504462F
:102C600000260025207800F0010000286BD0002706
:102C70004348C06900F0805070B900BF4048C06947
:102C800040F080503E49C8610846C06900F080505D
:102C9000009000BF00BF01273A48006800F4807030
:102CA000B0B93848006840F4807036490860FFF7D2
:102CB000F9FE064606E0FFF7F5FE801B642801D901
:102CC0000320F8BD2F48006800F480700028F2D07F
:102CD0002B48006A00F440752DB3A08800F44070C2
:102CE000A84220D02648006A20F4407501202649D9
:102CF0000860002008602248056205F0010090B1DC
:102D0000FFF7D0FE064608E0FFF7CCFE801B41F23D
:102D10008831884201D90320D3E71948006A00F0BE
:102D200002000028F0D01648006A20F44070616864
:102D3000084313490862012F04D10846C06920F0F6
:102D40008050C86100BF207800F00200022807D13F
:102D50000B48406820F44040A16808430849486097
:102D6000207800F01000102807D10548406820F4B2
:102D7000800061690843024948600020A1E7000023
:102D800000100240007000404004424270B504460A
:102D90000D460CB9012070BD5A48006800F00700CC
:102DA000A8420ED25748006820F007002843554932
:102DB00008600846006800F00700A84201D0012022
:102DC000E9E7207800F0020002281DD1207800F009
:102DD0000400042805D14C48406840F4E0604A49AA
:102DE0004860207800F00800082805D1464840686F
:102DF00040F46050444948604348406820F0F00087
:102E0000A168084340494860207800F0010078B389
:102E10006068012806D13C48006800F4003090B991
:102E20000120B8E76068022806D13748006800F042
:102E3000007040B90120AEE73348006800F002009E
:102E400008B90120A7E73048406820F00300616816
:102E500008432D494860FFF725FE064609E0FFF7C5
:102E600021FE801B41F28831884202D9032092E77B
:102E700007E02548406800F00C006168B0EB810F66
:102E8000EDD12048006800F00700A8420ED91D4887
:102E9000006820F0070028431A49086008460068C7
:102EA00000F00700A84201D0012074E7207800F06C
:102EB0000400042807D11448406820F4E060E16869
:102EC000084311494860207800F00800082808D11C
:102ED0000D48406820F46050216940EAC1000A4969
:102EE000486000F03FF808494968C1F30311074AF8
:102EF000515CC8400649086006480068FFF7F8FDC5
:102F0000002048E70020024000100240CEBB00082D
:102F10006C10002064100020014800687047000019
:102F20006C10002000B5FFF7F7FF04494968C1F3B2
:102F30000221034A515CC84000BD0000001002405D
:102F4000DEBB000800B5FFF7E7FF04494968C1F39D
:102F5000C221034A515CC84000BD0000001002407D
:102F6000DEBB0008F0B585B00FF26C0C9CE8E010F9
:102F700001A8A0E8E0101CA52D6800950021002202
:102F8000002300240020194D696801F00C05F5B1FB
:102F9000042D02D0082D19D101E0154819E001AD2A
:102FA000C1F38346AC5D01F4803555B10F4D6D68BA
:102FB000C5F340451DF805200D4D6543B5FBF2F303
:102FC00002E00C4D04FB05F3184602E000BF084880
:102FD00000BF00BF05B0F0BD0203040506070809E5
:102FE0000A0B0C0D0E0F1010010200000010024021
:102FF00000127A0000093D00F8B504460CB9012022
:10300000F8BD207800F00100002878D0F84840682A
:1030100000F00C0004280CD0F548406800F00C00CB
:10302000082811D1F248406800F48030B0F5803FA4
:103030000AD1EF48006800F4003000285FD06068D3
:1030400000285CD10120DBE700BF6068B0F5803F5D
:1030500006D1E748006840F48030E549086028E080
:10306000606858B9E248006820F48030E0490860A0
:103070000846006820F4802008601AE06068B0F517
:10308000A02F0BD1DA48006840F48020D8490860AE
:103090000846006840F4803008600AE0D4480068C0
:1030A00020F48030D24908600846006820F480206F
:1030B000086000BF606888B1FFF7F4FC054606E0D1
:1030C000FFF7F0FC401B642801D9032098E7C848AB
:1030D000006800F400300028F2D010E0FFF7E2FCB6
:1030E000054606E0FFF7DEFC401B642801D90320FB
:1030F00086E7BF48006800F400300028F2D120784D
:1031000000F00200022857D1B948406800F00C00D6
:1031100050B1B748406800F00C00082818D1B448F6
:10312000406800F4803098B9B148006800F00200AF
:1031300020B12069012801D0012061E7AC48006876
:1031400020F0F800616940EAC100A949086033E055
:103150002069E8B10120A7490860FFF7A3FC0546F4
:1031600006E0FFF79FFC401B022801D9032047E738
:103170009F48006800F002000028F2D09C480068D8
:1031800020F0F800616940EAC1009949086013E045
:10319000002098490860FFF785FC054606E0FFF728
:1031A00081FC401B022801D9032029E790480068D0
:1031B00000F002000028F2D1207800F00800082872
:1031C0002DD1A069B8B101208B490860FFF76AFCD6
:1031D000054606E0FFF766FC401B022801D90320E4
:1031E0000EE78348406A00F002000028F2D0012078
:1031F00001F056FA13E000207F490860FFF752FC07
:10320000054606E0FFF74EFC401B022801D90320CB
:10321000F6E67748406A00F002000028F2D12078F4
:1032200000F00400042873D100277148C06900F041
:10323000805070B900BF6E48C06940F080506C4942
:10324000C8610846C06900F08050009000BF00BF10
:1032500001276A48006800F48070B0B967480068C8
:1032600040F4807065490860FFF71CFC054606E0E5
:10327000FFF718FC401B642801D90320C0E65F4813
:10328000006800F480700028F2D000BFE0680128D8
:1032900006D15748006A40F001005549086227E00E
:1032A000E06858B95248006A20F0010050490862AD
:1032B0000846006A20F00400086219E0E06805286A
:1032C0000BD14B48006A40F00400494908620846A7
:1032D000006A40F0010008620AE04548006A20F0F8
:1032E0000100434908620846006A20F004000862B1
:1032F00000BFE068A0B1FFF7D5FB054609E0FFF786
:10330000D1FB401B41F28831884202D9032077E685
:1033100022E03748006A00F002000028EFD012E0F7
:10332000FFF7C0FB054608E0FFF7BCFB401B41F27E
:103330008831884201D9032062E62D48006A00F0F6
:1033400002000028F0D1012F05D12948C06920F0E2
:1033500080502749C86100BFE069C8B3244840686D
:1033600000F00C00082860D0E069022848D1002055
:1033700020490866FFF796FB054606E0FFF792FB3B
:10338000401B022801D903203AE61948006800F0E2
:1033900000700028F2D1206AB0F5803F07D11448B0
:1033A000406820F40030A168084311494860D4E91E
:1033B000080108430E49496821F4741108430C4977
:1033C000486001200B490866FFF76CFB054607E0E3
:1033D0003DE0FFF767FB401B022801D903200FE601
:1033E0000348006800F000700028F2D02FE00000D1
:1033F000001002400000424280044242007000403F
:10340000002014490866FFF74DFB054606E0FFF76C
:1034100049FB401B022801D90320F1E50E48006852
:1034200000F000700028F2D111E0E069012800D11D
:10343000E6E50948466806F48031206A814204D1F5
:1034400006F47011606A814201D00120D8E50020A5
:10345000D6E50000000042420010024070B504466C
:103460000E4615461CB1A069B0F5807F01D1012040
:1034700070BD94F8410028B9002084F8400020462F
:1034800000F01FF804F108012068FEF7F3FC314654
:10349000A2682068FEF72AFD2946236BD4E90102C1
:1034A000FEF7C6FCA168206850F8210040F001003A
:1034B000A268216841F82200012084F84100002020
:1034C000D6E710B50446FFF7EBF810BD70B504461B
:1034D0002546681EB0F1807F01D301200FE0681EF1
:1034E0004FF0E02148610F214FF0FF3003F088FCDE
:1034F00000204FF0E021886107200861002070BDA6
:1035000030B502460B4600BF92F83C00012801D1BD
:10351000022030BD012082F83C0000BF022082F86A
:103520003D00106844681068816824F070041868D1
:10353000044310684460144D1068A84213D0134D22
:103540001068A8420FD01068B0F1804F0BD0104D1A
:103550001068A84207D00F4D1068A84203D00E4D46
:103560001068A84205D121F0800158680143106815
:103570008160012082F83D0000BF002082F83C00FD
:1035800000BF00BFC5E70000002C0140003401402F
:103590000004004000080040000C004010B5044644
:1035A0000CB9012010BD94F83D0028B9002084F822
:1035B0003C00204600F026F8022084F83D00211D42
:1035C000206803F00BFB012084F8460000BF84F85C
:1035D0003E0001213F200155402001554120015569
:1035E00000BF00BF012084F8420043200155442061
:1035F00001554520015500BF012084F83D00002001
:10360000D0E7000038B504460D492068884215D13E
:1036100000BF0C48C06940F002000A49C861084672
:10362000C06900F00200009000BF00BF02221146F6
:103630001D20FFF7C1FA1D20FFF7AEFA38BD0000CC
:103640000004004000100240014691F83D000128AE
:1036500001D001207047022081F83D00164B086818
:10366000984213D0154B086898420FD00868B0F103
:10367000804F0BD0124B0868984207D0114B086856
:10368000984203D0104B086898420CD108688068B3
:1036900000F00702062A0CD00868006840F001001C
:1036A0000B68186005E00868006840F001000B68CE
:1036B00018600020CEE70000002C014000340140DB
:1036C0000004004000080040000C00402DE9F041DB
:1036D00004460D4600BF94F83C00012802D10220A8
:1036E000BDE8F081012084F83C0000BF022084F88E
:1036F0003D002068866826F0770626F47F4620681D
:1037000086602868502833D00CDC202850D004DC98
:1037100000284BD0102851D149E0302849D040280A
:103720004CD139E060282DD0702807D0B0F5805FEB
:1037300003D0B0F5005F41D10DE040E0D5E90213C0
:103740006A68206803F098FA2068866846F0770671
:103750002068866033E0D5E902136A68206803F0C8
:103760008BFA2068806840F480402168886026E0F9
:10377000EA686968206803F093FA5021206803F032
:1037800086FA1CE0EA686968206803F09CFA602108
:10379000206803F07CFA12E0EA686968206803F0A8
:1037A0007FFA4021206803F072FA08E000BF00BFF2
:1037B00000BF2968206803F06AFA00E000BF00BF7C
:1037C000012084F83D0000BF002084F83C0000BFC9
:1037D00000BF85E710B504460CB9012010BDA069F3
:1037E00000B100E000BF94F83D0028B9002084F843
:1037F0003C00204600F028F8242084F83D00206892
:10380000C06820F400502168C860204603F070FAB8
:103810002068006920F490402168086120684069B0
:1038200020F02A00216848612068C06840F40050F8
:103830002168C86000202064202084F83D0084F8BE
:103840003E000020CAE7000010B586B00446002004
:1038500002900390049005901A49206888422ED166
:1038600000BF1948806940F48040174988610846C4
:10387000806900F48040019000BF00BF00BF08468F
:10388000806940F0040088610846806900F0040007
:10389000019000BF00BF4815029002200390032052
:1038A000059002A90948FEF745FF4FF48060029099
:1038B00000200390049002A90448FEF73BFF06B0E5
:1038C00010BD000000380140001002400008014017
:1038D00000BFFEE770B50446002609480588408809
:1038E00045430021084600F061FB00F02FFD00BFBA
:1038F00002E004490C80761CAE42FAD370BD000091
:10390000BC1000200008006C10B5044655488471B6
:10391000002C51D1F020534908804FF4A07048800A
:103920000846808849F24131884205D04D48808858
:1039300045F21031884214D12C204A4908812A20AE
:1039400048812B2088810846808845F210318842C2
:1039500006D14FF4A070434908804FF4F0704880BE
:103960007BE04048808845F21051884210D14FF4E6
:1039700030503C4908814FF4285048814FF42C5076
:1039800088814FF4F07008804FF44870488064E0FC
:103990003448808841F6631188425ED12C20314939
:1039A00008812B2048812A2088814FF4F0700880FC
:1039B0004FF44870488050E04FF4A07029490880C7
:1039C000F02048800846808849F24131884205D07D
:1039D0002448808845F21031884207D12C202149A3
:1039E00008812A2048812B20888129E01D48808871
:1039F00045F21051884210D14FF4305019490881D6
:103A00004FF4285048814FF42C5088814FF448706F
:103A100008804FF4F070488012E01248808841F628
:103A2000631188420CD12C200E4908812A2048813C
:103A30002B2088814FF4487008804FF4F070488044
:103A40000848808845F21031884206D14FF4F07062
:103A5000044908804FF4A0704880002000F06CF901
:103A600010BD0000BC1000202DE9FF4F84B081463E
:103A70008A460020039002900698A0EB090507985B
:103A8000A0EB0A06CDF80490CDF800A0002D01DDD2
:103A9000012705E00DB9002702E04FF0FF376D4226
:103AA000002E02DD4FF0010806E016B94FF00008C5
:103AB00002E04FF0FF387642B54201DD2C4600E0CF
:103AC00034464FF0000B21E0009A91B2019A90B277
:103AD00000F022F8039828440390029830440290A2
:103AE0000398A04205DD0398001B03900198384419
:103AF00001900298A04205DD0298001B02900098F8
:103B0000404400900BF101001FFA80FB601C8345CC
:103B1000DADD08B0BDE8F08F30B504460D46294621
:103B2000204600F043FA00F011FC024800880249E8
:103B3000088030BD000000200008006C70B504460D
:103B40000D4616465A48808849F24131884205D0D0
:103B50005748808845F21031884214D15449488929
:103B600000F0E8FB201200F0D9FBE0B200F0D6FB39
:103B70004F49888900F0DEFB281200F0CFFBE8B245
:103B800000F0CCFB8CE04A48808845F21051884216
:103B900020D14749488900F0CDFB201200F0BEFB40
:103BA00043494989491C88B200F0C4FBE0B200F0E7
:103BB000B5FB3F49888900F0BDFB281200F0AEFB41
:103BC0003B498989491C88B200F0B4FBE8B200F097
:103BD000A5FB65E03648808841F66311884228D10C
:103BE0003348807920B932480088401E001B84B2D7
:103BF0002F49488900F09EFB201200F08FFBE0B2B5
:103C000000F08CFB201200F089FBE0B200F086FB94
:103C10002749888900F08EFB281200F07FFBE8B26C
:103C200000F07CFB281200F079FBE8B200F076FB94
:103C300036E01F48808846F6040188421DD11C48A2
:103C40008079012804D11A480088401E001B84B2E4
:103C50001749488900F06EFB201200F05FFBE0B2CC
:103C600000F05CFB1249888900F064FB281200F028
:103C700055FBE8B200F052FB12E00D4880790128B4
:103C800004D10B480088401E001B84B208494889B3
:103C9000214600F065FB06498889294600F060FB53
:103CA0000348008903490880891C0E8070BD00000C
:103CB000BC100020FE07006C10B50246012000E099
:103CC00050430B1EA1F10104E1B2F9D110BD000077
:103CD00008B5034800880090BDF8000008BD00004A
:103CE0000008006C2DE9F0470446BE2000F022FBDE
:103CF000052000F013FB2046FDF765FD07464FF059
:103D000066320C4BFDF775FC0546FDF782FD1FFA88
:103D100080F9484600F002FB012000F0FFFAFF2086
:103D200000F0FCFA002000F0F9FA002000F0F6FAAA
:103D3000BDE8F08766660440F0B50546002400271C
:103D400099488079012805D19748808841F6631108
:103D5000884208D194488079F0B99348808841F628
:103D60006311884218D1082D15D2DFE805F004064A
:103D7000080A0C0E101206250DE007250BE004259D
:103D800009E0052507E0012505E0002503E00325FE
:103D900001E0022500BF00BF8348808849F241311D
:103DA000884211D08048808845F2103188420BD07B
:103DB0007D48808845F21051884205D07A48808835
:103DC00041F6631188427DD1082D1CD2DFE805F051
:103DD0000406090C0F12151800BF14E044F080040B
:103DE00011E044F040040EE044F0C0040BE044F065
:103DF000200408E044F0600405E044F0A00402E080
:103E000044F0E00400BF00BF6748808845F21051CD
:103E1000884202D14FF4585700E036276248808824
:103E200045F2103188420DD05F48808845F210512C
:103E3000884207D05C48808841F66311884201D0EF
:103E400044F008042146384600F08AFA5648808833
:103E500041F6631188421DD004F0200068B1524839
:103E6000008851494988884214DA4F4806884088BA
:103E70004D490880084646800CE04B4800884A4976
:103E80004988884206DD48480688408846490880B7
:103E9000084646804448808845F21051884254D1F3
:103EA0004149488900F046FA002000F037FA3E49BF
:103EB0004989491C88B200F03DFA002000F02EFA32
:103EC000394900E06FE04989891C88B200F032FA74
:103ED00035490988491EC1F30F2000F01FFA324905
:103EE0004989C91C88B200F025FA2F490978491E72
:103EF000C8B200F013FA2C49888900F01BFA0020A0
:103F000000F00CFA28498989491C88B200F012FA9D
:103F1000002000F003FA24498989891C88B200F046
:103F200009FA21494988491EC1F30F2000F0F6F92A
:103F30001D498989C91C88B200F0FCF91A498978A1
:103F4000491EC8B200F0EAF92DE01749488900F08F
:103F5000F1F9002000F0E2F9002000F0DFF9124949
:103F60000988491EC1F30F2000F0D8F90E490978DD
:103F7000491EC8B200F0D2F90B49888900F0DAF97D
:103F8000002000F0CBF9002000F0C8F9064949886C
:103F9000491EC1F30F2000F0C1F903498978491E79
:103FA000C8B200F0BBF9F0BDBC10002010B502464D
:103FB0000C464B48808849F24131884205D0484838
:103FC000808845F21031884214D14549488900F073
:103FD000B1F9101200F0A2F9D0B200F09FF94049F7
:103FE000888900F0A7F9201200F098F9E0B200F0FB
:103FF00095F973E03A48808841F66311884247D1C9
:1040000037488079A8B936480088401E801A82B2A5
:104010003349488900F08EF9002000F07FF9002034
:1040200000F07CF9101200F079F9D0B200F076F9C6
:1040300016E02B49488900F07DF9101200F06EF966
:10404000D0B200F06BF926490988491EC1F30F2050
:1040500000F064F922490978491EC8B200F05EF9FF
:104060001F49888900F066F9201200F057F9E0B284
:1040700000F054F91A494988491EC1F30F2000F095
:104080004DF917498978491EC8B200F047F925E073
:104090001348808845F2105188421FD11049488941
:1040A00000F048F9101200F039F90D494989491C0E
:1040B00088B200F03FF9D0B200F030F908498889A1
:1040C00000F038F9201200F029F905498989491CC6
:1040D00088B200F02FF9E0B200F020F910BD000026
:1040E000BC1000202DE9F84F80460F4616461C46AE
:1040F000BB462046E31704EB5373DB1021464FEA1F
:10410000E47C04EB5C7C4FEAEC0CA4EBCC0CBCF143
:10411000000F02D04FF0010C01E04FF0000C63449F
:10412000224604EBD27C4FEA6C0C03FB0CF3DBB2AF
:104130000093A6F12000C6B200255EE00C2C07D14A
:1041400006EB46002F4901EB800010F805901BE0BC
:10415000102C05D12C4800EB061010F8059013E048
:10416000182C07D106EBC600284901EB800010F897
:10417000059009E0202C05D1254800EBC61010F869
:10418000059001E0BDE8F88F4FF0000A2FE009F03C
:10419000800030B11F48394602684046FFF7CEFC28
:1041A00007E00A9828B91C48394602684046FFF7DC
:1041B000C5FC4FEA49604FEA1069781C87B217487E
:1041C0004088B84200DCDDE7A7EB0B00A0420AD133
:1041D0005F4608F101001FFA80F81048008840454A
:1041E00000DCCFE706E00AF1010000F0FF0ABAF1B7
:1041F000080FCCDB00BF681CC5B2009885429DDB70
:1042000000BFBFE78E74000802790008F27E000844
:104210004E8C00080000002004000020BC1000208C
:104220002DE9FF4F81B0074691461E460E9D4FF087
:10423000000A002439E0301B401EC1B20A20FFF7FB
:104240003BFDB9FBF0F00A21B0FBF1F201FB1208D3
:10425000BAF1000F16D1701EA04213DDB8F1000FA5
:104260000ED10020AB4605EBDB71491001FB047158
:10427000009088B22B4620220299FFF733FF12E00C
:104280004FF0010A0020AB4605EBDB71491001FB42
:104290000471009088B208F13001CAB22B4602992D
:1042A000FFF720FF00BF601CC4B2B442C3DB05B0FF
:1042B000BDE8F08F2DE9F84704460D469046994633
:1042C000DDE9096704F0FF0A08EB04001FFA80F833
:1042D00009EB05001FFA80F916E0444502DB54465D
:1042E000A81985B24D4500DB14E0002000903A7813
:1042F000334629462046FFF7F5FE304606EBD071DF
:1043000004EB61018CB27F1C38787E2802DC38789F
:104310002028E2DA00BFBDE8F887000001B5BDF84B
:1043200000000090BDF800000149088008BD0000B1
:104330000008006C01B5BDF800000090BDF8000059
:104340000149088008BD0000FE07006C0248008992
:104350000249088070470000BC100020FE07006C76
:10436000024A1080921C118070470000FE07006C0A
:104370000EB500200090019002901148114908608C
:10438000002110488160017301754FF46021C16103
:1043900000200C49486001210A480161FDF7ECFF4B
:1043A00008B1FDF741FD012000900190002002902E
:1043B00069460448FDF72CFF08B1FDF735FD0EBD39
:1043C00000240140CC60002000B58FB01C2108A85B
:1043D000FCF7D3FF1C2101A8FCF7CFFF4FF02040D2
:1043E000234908602348486006208860002120484F
:1043F000C16001611021416100218161C1610162DF
:1044000041624FF4805181620021C1624FF48041CA
:104410000163002141638163062008900F20099009
:104420001A200A9000200B9010200C9011200D9063
:1044300000200E90032001900F2002900620039090
:104440000020049010200590112006900020079075
:1044500001AA08A90648FFF701F808B1FDF7E4FC36
:104460000548C06940F480600349C8610FB000BDD1
:10447000FC600020040100A00000014000B585B0F0
:104480000020019002900390049000BF5248806980
:1044900040F04000504988610846806900F04000C3
:1044A000009000BF00BF00BF0846806940F01000C8
:1044B00088610846806900F01000009000BF00BFCE
:1044C00000BF0846806940F00400886108468069A2
:1044D00000F00400009000BF00BF00BF08468069E4
:1044E00040F0080088610846806900F008000090EC
:1044F00000BF00BF00BF0846806940F4807088613B
:104500000846806900F48070009000BF00BF00BFC3
:104510000846806940F0200088610846806900F004
:104520002000009000BF00BF012220212B48FEF791
:10453000B3FA002201212A48FEF7AEFA0122202117
:104540002748FEF7A9FA182001902648029001207A
:10455000039001A92148FEF7EDF8202001900120E9
:104560000290002003900220049001A91B48FEF74E
:10457000E1F801200190002002900220039001A99F
:104580001948FEF7D7F8012001900290002003900F
:104590000320049001A91248FEF7CCF820200190D6
:1045A00001200290002003900220049001A90C48F1
:1045B000FEF7C0F8012202210920FEF7FDFA0920CA
:1045C000FEF7EAFA002202210A20FEF7F5FA0A2095
:1045D000FEF7E2FA05B000BD0010024000180140ED
:1045E000000C0140000021100008014000B587B018
:1045F00000200390049005900690019002901548C9
:10460000154908604720486000211348816040F246
:10461000E731C1600021016180218161FEF7BEFFA9
:1046200008B1FDF701FC4FF48050039003A90A483C
:10463000FFF74CF808B1FDF7F7FB0020019002905E
:1046400001A90548FEF75CFF08B1FDF7EDFB07B0D7
:1046500000BD0000000400404461002010B50B487C
:104660000B4908604FF4E130486000210848816040
:10467000C16001610C21416100218161C161FFF7CD
:10468000A9F808B1FDF7D0FB10BD000000380140CB
:104690008C61002000BFFEE700BFFEE7704700000E
:1046A00008B508490968C9084FF47A72B1FBF2F1FC
:1046B0004143009100BF00BF00994A1E00920029AB
:1046C000F9D108BD6C100020704710B5FEF7F0F965
:1046D00010BD00B595B028210BA8FCF74EFE1421A3
:1046E00006A8FCF74AFE18216846FCF746FE0120A2
:1046F0000B9000040C9000200D9001200F900220E0
:104700001290C10313914FF4E01114910BA8FEF71E
:1047100073FC08B1FDF788FB0F200690022007907C
:10472000002008904FF48060099000200A90022138
:1047300006A8FEF72BFB08B1FDF776FB02200090E0
:10474000800302906846FEF789FA08B1FDF76CFB1A
:1047500015B000BD7047000010B53220FDF78CFF8A
:10476000D320FFF7E7FDFFF7B3FAFE498880FFF794
:10477000AFFAFC498880FFF7ABFAFA49888008460F
:1047800080884FF6FF7101EA0020F6498880FFF724
:104790009FFAF44989880843F2498880084680884E
:1047A00049F24131884278D0D420FFF7C3FDFFF7AA
:1047B0008FFAEC498880FFF78BFAEA498880FFF787
:1047C00087FAE8498880084680884FF6FF7101EA39
:1047D0000020E4498880FFF77BFAE2498988084392
:1047E000E04988800846808845F21031884254D0DC
:1047F0004FF45A40FFF79EFDFFF76AFAD9498880C7
:104800004FF45B40FFF796FDFFF762FAD5498880C9
:10481000084680884FF6FF7101EA0020D149888060
:104820004FF45C40FFF786FDFFF752FACD498988C7
:104830000843CC49888008468088B0F5004F02D1F3
:1048400045F210508880C748808845F21051884250
:1048500023D0A120FFF76EFDFFF73AFAC149888007
:10486000FFF736FABF498880084680884FF6FF7107
:1048700001EA0020BB498880FFF72AFAB9498988F4
:104880000843B84988800846808845F261718842AB
:1048900003D141F66310B3498880B248808849F259
:1048A000413188427ED1CF20FFF744FD0020FFF741
:1048B00035FDC120FFF732FD3020FFF72FFDED2041
:1048C000FFF738FD6420FFF729FD0320FFF726FDE1
:1048D0001220FFF723FD8120FFF720FDE820FFF7DE
:1048E00029FD8520FFF71AFD1020FFF717FD7A201C
:1048F000FFF714FDCB20FFF71DFD3920FFF70EFD5C
:104900002C20FFF70BFD0020FFF708FD3420FFF7F8
:1049100005FD0220FFF702FDF720FFF70BFD202029
:10492000FFF7FCFCEA20FFF705FD0020FFF7F6FC8F
:104930000020FFF7F3FCC020FFF7FCFC1B20FFF773
:10494000EDFCC120FFF7F6FC0120FFF7E7FCC520D6
:10495000FFF7F0FC3020FFF7E1FC3020FFF7DEFC32
:10496000C720FFF7E7FCB720FFF7D8FC3620FFF79A
:10497000E1FC4820FFF7D2FC3A20FFF7DBFC552092
:10498000FFF7CCFCB120FFF7D5FC0020FFF7C6FCF9
:104990001A20FFF7C3FCB620FFF7CCFC0A20FFF774
:1049A000BDFC00E097E0A220FFF7B8FCF220FFF783
:1049B000C1FC0020FFF7B2FC2620FFF7BBFC012062
:1049C000FFF7ACFCE020FFF7B5FC0F20FFF7A6FCDB
:1049D0002A20FFF7A3FC2820FFF7A0FC0820FFF700
:1049E0009DFC0E20FFF79AFC0820FFF797FC54204F
:1049F000FFF794FCA920FFF791FC4320FFF78EFC02
:104A00000A20FFF78BFC0F20FFF788FC0020FFF740
:104A100085FC0020FFF782FC0020FFF77FFC0020D0
:104A2000FFF77CFCE120FFF785FC0020FFF776FC18
:104A30001520FFF773FC1720FFF770FC0720FFF726
:104A40006DFC1120FFF76AFC0620FFF767FC2B20A6
:104A5000FFF764FC5620FFF761FC3C20FFF75EFC8B
:104A60000520FFF75BFC1020FFF758FC0F20FFF735
:104A700055FC3F20FFF752FC3F20FFF74FFC0F2073
:104A8000FFF74CFC2B20FFF755FC0020FFF746FCFE
:104A90000020FFF743FC0120FFF740FC3F20FFF719
:104AA0003DFC2A20FFF746FC0020FFF737FC0020E2
:104AB000FFF734FC0020FFF731FCEF20FFF72EFC5E
:104AC0001120FFF737FC7820FDF7D6FD2920FFF7EE
:104AD00031FC01F0CBBF2348808845F21031884279
:104AE00040F07C87ED20FFF725FC0120FFF716FC46
:104AF000FE20FFF713FCEE20FFF71CFCDE20FFF783
:104B00000DFC2120FFF70AFCF120FFF713FC012028
:104B1000FFF704FCDF20FFF70DFC1020FFF7FEFB82
:104B2000C420FFF707FC8F20FFF7F8FBC620FFF734
:104B300001FC0020FFF7F2FBE220FFF7EFFBE22091
:104B4000FFF7ECFBE220FFF7E9FBBF20FFF7F2FBEA
:104B5000AA20FFF7E3FBB020FFF7ECFB0D20FFF7E7
:104B6000DDFB01E0BC1000200020FFF7D7FB0D208B
:104B7000FFF7D4FB0020FFF7D1FB1120FFF7CEFB9E
:104B80000020FFF7CBFB1920FFF7C8FB0020FFF741
:104B9000C5FB2120FFF7C2FB0020FFF7BFFB2D2044
:104BA000FFF7BCFB0020FFF7B9FB3D20FFF7B6FB8A
:104BB0000020FFF7B3FB5D20FFF7B0FB0020FFF7FD
:104BC000ADFB5D20FFF7AAFB0020FFF7A7FBB1209C
:104BD000FFF7B0FB8020FFF7A1FB0020FFF79EFB53
:104BE0008B20FFF79BFB0020FFF798FB9620FFF739
:104BF00095FB0020FFF792FBB220FFF79BFB002004
:104C0000FFF78CFB0020FFF789FB0220FFF786FBF4
:104C10000020FFF783FB0320FFF780FB0020FFF756
:104C20007DFBB320FFF786FB0020FFF777FB00201A
:104C3000FFF774FB0020FFF771FB0020FFF76EFB0E
:104C40000020FFF76BFB0020FFF768FB0020FFF759
:104C500065FB0020FFF762FB0020FFF75FFB0020F1
:104C6000FFF75CFB0020FFF759FB0020FFF756FB26
:104C70000020FFF753FB0020FFF750FB0020FFF759
:104C80004DFB0020FFF74AFB0020FFF747FB002009
:104C9000FFF744FB0020FFF741FB0020FFF73EFB3E
:104CA0000020FFF73BFB0020FFF738FB0020FFF759
:104CB00035FB0020FFF732FBB420FFF73BFB8B20D6
:104CC000FFF72CFB0020FFF729FB9620FFF726FBC0
:104CD0000020FFF723FBA120FFF720FB0020FFF7B8
:104CE0001DFBB520FFF726FB0220FFF717FB002076
:104CF000FFF714FB0320FFF711FB0020FFF70EFB6B
:104D00000420FFF70BFB0020FFF708FBB620FFF79E
:104D100011FB0020FFF702FB0020FFF7FFFAB7208E
:104D2000FFF708FB0020FFF7F9FA0020FFF7F6FA7B
:104D30003F20FFF7F3FA0020FFF7F0FA5E20FFF7BD
:104D4000EDFA0020FFF7EAFA6420FFF7E7FA002007
:104D5000FFF7E4FA8C20FFF7E1FA0020FFF7DEFA14
:104D6000AC20FFF7DBFA0020FFF7D8FADC20FFF7D2
:104D7000D5FA0020FFF7D2FA7020FFF7CFFA002013
:104D8000FFF7CCFA9020FFF7C9FA0020FFF7C6FA28
:104D9000EB20FFF7C3FA0020FFF7C0FADC20FFF793
:104DA000BDFA0020FFF7BAFAB820FFF7C3FA0020D7
:104DB000FFF7B4FA0020FFF7B1FA0020FFF7AEFAD0
:104DC0000020FFF7ABFA0020FFF7A8FA0020FFF75A
:104DD000A5FA0020FFF7A2FA0020FFF79FFABA20F9
:104DE000FFF7A8FA2420FFF799FA0020FFF796FAB8
:104DF0000020FFF793FA0020FFF790FAC120FFF799
:104E000099FA2020FFF78AFA0020FFF787FA54204A
:104E1000FFF784FA0020FFF781FAFF20FFF77EFA00
:104E20000020FFF77BFAC220FFF784FA0A20FFF781
:104E300075FA0020FFF772FA0420FFF76FFA0020DE
:104E4000FFF76CFAC320FFF775FA3C20FFF766FA0C
:104E50000020FFF763FA3A20FFF760FA0020FFF71F
:104E60005DFA3920FFF75AFA0020FFF757FA37208A
:104E7000FFF754FA0020FFF751FA3C20FFF74EFAF3
:104E80000020FFF74BFA3620FFF748FA0020FFF723
:104E900045FA3220FFF742FA0020FFF73FFA2F20B1
:104EA000FFF73CFA0020FFF739FA2C20FFF736FA1B
:104EB0000020FFF733FA2920FFF730FA0020FFF730
:104EC0002DFA2620FFF72AFA0020FFF727FA2420E0
:104ED000FFF724FA0020FFF721FA2420FFF71EFA3B
:104EE0000020FFF71BFA2320FFF718FA0020FFF736
:104EF00015FA3C20FFF712FA0020FFF70FFA3620D0
:104F0000FFF70CFA0020FFF709FA3220FFF706FA44
:104F10000020FFF703FA2F20FFF700FA0020FFF729
:104F2000FDF92C20FFF7FAF90020FFF7F7F9292007
:104F3000FFF7F4F90020FFF7F1F92620FFF7EEF96B
:104F40000020FFF7EBF92420FFF7E8F90020FFF736
:104F5000E5F92420FFF7E2F90020FFF7DFF923202D
:104F6000FFF7DCF90020FFF7D9F9C420FFF7E2F9D9
:104F70006220FFF7D3F90020FFF7D0F90520FFF7F3
:104F8000CDF90020FFF7CAF98420FFF7C7F9002008
:104F9000FFF7C4F9F020FFF7C1F90020FFF7BEF9D1
:104FA0001820FFF7BBF90020FFF7B8F9A420FFF79E
:104FB000B5F90020FFF7B2F91820FFF7AFF900208C
:104FC000FFF7ACF95020FFF7A9F90020FFF7A6F989
:104FD0000C20FFF7A3F90020FFF7A0F91720FFF737
:104FE0009DF90020FFF79AF99520FFF797F9002027
:104FF000FFF794F9F320FFF791F90020FFF78EF9FE
:10500000E620FFF78BF90020FFF788F9C520FFF7AE
:1050100091F93220FFF782F90020FFF77FF9442051
:10502000FFF77CF90020FFF779F96520FFF776F9A3
:105030000020FFF773F97620FFF770F90020FFF7E3
:105040006DF98820FFF76AF90020FFF767F9C6209D
:10505000FFF770F92020FFF761F90020FFF75EF9F4
:105060001720FFF75BF90020FFF758F90120FFF741
:1050700055F90020FFF752F9C720FFF75BF9002030
:10508000FFF74CF90020FFF749F90020FFF746F938
:105090000020FFF743F9C820FFF74CF90020FFF785
:1050A0003DF90020FFF73AF90020FFF737F900201B
:1050B000FFF734F9C920FFF73DF90020FFF72EF97B
:1050C0000020FFF72BF90020FFF728F90020FFF759
:1050D00025F90020FFF722F90020FFF71FF9002033
:1050E000FFF71CF90020FFF719F90020FFF716F968
:1050F0000020FFF713F90020FFF710F90020FFF759
:105100000DF90020FFF70AF90020FFF707F900204A
:10511000FFF704F90020FFF701F9E020FFF70AF993
:105120001620FFF7FBF80020FFF7F8F81C20FFF728
:10513000F5F80020FFF7F2F82120FFF7EFF8002044
:10514000FFF7ECF83620FFF7E9F80020FFF7E6F864
:105150004620FFF7E3F80020FFF7E0F85220FFF7C2
:10516000DDF80020FFF7DAF86420FFF7D7F8002019
:10517000FFF7D4F87A20FFF7D1F80020FFF7CEF838
:105180008B20FFF7CBF80020FFF7C8F89920FFF736
:10519000C5F80020FFF7C2F8A820FFF7BFF80020ED
:1051A000FFF7BCF8B920FFF7B9F80020FFF7B6F811
:1051B000C420FFF7B3F80020FFF7B0F8CA20FFF7CC
:1051C000ADF80020FFF7AAF8D220FFF7A7F80020DB
:1051D000FFF7A4F8D920FFF7A1F80020FFF79EF809
:1051E000E020FFF79BF80020FFF798F8F320FFF787
:1051F00095F80020FFF792F8E120FFF79BF81620C2
:10520000FFF78CF80020FFF789F81C20FFF786F8DD
:105210000020FFF783F82220FFF780F80020FFF737
:105220007DF83620FFF77AF80020FFF777F8452061
:10523000FFF774F80020FFF771F85220FFF76EF8BF
:105240000020FFF76BF86420FFF768F80020FFF7F5
:1052500065F87A20FFF762F80020FFF75FF88B20EF
:10526000FFF75CF80020FFF759F89920FFF756F890
:105270000020FFF753F8A820FFF750F80020FFF7B1
:105280004DF8B920FFF74AF80020FFF747F8C4208F
:10529000FFF744F80020FFF741F8CA20FFF73EF877
:1052A0000020FFF73BF8D220FFF738F80020FFF787
:1052B00035F8D820FFF732F80020FFF72FF8E0206C
:1052C000FFF72CF80020FFF729F8F320FFF726F866
:1052D0000020FFF723F8E220FFF72CF80520FFF766
:1052E0001DF80020FFF71AF80B20FFF717F8002031
:1052F000FFF714F81B20FFF711F80020FFF70EF856
:105300003420FFF70BF80020FFF708F84420FFF7E0
:1053100005F80020FFF702F84F20FEF7FFFF0020FE
:10532000FEF7FCFF6120FEF7F9FF0020FEF7F6FF15
:105330007920FEF7F3FF0020FEF7F0FF8820FEF74C
:10534000EDFF0020FEF7EAFF9720FEF7E7FF0020C1
:10535000FEF7E4FFA620FEF7E1FF0020FEF7DEFFE8
:10536000B720FEF7DBFF0020FEF7D8FFC220FEF7D4
:10537000D5FF0020FEF7D2FFC720FEF7CFFF0020A9
:10538000FEF7CCFFD120FEF7C9FF0020FEF7C6FFD5
:10539000D620FEF7C3FF0020FEF7C0FFDD20FEF79A
:1053A000BDFF0020FEF7BAFFF320FEF7B7FF002095
:1053B000FEF7B4FFE320FEF7BDFF0520FEF7AEFFCA
:1053C0000020FEF7ABFF0A20FEF7A8FF0020FEF743
:1053D000A5FF1C20FEF7A2FF0020FEF79FFF332051
:1053E000FEF79CFF0020FEF799FF4420FEF796FF92
:1053F0000020FEF793FF5020FEF790FF0020FEF7FD
:105400008DFF6220FEF78AFF0020FEF787FF7820DD
:10541000FEF784FF0020FEF781FF8820FEF77EFF65
:105420000020FEF77BFF9720FEF778FF0020FEF7B5
:1054300075FFA620FEF772FF0020FEF76FFFB72072
:10544000FEF76CFF0020FEF769FFC220FEF766FF43
:105450000020FEF763FFC720FEF760FF0020FEF785
:105460005DFFD120FEF75AFF0020FEF757FFD52041
:10547000FEF754FF0020FEF751FFDD20FEF74EFF40
:105480000020FEF74BFFF320FEF748FF0020FEF759
:1054900045FFE420FEF74EFF0120FEF73FFF00200E
:1054A000FEF73CFF0120FEF739FF0020FEF736FF34
:1054B0000220FEF733FF0020FEF730FF2A20FEF720
:1054C0002DFF0020FEF72AFF3C20FEF727FF0020DB
:1054D000FEF724FF4B20FEF721FF0020FEF71EFF02
:1054E0005D20FEF71BFF0020FEF718FF7420FEF77B
:1054F00015FF0020FEF712FF8420FEF70FFF0020AB
:10550000FEF70CFF9320FEF709FF0020FEF706FFD1
:10551000A220FEF703FF0020FEF700FFB320FEF7F6
:10552000FDFE0020FEF7FAFEBE20FEF7F7FE00208B
:10553000FEF7F4FEC420FEF7F1FE0020FEF7EEFEBB
:10554000CD20FEF7EBFE0020FEF7E8FED320FEF7AD
:10555000E5FE0020FEF7E2FEDD20FEF7DFFE002084
:10556000FEF7DCFEF320FEF7D9FE0020FEF7D6FEA4
:10557000E520FEF7DFFE0020FEF7D0FE0020FEF75C
:10558000CDFE0020FEF7CAFE0020FEF7C7FE022077
:10559000FEF7C4FE0020FEF7C1FE2920FEF7BEFE86
:1055A0000020FEF7BBFE3C20FEF7B8FE0020FEF711
:1055B000B5FE4B20FEF7B2FE0020FEF7AFFE5D20E9
:1055C000FEF7ACFE0020FEF7A9FE7420FEF7A6FE53
:1055D0000020FEF7A3FE8420FEF7A0FE0020FEF7C9
:1055E0009DFE9320FEF79AFE0020FEF797FEA22074
:1055F000FEF794FE0020FEF791FEB320FEF78EFE2C
:105600000020FEF78BFEBE20FEF788FE0020FEF78E
:1056100085FEC420FEF782FE0020FEF77FFECD202F
:10562000FEF77CFE0020FEF779FED320FEF776FE23
:105630000020FEF773FEDC20FEF770FE0020FEF770
:105640006DFEF320FEF76AFE0020FEF767FEE620FF
:10565000FEF770FE1120FEF761FE0020FEF75EFEF1
:105660003420FEF75BFE0020FEF758FE5620FEF7C2
:1056700055FE0020FEF752FE7620FEF74FFE00207A
:10568000FEF74CFE7720FEF749FE0020FEF746FEAF
:105690006620FEF743FE0020FEF740FE8820FEF75E
:1056A0003DFE0020FEF73AFE9920FEF737FE00206F
:1056B000FEF734FEBB20FEF731FE0020FEF72EFE83
:1056C0009920FEF72BFE0020FEF728FE6620FEF74D
:1056D00025FE0020FEF722FE5520FEF71FFE0020CB
:1056E000FEF71CFE5520FEF719FE0020FEF716FE01
:1056F0004520FEF713FE0020FEF710FE4320FEF7C4
:105700000DFE0020FEF70AFE4420FEF707FE0020F3
:10571000FEF704FEE720FEF70DFE3220FEF7FEFD49
:105720000020FEF7FBFD5520FEF7F8FD0020FEF7F8
:10573000F5FD7620FEF7F2FD0020FEF7EFFD662076
:10574000FEF7ECFD0020FEF7E9FD6720FEF7E6FD21
:105750000020FEF7E3FD6720FEF7E0FD0020FEF7E6
:10576000DDFD8720FEF7DAFD0020FEF7D7FD99204A
:10577000FEF7D4FD0020FEF7D1FDBB20FEF7CEFDE5
:105780000020FEF7CBFD9920FEF7C8FD0020FEF7B4
:10579000C5FD7720FEF7C2FD0020FEF7BFFD4420C7
:1057A000FEF7BCFD0020FEF7B9FD5620FEF7B6FD62
:1057B0000020FEF7B3FD2320FEF7B0FD0020FEF72A
:1057C000ADFD3320FEF7AAFD0020FEF7A7FD452022
:1057D000FEF7A4FD0020FEF7A1FDE820FEF7AAFDDC
:1057E0000020FEF79BFD0020FEF798FD9920FEF7B4
:1057F00095FD0020FEF792FD8720FEF78FFD00202B
:10580000FEF78CFD8820FEF789FD0020FEF786FD5F
:105810007720FEF783FD0020FEF780FD6620FEF76F
:105820007DFD0020FEF77AFD8820FEF777FD002041
:10583000FEF774FDAA20FEF771FD0020FEF76EFD55
:10584000BB20FEF76BFD0020FEF768FD9920FEF7F8
:1058500065FD0020FEF762FD6620FEF75FFD00207B
:10586000FEF75CFD5520FEF759FD0020FEF756FDC2
:105870005520FEF753FD0020FEF750FD4420FEF7B3
:105880004DFD0020FEF74AFD4420FEF747FD0020B5
:10589000FEF744FD5520FEF741FD0020FEF73EFDDA
:1058A000E920FEF747FDAA20FEF738FD0020FEF7AD
:1058B00035FD0020FEF732FD0020FEF72FFD002011
:1058C000FEF738FDAA20FEF729FDCF20FEF732FDB6
:1058D0000020FEF723FD0020FEF720FD0020FEF74C
:1058E0001DFD0020FEF71AFD0020FEF717FD002029
:1058F000FEF714FD0020FEF711FD0020FEF70EFD5F
:105900000020FEF70BFD0020FEF708FD0020FEF74B
:1059100005FD0020FEF702FD0020FEF7FFFC002041
:10592000FEF7FCFC0020FEF7F9FC0020FEF7F6FC79
:105930000020FEF7F3FCF020FEF7FCFC0020FEF751
:10594000EDFC5020FEF7EAFC0020FEF7E7FC00200B
:10595000FEF7E4FC0020FEF7E1FCF320FEF7EAFC92
:105960000020FEF7DBFCF920FEF7E4FC0620FEF742
:10597000D5FC1020FEF7D2FC2920FEF7CFFC00203A
:10598000FEF7CCFC3A20FEF7D5FC5520FEF7C6FC0E
:105990001120FEF7CFFC6420FCF76EFE2920FEF7F5
:1059A000C9FC3520FEF7C6FC0020FEF7B7FC5120ED
:1059B000FEF7C0FCFF20FEF7B1FC5320FEF7BAFC57
:1059C0002C20FEF7ABFC5520FEF7B4FC8220FEF73E
:1059D000A5FC2C20FEF7AEFC01F048B8FE488088FC
:1059E00045F2105188427DD155214FF47040FEF7A9
:1059F000B7FCAA214FF20100FEF7B2FC52214FF290
:105A00000200FEF7ADFC08214FF20300FEF7A8FCF0
:105A100001214FF20400FEF7A3FC0D214FF43040AA
:105A2000FEF79EFC0D214BF20100FEF799FC0D21C3
:105A30004BF20200FEF794FC34214FF43640FEF79F
:105A40008FFC34214BF20160FEF78AFC34214BF2CB
:105A50000260FEF785FC0D214FF43140FEF780FC1B
:105A60000D214BF20110FEF77BFC0D214BF20210D1
:105A7000FEF776FC34214FF43740FEF771FC3421F9
:105A80004BF20170FEF76CFC34214BF20270FEF712
:105A900067FC00214FF43240FEF762FC00214BF21C
:105AA0000120FEF75DFC00214BF20220FEF758FCBE
:105AB00024214FF43840FEF753FC24214BF601001B
:105AC000FEF74EFC24214BF60200FEF749FC0121B3
:105AD0004FF43F40FEF744FC0F214FF43340FEF7F4
