:020000040800F2
:10000000482C0020490100080920000801200008B0
:1000100005200008A11B000843280008000000007C
:10002000000000000000000000000000A9210008FE
:10003000D31D00080000000091200008BD22000828
:100040006301000863010008630100086301000800
:1000500063010008630100086301000863010008F0
:10006000630100086301000863010008A51B000884
:1000700063010008630100086301000863010008D0
:1000800063010008630100086301000863010008C0
:1000900063010008630100086301000863010008B0
:1000A00063010008630100086301000863010008A0
:1000B0006301000863010008630100086301000890
:1000C0006301000863010008630100086301000880
:1000D000630100088125000863010008630100082E
:1000E0006301000863010008630100086301000860
:1000F0006301000863010008630100086301000850
:10010000630100086301000863010008630100083F
:10011000630100086301000863010008630100082F
:10012000630100086301000863010008630100081F
:10013000DFF810D001F0A6FB00480047592A00085C
:10014000AFF30080482C002006488047064800474F
:10015000FEE7FEE7FEE7FEE7FEE7FEE7FEE7FEE777
:10016000FEE7FEE7FD220008310100082DE9F04F0F
:100170004FF0000C4FF0000301EB9C5EBEF9025003
:10018000BEF900400EF5806EBEF90290BEF9008007
:100190000EF5806EBEF90270BEF900600EF5806E3D
:1001A000BEF902B0BEF900A00EF5806ED044D9446D
:1001B000A8EB4A0AA9EB4B0B4FEAA4044FEAA505AA
:1001C00004EBA60405EBA705A4EB6606A5EB670701
:1001D00004EBA80405EBA905A4EB6808A5EB6909E5
:1001E00006EBAB06A7EBAA07A6EB6B0B07EB6A0ABD
:1001F000458020F8044B478020F8046BA0F802905B
:1002000020F8048BA0F802A020F804BB03F101033E
:1002100093FAA3FCB3F5807FAED1A0EB82014FF03F
:10022000100312090FF2341000F1000006B403EBC2
:10023000430C6144A2F5803202EB8332B1F90250E3
:10024000B1F90040A1EB0301B0F902B0B0F900A090
:1002500000F10400A5EB040E0EFB0BFC0AEB4B0EA9
:1002600005FB0ACB04FB0ECAB1F90250B1F90040FC
:10027000A1EB0301B0F90290B0F9008000F1040095
:10028000A5EB040E0EFB09FC08EB490E05FB08C9A3
:1002900004FB0EC8B1F90250B1F90040A1EB030113
:1002A000B0F90270B0F9006000F10400A5EB040E93
:1002B0000EFB07FC06EB470E05FB06C704FB0EC64C
:1002C000B1F90250B1F9004001F10001D044D94424
:1002D000A8EB4A0AA9EB4B0B4FEAA4044FEAA50589
:1002E00004EB264405EB2745A4EBE636A5EBE73700
:1002F00004EB284405EB2945A4EBE838A5EBE939E4
:1003000006EB2B46A7EB2A47A6EBEB3B07EBEA3ABB
:100310004D800C8019444F800E801944A1F8029042
:10032000A1F800801944A1F802A021F804BBB2F59D
:10033000803283DA03EB430C6144A2F101025FEAED
:10034000024E18BFA0EB0C007FF476AF06BC4FEA5C
:10035000830392087FF46AAFBDE8F08F004000008D
:1003600000400000004000005DDD213BA3227E181C
:100370000000412D7EA5412D0000412D00C0004010
:100380005DDD82E75DDD213B7EA5412D0040000063
:100390000040000000400000AA2A94126B39460673
:1003A00049327C0CA8118E2349327C0CA3227E1882
:1003B00021F77931AA2A9412A8118E235DDD213B01
:1003C000A3227E180000412D95C6B13F461A2B1E70
:1003D00058EE3735BEB4C53EA8118E235DDD213BF6
:1003E00063A97138DF089A28B7CDC53E7EA5412D97
:1003F0000000412D00C0004063A92B1E21F7793178
:10040000BEB4C53EBEB47C0C58EE373561AC213B62
:1004100095C6BAF9BAE571383BA737355DDD82E795
:100420005DDD213B7EA5412D21F766D756D53F3DA9
:100430003BA78E23A811C9CAB7CDC53E61AC7E18B3
:10044000AA2AC1C295C6B13FBEB47C0C00400000D0
:1004500000400000004000001E3BB504693E9201D0
:10046000C83C2403EB356409C83C24036B394606B9
:100470006C30060E1E3BB504EB356409AA2A9412B3
:100480006B39460649327C0CAE240917AF37D607C4
:10049000882E8D0F7E1E5D1BEB356409AA2A9412EF
:1004A00024188C1F1E34F10AB3269015A8118E2330
:1004B00049327C0CA3227E18140B60276C30060E88
:1004C0007E1E5D1B7104FB2A882E8D0F461A2B1E83
:1004D000C7FD5A2E9D2C1211FE15E72021F7793108
:1004E000AA2A9412A8118E2387F05334B228131429
:1004F000480D202602EAE536B3269015DF089A2833
:100500009CE32B39AE2409177104FB2A5DDD213BE6
:10051000A3227E180000412D4ED7C53C9320EF1931
:100520008FFB6C2F78D1153E7E1E5D1B21F7793134
:10053000E2CB0F3F641CC61CB8F2683395C6B13FCE
:10054000461A2B1E58EE373597C1FB3F24188C1FD7
:1005500002EAE536F0BCEC3FFE15E720BAE571385B
:10056000A6B8853FD5133D2282E1DB39BEB4C53E36
:10057000A8118E235DDD213B40B1AF3D790FDA2418
:100580004DD9423C2EAE423C480D202656D53F3D2B
:100590008EAB823A140B602778D1153E63A971386F
:1005A000DF089A28B7CDC53EB1A71236A906CE29D5
:1005B00015CA4F3F78A668337104FB2A95C6B13F30
:1005C000BCA576303902212C38C3EC3F7EA5412DE5
:1005D0000000412D00C00040BCA5CE29C7FD5A2E09
:1005E000F0BCEC3F78A620268FFB6C2F09BAB13FF8
:1005F000B1A73D2257F976304DB74F3F63A92B1E67
:1006000021F77931BEB4C53E8EABEF19ECF47432EC
:100610005EB2153E2EAE9015B8F268332DB03F3D58
:1006200040B1121187F053342EAE423CBEB47C0C64
:1006300058EE373561AC213BA6B8D6072BEC123605
:10064000C8AADB39F0BC240302EAE53663A9713895
:1006500097C16EFEDCE7B03734A8E53695C6BAF927
:10066000BAE571383BA73735E2CB0FF59CE32B3960
:1006700078A6683378D173F082E1DB39EDA5793162
:100680004ED7EDEB6DDF823A99A56C2F5DDD82E7E9
:100690005DDD213B7EA5412D9CE33AE352DBB63B79
:1006A00099A5FB2A02EA19DF4DD9423CEDA59A280B
:1006B00087F026DB4ED7C53C78A6202621F766D7E3
:1006C00056D53F3D3BA78E23C7FDDFD363D3AF3D58
:1006D00034A8E720710494D078D1153E63A92B1E6D
:1006E000140B8CCD94CF723EC8AA5D1BA811C9CA49
:1006F000B7CDC53E61AC7E18241850C8E2CB0F3F81
:100700002EAE90157E1E25C615CA4F3F2DB09412F1
:10071000AE244AC451C8853F5EB28D0FAA2AC1C219
:1007200095C6B13FBEB47C0C6C308EC1E2C4D43FE0
:100730004DB76409EB35B1C038C3EC3F09BA460682
:100740001E3B2CC097C1FB3FF0BC240300400000BF
:100750000040000000400000D03E2E019B3F65009D
:10076000363FC9009A3D5B02363FC900693E92019F
:100770005F3C8803D03E2E019A3D5B021E3BB504D0
:10078000693E9201C83C2403D939E205023EF701D3
:10079000F43BED038E380E079A3D5B021E3BB50419
:1007A0003F373908313DC002463A7E05EB356409D2
:1007B000C83C24036B39460692348E0A5F3C88039A
:1007C0008E380E073433B70BF43BED03AF37D60743
:1007D000D231DF0C8A3B5104CE369D086C30060EB8
:1007E0001E3BB504EB356409022F2B0FB23A1A05F4
:1007F00005352B0A932D5010463A7E051E34F10A1A
:10080000212C7311D939E2053433B70BAA2A94127B
:100810006B39460649327C0C3129B413FD38AA06DF
:100820005B31410DB327D2148E380E076C30060EA3
:100830003226EE151F3872077B2FCA0EAE24091719
:10084000AF37D607882E8D0F262321183F3739085A
:10085000932D50109C213719CE369D089D2C1211D6
:100860000E204B1A5D360109A42BD3117E1E5D1B91
:10087000EB356409AA2A9412EB1C6C1C7835C70965
:10088000AF295413561B791D05352B0AB2281314B2
:10089000BE19841E92348E0AB327D21424188C1FDA
:1008A0001E34F10AB326901588169120A933540BF3
:1008B000B1254C16EA1493213433B70BAE24091733
:1008C0004A139222BF321A0CA923C417A8118E23EF
:1008D00049327C0CA3227E1805108824D231DF0C0B
:1008E0009C213719610E7E255B31410D9320EF1954
:1008F000BB0C7126E430A40D891FA71A140B6027C6
:100900006C30060E7E1E5D1B6D094C28F42F680EA0
:10091000721D121CC40735297B2FCA0E641CC61C0D
:100920001B061A2A022F2B0F561B791D7104FB2A56
:10093000882E8D0F461A2B1EC702D82B0E2EEE0FB7
:100940003519DC1E1C01B22C932D501024188C1F5D
:1009500072FF882D182DB11011173A20C7FD5A2E9D
:100960009D2C1211FE15E7201DFC282F212C731140
:10097000EA14932173FAF22FA42BD311D5133D223D
:10098000CAF8B830282B3412BF12E72221F7793188
:10099000AA2A9412A8118E2379F536322D2AF41240
:1009A00091103524D2F3EF32AF295413790FDA24A2
:1009B0002CF2A3333129B413610E7E2587F0533412
:1009C000B2281314480D2026E3EEFF3433287314A5
:1009D0002E0CC12641EDA535B327D214140B602788
:1009E000A1EB483633273115FA09FE2702EAE5362E
:1009F000B3269015DF089A2865E87E373226EE1573
:100A0000C4073529CBE61238B1254C16A906CE29E4
:100A100032E5A1382F25AB168D05652A9CE32B39CD
:100A2000AE2409177104FB2A08E2B0392B2466179B
:100A300055038F2B77E0303AA923C4173902212CB4
:100A4000E9DEAB3A262321181C01B22C5DDD213BE7
:100A5000A3227E180000412DD5DB923B1F22DB181C
:100A6000E4FECF2D4FDAFD3B9C213719C7FD5A2EEE
:100A7000CDD8643C17219319ABFCE42E4ED7C53C6E
:100A80009320EF198FFB6C2FD3D5213D0E204B1AED
:100A900073FAF22F5CD4783D891FA71A57F9763084
:100AA000E8D2C93D041F021B3CF8F93078D1153E4D
:100AB0007E1E5D1B21F779310CD05C3EF81DB81B02
:100AC00006F6F831A5CE9D3E721D121CECF4743270
:100AD00041CDD83EEB1C6C1CD2F3EF32E2CB0F3F82
:100AE000641CC61CB8F2683388CA403FDD1B201D59
:100AF0009FF1DF3332C96B3F561B791D87F05334AA
:100B0000E1C7913FCE1AD31D6FEFC63495C6B13FF2
:100B1000461A2B1E58EE37354EC5CC3FBE19841EE3
:100B200041EDA5350CC4E13F3519DC1E2BEC123626
:100B3000CFC2F13FAD18341F16EB7D3697C1FB3F96
:100B400024188C1F02EAE53665C000409B17E31F9E
:100B5000EFE84B3738BFFF3F11173A20DCE7B037DB
:100B600011BEF83F88169120CBE61238F0BCEC3F5E
:100B7000FE15E720BAE57138D4BBDB3F74153D2183
:100B8000AAE4CF38BFBAC43FEA1493219CE32B39BF
:100B9000AFB9A73F5F14E8218EE28439A6B8853F3C
:100BA000D5133D2282E1DB39A2B75D3F4A13922281
:100BB00077E0303AA5B6303FBF12E7226DDF823AC8
:100BC000AFB5FD3E34123B2364DED33ABEB4C53E1E
:100BD000A8118E235DDD213BD5B3883E1D11E22394
:100BE00057DC6D3BF2B2453E9110352452DBB63BEB
:100BF00015B2FC3D051088244FDAFD3B40B1AF3DF6
:100C0000790FDA244DD9423C71B05B3DED0E2C25B5
:100C10004DD8853CA9AF033D610E7E254ED7C53C1E
:100C2000E8AEA53CD40DCF2551D6033D2EAE423CB7
:100C3000480D202656D53F3D7BADDA3BBB0C7126D7
:100C40005CD4783DD0AC6D3B2E0CC12663D3AF3D58
:100C50002BACFA3AA10B11276DD2E33D8EAB823A51
:100C6000140B602778D1153EF8AA063A870AAF27F9
:100C700085D0453E6AAA8439FA09FE2794CF723E90
:100C8000E3A9FD386D094C28A5CE9D3E63A97138B6
:100C9000DF089A28B7CDC53EEBA8E1375208E72810
:100CA000CCCCEB3E7BA84B37C4073529E2CB0F3FBA
:100CB00012A8B13636078129FBCA303FB1A71236D8
:100CC000A906CE2915CA4F3F57A76E351B061A2A0B
:100CD00032C96B3F05A7C6348D05652A51C8853FCB
:100CE000BBA61934FF04B02A72C79C3F78A66833AC
:100CF0007104FB2A95C6B13F3EA6B232E303452BF1
:100D0000BAC5C43F0BA6F83155038F2BE2C4D43FBC
:100D1000E0A53931C702D82B0CC4E13FBCA5763021
:100D20003902212C38C3EC3FA1A5AF2FAA016A2CB0
:100D300066C2F53F8DA5E42E1C01B22C97C1FB3F86
:100D400081A5152E8E00FA2CCAC0FF3F7EA5412D2D
:100D50000000412D00C0004081A56A2C72FF882D43
:100D600038BFFF3F8DA58F2BE4FECF2D73BEFB3F19
:100D7000A1A5B02A56FE152EB0BDF53FBCA5CE29C3
:100D8000C7FD5A2EF0BCEC3FE0A5E72839FD9F2EA9
:100D900032BCE13F0BA6FE27ABFCE42E77BBD43F71
:100DA0003EA611271DFC282FBFBAC43F78A62026D7
:100DB0008FFB6C2F09BAB13FBBA62C2501FBAF2FCF
:100DC00056B99C3F05A7352473FAF22FA6B8853F84
:100DD00057A73B23E5F93430F8B76B3FB1A73D2265
:100DE00057F976304DB74F3F12A83D21CAF8B830B9
:100DF000A5B6303F7BA83A203CF8F93000B60F3F4B
:100E0000EBA8341FAEF739315EB5EB3E63A92B1E5C
:100E100021F77931BEB4C53EE3A9201D93F6B9315F
:100E200022B49D3E6AAA121C06F6F83188B3723EBF
:100E3000F8AA021B79F53632F2B2453E8EABEF19B5
:100E4000ECF474325EB2153E2BACDB185FF4B232B8
:100E5000CDB1E33DD0ACC417D2F3EF3240B1AF3DDA
:100E60007BADAB1645F32C33B5B0783D2EAE901567
:100E7000B8F268332DB03F3DE8AE73142CF2A333C3
:100E8000A9AF033DA9AF54139FF1DF3328AFC53C91
:100E900071B0341213F11934A9AE853C40B112116E
:100EA00087F053342EAE423C15B2EE0FFBEF8D347B
:100EB000B6ADFD3BF2B2CA0E6FEFC63441ADB63BE4
:100EC000D5B3A40DE3EEFF34D0AC6D3BBEB47C0CC7
:100ED00058EE373561AC213BAFB5540BCCED6E35D8
:100EE000F6ABD33AA5B62B0A41EDA5358EAB823AC7
:100EF000A2B70109B6ECDC3529AB303AA6B8D60763
:100F00002BEC1236C8AADB39AFB9AA06A1EB4836DA
:100F10006AAA8439BFBA7E0516EB7D360FAA2B3933
:100F2000D4BB51048CEAB136B7A9CF38F0BC240346
:100F300002EAE53663A9713811BEF70178E918377E
:100F400012A9123838BFC900EFE84B37C5A8B0372F
:100F500065C09BFF65E87E377BA84B3797C16EFE67
:100F6000DCE7B03734A8E536CFC240FD53E7E137C0
:100F7000F1A77D360CC413FCCBE61238B1A71236AC
:100F80004EC5E6FA42E6423874A7A53595C6BAF9C9
:100F9000BAE571383BA73735E1C78EF832E5A1389D
:100FA00005A7C63432C963F7AAE4CF38D3A65334B1
:100FB00088CA39F623E4FD38A4A6DF33E2CB0FF567
:100FC0009CE32B3978A6683341CDE6F315E3583915
:100FD00050A6EF32A5CEBFF28EE284392CA6743231
:100FE0000CD098F108E2B0390BA6F83178D173F043
:100FF00082E1DB39EDA57931E8D24FEFFCE0063A2A
:10100000D3A5F9305CD42DEE77E0303ABCA576302C
:10101000D3D50CEDF2DF593AA9A5F22F4ED7EDEB5F
:101020006DDF823A99A56C2FCDD8CFEAE9DEAB3AD5
:101030008DA5E42E4FDAB4E964DED33A85A55A2EA5
:10104000D5DB9AE8E1DDFA3A7FA5CF2D5DDD82E7B9
:101050005DDD213B7EA5412DE9DE6DE6DADC473B17
:101060007FA5B22C77E059E557DC6D3B85A5212C97
:1010700008E248E4D5DB923B8DA58F2B9CE33AE355
:1010800052DBB63B99A5FB2A32E52DE2D1DADA3BF9
:10109000A9A5652ACBE624E14FDAFD3BBCA5CE2904
:1010A00065E81DE0CED9203CD3A5352902EA19DF39
:1010B0004DD9423CEDA59A28A1EB18DECDD8643C71
:1010C0000BA6FE2741ED19DD4DD8853C2CA66027E7
:1010D000E3EE1EDCCDD7A53C50A6C12687F026DB6B
:1010E0004ED7C53C78A620262CF231DACFD6E43C88
:1010F000A4A67E25D2F33FD951D6033DD3A6DA2448
:1011000079F551D8D3D5213D05A7352421F766D7E8
:1011100056D53F3D3BA78E23CAF87FD6D8D45B3D3A
:1011200074A7E72273FA9BD55CD4783DB1A73D2222
:101130001DFCBBD4DFD3933DF1A79321C7FDDFD3C3
:1011400063D3AF3D34A8E72072FF06D3E8D2C93D90
:101150007BA83A201C0131D26DD2E33DC5A88C1F7B
:10116000C70261D1F2D1FC3D12A9DC1E710494D0FA
:1011700078D1153E63A92B1E1B06CCCFFED02D3E89
:10118000B7A9791DC40707CF85D0453E0FAAC61C55
:101190006D0947CE0CD05C3E6AAA121C140B8CCD94
:1011A00094CF723EC8AA5D1BBB0CD4CC1CCF883E2A
:1011B00029ABA71A610E21CCA5CE9D3E8EABEF19AF
:1011C000051073CB2ECEB13EF6AB3719A811C9CAA4
:1011D000B7CDC53E61AC7E184A1324CA41CDD83E76
:1011E000D0ACC417EA1483C9CCCCEB3E41AD09178F
:1011F0008816E8C857CCFD3EB6AD4C16241850C82A
:10120000E2CB0F3F2EAE9015BE19BEC76ECB203F6E
:10121000A9AED214561B31C7FBCA303F28AF1314F6
:10122000EB1CA8C688CA403FA9AF54137E1E25C632
:1012300015CA4F3F2DB094120E20A7C5A3C95D3F1C
:10124000B5B0D3119C212DC532C96B3F40B11211ED
:101250002623B9C4C1C8783FCDB15010AE244AC4CA
:1012600051C8853F5EB28D0F3226E0C3E1C7913F82
:10127000F2B2CA0EB3277BC372C79C3F88B3060E77
:1012800031291CC303C7A73F22B4410DAA2AC1C2FA
:1012900095C6B13FBEB47C0C212C6DC227C6BB3FA6
:1012A0005EB5B70B932D1DC2BAC5C43F00B6F10A97
:1012B000022FD3C14EC5CC3FA5B62B0A6C308EC1D0
:1012C000E2C4D43F4DB76409D2314FC176C4DB3F8D
:1012D000F8B79D08343315C10CC4E13FA6B8D60752
:1012E0009234E0C0A1C3E73F56B90E07EB35B1C059
:1012F00038C3EC3F09BA46063F3788C0CFC2F13F3A
:10130000BFBA7E058E3864C066C2F53F77BBB504B0
:10131000D93945C0FEC1F83F32BCED031E3B2CC09D
:1013200097C1FB3FF0BC24035F3C19C030C1FD3FB7
:10133000B0BD5B029A3D0BC0CAC0FF3F73BE9201B5
:10134000D03E03C065C0004038BFC900F0B480EA99
:101350000102D40F4200B2EB410F02D2024608460E
:1013600011464A0042D0C30DDDB2C1F3C752AD1AD7
:10137000202D35DAC1F3160141F4000204B15242C6
:10138000C5F1200602FA06F12A411044B3EBD05F02
:1013900023D0C4B1012DA0EBC35009DCF0BC4FF049
:1013A000004202EAC352DBB200F5000000F08EB941
:1013B000400000F1807000EBC350A0F1807040EA63
:1013C000D170490009E0490841EAC071A0EBC3505F
:1013D00000F50000400800EBC350F0BC00F06DB910
:1013E0006142012202EB4101001BF6E7F0BC7047AD
:1013F00081F00041AAE780F00040A7E780EA0102FF
:1014000010B502F00043400022D04A001FD0010E68
:1014100001EB1261C0F35600C2F3560240F4000023
:1014200042F40002A0FB022000047F39140400D023
:10143000401C50EA124001D44000491EC2B20C06C2
:1014400004EBD010401C4008802A02D003E00020AA
:1014500010BD20F00100002900DA0020184310BD63
:1014600030B480EA010202F0004530F0004221F081
:10147000004013D090B1C30DD40DC2F31601C0F3D8
:101480001600E41A41F4000140F400027D34914258
:1014900001D3641C00E04900002C02DA30BC0020BB
:1014A00070474FF400000023914201D3891A03438F
:1014B00040084FEA4101F7D151B1914202D14FF0BA
:1014C000004105E002D24FF0010101E06FF001019F
:1014D00003EBC450284430BC00F0EFB82DE9F04DC8
:1014E00081EA030404F0004B21F0004514464FF05C
:1014F000000A23F0004150EA050220D054EA01021C
:101500001DD0C5F30A570246C5F31303C1F31300F8
:10151000C1F30A5640F4801543F48013A7EB060884
:10152000101BD64608F2FD3873EB050002D308F114
:10153000010801E092185B41B8F1000F03DA0020C6
:101540000146BDE8F08D00204FF480110646844628
:101550000EE0171B73EB050705D3121B63EB0503A6
:1015600006434CEA010C49084FEA300092185B41EF
:1015700050EA0107EDD152EA030012D082EA0400DA
:1015800083EA0501084305D0101BAB4106D20122B6
:10159000002306E000224FF0004302E06FF001025A
:1015A00053101AEB06004CEB085110EB0A0041EB0C
:1015B0000B01BDE8F04D00F0B7B8C10F80EAE07054
:1015C0000844CA079623002100F080B89623002221
:1015D000114600F07BB800F0004220F00040C10D41
:1015E000C0F3160040F400007F2901DA00207047A4
:1015F000962903DCC1F19601C84001E09639884084
:10160000002AF4D04042704720F00040C10DC0F3E2
:10161000160040F400007F2901DA00207047962967
:1016200003DCC1F19601C840704796398840704785
:1016300000F0004230F000400AD0C10D01F56071A9
:10164000C0F3160042EA0151C20840071143704737
:1016500000200146704701F0004330B421F0004102
:1016600050EA010206D00A0DA2F56072C1F313011F
:10167000002A02DC30BC00207047440F44EAC10459
:10168000C100E01830BC00EBC25000F016B830B515
:101690000B46014600202022012409E021FA02F530
:1016A0009D4205D303FA02F5491B04FA02F52844CA
:1016B000151EA2F10102F1DC30BD0029A8BF704760
:1016C000401C490008BF20F00100704710B4B0FA78
:1016D00080FC00FA0CF050EA010404BF10BC704713
:1016E00049B1CCF1200421FA04F411FA0CF118BF2D
:1016F000012121430843A3EB0C01CB1D4FEA0061FC
:101700004FEA102042BF002010BC704700EBC350CE
:1017100010440029A4BF10BC7047401C490008BFFA
:1017200020F0010010BC704710B5141E73F10004C6
:1017300008DA401C41F1000192185B411A4301D1C3
:1017400020F0010010BD2DE9F04D92469B4611B1ED
:10175000B1FA81F202E0B0FA80F22032904600F055
:10176000A3F804460F4640EA0A0041EA0B0153463B
:101770005A46084313D0114653EA010019D0C8F164
:101780004002504600F09FF805460E465046594626
:10179000424600F089F8084305D0012004E02046C5
:1017A0003946BDE8F08D0020054346EAE0762C433B
:1017B00037430A986305E40AA0EB08000022FD0AFB
:1017C00044EA47540A3002D500200146E9E7010502
:1017D00010196941DDE9084500196941BDE8F04D7E
:1017E000A2E72DE9F04D00231A461B1A8A4103DBBC
:1017F00000200146BDE8F08DC1F30A52C1F3130188
:1018000041F480154FF0000BD10702D100186D4153
:10181000521E0027044640F2FF11384601EB620ACF
:101820003E468046024600204FF4801100F04BF8FF
:10183000C2197141BB1846EB0100B4EB030C75EB08
:10184000000C04D3E41A65EB000517460E46241974
:1018500008F101006D4180463428E3DDF91946EBBB
:101860000600091BA84103D24FF0FF32134601E0E6
:10187000002213461BEB070046EB0A51BDE8F04D72
:10188000FFF752BF064C074D06E0E06840F0010349
:1018900094E8070098471034AC42F6D3FEF74CFCAE
:1018A000F82B0008182C0008202A04DB203A00FA44
:1018B00002F1002070479140C2F1200320FA03F3A7
:1018C000194390407047202A04DB203A21FA02F0A5
:1018D0000021704721FA02F3D040C2F1200291406A
:1018E000084319467047000000B58DB00121084635
:1018F00000F0D0FB4FF4C06000F0C0FB0B208DF86F
:10190000040000208DF805008DF8060001208DF8F8
:10191000070001A800F07AFB144800F08DF9144884
:10192000029014480390002004901348008805900A
:1019300000200690802007904000089080000990C9
:1019400000200A904FF400500B9000200C9002A948
:10195000064800F020FA01220221044800F012FAA1
:101960000121024800F05CF90DB000BD0800024002
:101970004C240140460000200400002000B587B040
:101980000121480200F096FB0121102000F092FB9B
:101990000220ADF8040000208DF8070001A91C48C2
:1019A00000F018FA002002908DF80C008DF80D0060
:1019B0000490059001208DF8180002A9154800F048
:1019C00061F8002301220B21124800F083F8012165
:1019D000104800F021F801210E4800F033F80121F1
:1019E0000C4800F024F80B4800F0D0F800BF09487C
:1019F00000F03DF80028FAD1064800F0CCF800BF0E
:101A0000044800F02AF80028FAD107B000BD000011
:101A1000001001400024014021B1826842F001021F
:101A2000826003E0826822F001028260704721B187
:101A3000826842F48072826003E0826822F48072DD
:101A40008260704721B1826842F48012826003E0B4
:101A5000826822F4801282607047014600208A6802
:101A600002F004020AB1012000E0002070470146A4
:101A700000208A6802F008020AB1012000E000207C
:101A80007047000030B502460020002350680F4C1C
:101A900020400D790C6844EA05242043506090688A
:101AA0000B4C2040D1E902542C434D7944EA4504C3
:101AB00020439060D06A20F470000C7C641EE4B275
:101AC000234340EA0350D06230BD0000FFFEF0FF28
:101AD000FDF7F1FFF0B504460D4600200021092D69
:101AE00011DDE068A5F10A0606EB4607072606FAAF
:101AF00007F18843A5F10A0606EB460603FA06F14C
:101B00000843E0600CE0206905EB4507072606FA6C
:101B100007F1884305EB450603FA06F10843206107
:101B2000072A0FDA606B561E06EB86071F2606FA99
:101B300007F18843561E06EB860605FA06F10843B0
:101B4000606322E00D2A0FDA206BD61F06EB8607B2
:101B50001F2606FA07F18843D61F06EB860605FA0C
:101B600006F10843206310E0E06AA2F10D0606EBDF
:101B700086071F2606FA07F18843A2F10D0606EB39
:101B8000860605FA06F10843E062F0BD816841F07F
:101B9000080181607047816841F0040181607047ED
:101BA00000BFFEE710B50021114800F039F802200F
:101BB00000F028F8002401200E49086000BF07E06B
:101BC0000D4830F8140000040C4941F82400641C4E
:101BD000B4F5806FF4DB4FF4806208490848FEF7E3
:101BE000C5FA00F083F90121014800F019F810BD91
:101BF000080002401800002046000020480800208D
:101C00004818002000F0805111B10349086001E03C
:101C1000024948607047000004040240000002408E
:101C200021B1026842F00102026004E002684FF64E
:101C3000FE731A400260704701684FF6FE72114051
:101C400001600021016041608160C1604B498842B0
:101C500008D14A490839496841F00F01474A083A12
:101C600051608AE045491431884208D14349083916
:101C7000496841F0F001414A083A51607DE03F492E
:101C80002831884208D13D490839496841F47061DA
:101C90003A4A083A516070E038493C31884208D1EC
:101CA00036490839496841F47041344A083A51606C
:101CB00063E032495031884208D1304908394968D7
:101CC00041F470212D4A083A516056E02B496431A5
:101CD000884208D129490839496841F47001274AE6
:101CE000083A516049E025497831884208D12349B2
:101CF0000839496841F07061204A083A51603CE077
:101D00001F49884206D1011F096841F00F01021FD7
:101D1000116032E01A491431884208D11849091F6C
:101D2000096841F0F001164A121F116025E01449BC
:101D30002831884208D11249091F096841F47061AD
:101D40000F4A121F116018E00D493C31884208D13A
:101D50000B49091F096841F47041094A121F1160BB
:101D60000BE007495031884207D10549091F09682E
:101D700041F47021024A121F1160704708000240AE
:101D8000080402401AB103680B43036002E00368D1
:101D90008B430360704710B50022026847F6F0736A
:101DA0009A430C6A8B6823430C6923434C69234391
:101DB0008C692343CC6923434C6A23438C6A2343B5
:101DC0001A430260CB6843600B6883604B68C36052
:101DD00010BD70472DE9F041024600250026002085
:101DE00000230024002791F803C00CF00F0591F8A0
:101DF00003C00CF0100CBCF1000F03D091F802C02E
:101E00004CEA050591F800C0BCF1000F31D0146810
:101E100000202BE04FF0010C0CFA00F3B1F800C0E9
:101E20000CEA03069E4220D183004FF00F0C0CFAFF
:101E300003F7BC4305FA03FC4CEA040491F803C021
:101E4000BCF1280F06D14FF0010C0CFA00FCC2F8CF
:101E500014C00AE091F803C0BCF1480F05D14FF05F
:101E6000010C0CFA00FCC2F810C0401C0828D1D3A9
:101E70001460B1F800C0BCF1FF0F34DD54680020DD
:101E80002EE000F1080C4FF0010808FA0CF3B1F84D
:101E900000C00CEA03069E4221D183004FF00F0CD4
:101EA0000CFA03F7BC4305FA03FC4CEA040491F86E
:101EB00003C0BCF1280F05D100F1080C08FA0CF89A
:101EC000C2F8148091F803C0BCF1480F07D100F1AB
:101ED000080C4FF0010808FA0CF8C2F81080401CFA
:101EE0000828CED35460BDE8F08100002DE9F04F02
:101EF00089B000245DE0324830F824000FFA80F900
:101F00002F4850F824004FEA204A4846FFF755FB77
:101F100080464FF08941FFF771FA07464FF08E4136
:101F2000FFF79EFA05465046FFF747FB80464FF005
:101F30008941FFF763FA07464FF08E41FFF790FAA9
:101F4000064631463046FFF759FA294602902846A0
:101F5000FFF754FA01900299FFF7F8F90390FFF7A1
:101F600067FBCDE9040100F021FE0022154BCDE90D
:101F70000601FFF7B3FA0746FFF76DFB83465CB92E
:101F80004FF08E415846FFF739FA0746FFF73CFB02
:101F90000D4941F824000AE04FF08F415846FFF701
:101FA0002DFA0746FFF730FB074941F82400601C73
:101FB00084B2B4F5007F9EDB09B0BDE8F08F00006D
:101FC00048180020000090404820002070B50446CA
:101FD00000250FE05CB12146084800F02EFC00BF50
:101FE0008021064800F05BFB0028F9D000E070BDBE
:101FF000681CC5B2032DEDDB00BFF8E700380140D7
:1020000000BFFEE700BFFEE77047000070B500218B
:1020100000230F22C47804B3154C246804F4E06450
:10202000C4F5E064210AC1F10403CA40447804FA0B
:1020300003F184781440214309010E4C0678A15520
:10204000047804F01F050124AC4005786D11AD0043
:1020500005F1E025C5F8004109E0047804F01F050A
:102060000124AC40044D0678761145F8264070BD39
:102070000CED00E000E400E080E100E002490143F3
:10208000024A1160704700000000FA050CED00E004
:102090007047000029B1064A52690243044B5A6155
:1020A00004E0034A52698243014B5A6170470000C1
:1020B0000010024029B1064A92690243044B9A611A
:1020C00004E0034A92698243014B9A617047000021
:1020D0000010024030B500210022002400232D4DC5
:1020E0006D6805F00C0121B1042905D0082923D120
:1020F00005E0294D056022E0274D05601FE0254DD4
:102100006D6805F47012234D6D6805F48034022566
:1021100005EB92421CB9214D554305600BE01D4D66
:102120006D6805F400351DB11C4D5543056002E096
:10213000194D5543056002E0174D056000BF00BF13
:10214000144D6D6805F0F0010909154D6B5C0568CB
:10215000DD4045600F4D6D6805F4E061090A104DE2
:102160006B5C4568DD4085600A4D6D6805F4605123
:10217000C90A0B4D6B5C4568DD40C560054D6D6857
:1021800005F44041890B074D6B5CC568B5FBF3F561
:10219000056130BD0010024000127A0000093D00C8
:1021A0001C0000202C000020704710B500F002F841
:1021B00010BD00000CB5002001900090334800686D
:1021C00040F480303149086000BF3048006800F4B6
:1021D000003000900198401C0190009818B90198B7
:1021E000B0F5A06FF1D12948006800F4003010B1BB
:1021F0000120009001E0002000900098012843D1C8
:102200002348006840F01000214908600846006833
:1022100020F0030008600846006840F002000860F3
:102220001A484068194948600846406848600846AE
:10223000406840F4806048600846406820F47C10A4
:1022400048600846406840F4E81048600846006866
:1022500040F08070086000BF0C48006800F000701B
:102260000028F9D00948406820F003000749486079
:102270000846406840F00200486000BF03484068DC
:1022800000F00C000828F9D10CBD0000001002403D
:1022900000200240042808D14FF0E021096941F0F4
:1022A00004014FF0E022116107E04FF0E0210969DD
:1022B00021F004014FF0E0221161704770470000E7
:1022C00010B504466FF00400FFF7E4FFE11704EBDC
:1022D0005171C1F3C701074A11701046007800EB35
:1022E0004001C1EBC0104FF6FF7101EAC000024986
:1022F000088010BD300000203200002010B51348C7
:10230000006840F001001149086008464068104923
:1023100008400E494860084600680E4908400B49CD
:1023200008600846006820F480200860084640687D
:1023300020F4FE0048604FF41F008860FFF735FF6F
:102340004FF000600449086010BD0000001002401A
:102350000000FFF8FFFFF6FE08ED00E000B589B0D1
:102360000121C802FFF7A6FE01210420FFF7A2FE0B
:102370004FF48070ADF8040003208DF8060018209B
:102380008DF8070001A91848FFF724FD06A800F002
:10239000EDF816480088ADF81C0015480088ADF827
:1023A00018000020ADF81E00ADF81A0006A911486B
:1023B00000F08AF86020ADF808000120ADF80A00AE
:1023C0000220ADF80E00ADF8100002A9094800F097
:1023D0002FF80121074800F01BF80021054800F004
:1023E0000BF809B000BD000000080140000000200B
:1023F00002000020002C014021B1028842F00102BD
:10240000028004E002884FF6FE731A400280704793
:1024100031B1B0F8442042F40042A0F8442005E075
:10242000B0F84420C2F30E02A0F844207047000028
:1024300070B5002400220023058C4FF6FE7635404F
:102440000584028C8388048B4FF68F752C40B51E53
:102450002C400D882C43751E2A400D892A434D8837
:102460002A43144DA8420BD0134DA84208D0134D57
:10247000A84205D0124DA84202D0124DA84213D155
:102480004FF6F7752A404D892A434FF6FB752A40CF
:102490008D882A434FF6FF652B404FF6FF552B40A2
:1024A0008D892B43CD892B4383800483CD888586FA
:1024B000028470BD002C0140003401400040014006
:1024C0000044014000480140002202881D4B984210
:1024D0000ED01D4B98420BD0B0F1804F08D01B4B53
:1024E000984205D01A4B984202D01A4B984204D118
:1024F0004FF68F731A404B881A43174B984207D0F8
:10250000164B984204D04FF6FF431A40CB881A432B
:1025100002808B8883850B8803850A4B98420BD0F9
:10252000094B984208D00E4B984205D00D4B98426B
:1025300002D00D4B984201D10B7A0386012383828E
:1025400070470000002C01400034014000040040AE
:1025500000080040000C0040001000400014004043
:102560000040014000440140004801404FF6FF7127
:10257000818000210180C18041800172704700008C
:1025800010B540F225510C4800F096F870B10A4899
:1025900000F04EF9C4B22146074800F04EF900BFE2
:1025A0004021054800F07BF80128F9D1402102487C
:1025B00000F060F810BD00000038014010B586B092
:1025C000044601210420FFF775FD01218803FFF770
:1025D00071FD01210846FFF76DFD4FF40070ADF865
:1025E000140003208DF8160018208DF8170005A997
:1025F0001E48FFF7EFFB4FF48060ADF81400042095
:102600008DF8170005A91948FFF7E4FB0194002095
:10261000ADF80800ADF80A00ADF80C00ADF81000F8
:102620000C20ADF80E0001A9114800F095F8012129
:102630000F4800F028F840210D4800F01BF8012257
:1026400040F225510A4800F061F825208DF800007D
:1026500003208DF801008DF8020001208DF80300A1
:102660006846FFF7D3FC06B010BD0000000801402B
:102670000038014001F40072B2F5007F00D100BFC4
:10268000CA430280704721B1828942F4005282819C
:1026900004E082894DF6FF731A408281704702463A
:1026A0000020B1F5007F00D100BF13880B400BB1B3
:1026B000012000E00020704770B50246002400238E
:1026C0000025002040F66A16B14200D100BFC1F3D8
:1026D000421501F01F03012606FA03F3012D02D172
:1026E0009689334006E0022D02D1168A334001E07C
:1026F000968A33400C12012606FA04F416883440F8
:1027000013B10CB1012000E0002070BDF0B503460C
:10271000002400260025002040F66A17B94200D1A7
:1027200000BF1846C1F3421401F01F06012707FA43
:1027300006F5012C01D10C3004E0022C01D110303F
:1027400000E014301AB107682F43076002E0076801
:10275000AF430760F0BD00002DE9F04786B00546A5
:102760000E460024A24600BFA1460027B08900B152
:1027700000BF2F462C8A4CF6FF700440F0880443BB
:102780002C82AC894EF6F3100440B088318908439E
:10279000718908430443AC81AC8A4FF6FF40044082
:1027A000B0890443AC8201A8FFF794FC1F4887421C
:1027B00002D1DDF810A001E0DDF80CA0A88900F43A
:1027C000004040B10AEBCA0000EB0A103168490032
:1027D000B0FBF1F807E00AEBCA0000EB0A10316821
:1027E0008900B0FBF1F86420B8FBF0F00401200987
:1027F000642101FB1089A88900F4004040B1322017
:1028000000EBC900B0FBF1F000F00700044308E062
:10281000322000EB09106421B0FBF1F000F00F0052
:1028200004432C8106B0BDE8F08700000038014069
:1028300001468888C0F308007047C1F3080282800F
:10284000704700BFFEE700000FB4054B10B503A9A9
:10285000044A029800F01EF810BC5DF814FB00005A
:10286000352A00083400002002E008C8121F08C101
:10287000002AFAD170477047002001E001C1121F01
:10288000002AFBD170470000014908607047000032
:10289000380000202DE9FF4F89B09B4604460025F3
:1028A00006E025280BD05A460B999047641C6D1CF6
:1028B00020780028F5D10DB02846BDE8F08F00271C
:1028C000B8460122474900E0074314F8013F203B86
:1028D00002FA03F00842F7D120782E2819D114F813
:1028E000010F47F004072A280ED06FF02F0220783E
:1028F000A0F1300109290CD808EB880102EB410155
:1029000000EB0108641CF2E70A98641C50F8048B81
:102910000A9020780028CED0642808D0692806D0F4
:1029200075281ED05A460B9990476D1C58E00A999D
:102930004FF00A0901C90A91002802DA40422D210C
:1029400002E0390504D52B218DF82010012103E088
:10295000F90704D02021F7E78A4608AE0DE00021F0
:10296000FAE70A994FF00A0901C90A91F7E74946BF
:10297000FEF78DFE303106F8011D0028F7D1ADEBD2
:10298000060000F12009780701D44FF00108C8457E
:1029900002DDA8EB090000E000208046002706E0E9
:1029A00008A85A46C05D0B9990476D1C7F1C57457F
:1029B000F6DB04E030205A460B9990476D1CB8F1C5
:1029C0000001A8F10108F5DC05E016F8010B5A46F4
:1029D0000B9990476D1CB9F10001A9F10109F4DCD4
:1029E000641C65E7092801000146114A12884A4320
:1029F0004FF0E0235A6100229A611A46126942F0B0
:102A000001021A6100BF4FF0E022106900F00102DC
:102A10001AB100F48032002AF5D04FF0E02212699A
:102A200022F001024FF0E0231A6100229A61704700
:102A30003200002070B504460D46E1B20548FFF7AC
:102A4000FCFE00BF80210348FFF729FE0028F9D0D3
:102A5000204670BD0038014000BF4820FFF730FC21
:102A60004FF4A060FFF70AFB4FF4E130FFF7A6FD3B
:102A7000FFF774FCFEF738FFFEF780FF3220FFF708
:102A8000B3FF01213848FFF7B7FC6BE03748006817
:102A9000012867D102240FE0354850F82400354959
:102AA0000988884206DD324830F824003149088020
:102AB00031480480601C84B2B4F5007FECDB2F4801
:102AC0000088401C80022E490988491C48432A4935
:102AD000098890FBF1F02B4991FBF0F02A4908603E
:102AE00008460068FEF772FD82464FF07E51FEF701
:102AF00085FC814649464FF07E50FEF7B1FC80468A
:102B00004FF07F51FEF77AFC07462049FEF7A8FCFC
:102B100006464FF08941FEF771FC0546FEF75BFD66
:102B20001B490880084601881AA0FFF78DFE002483
:102B300011E01A4830F81400C82100FB01F5E8172D
:102B400005EB1050011316A0FFF77EFEFF20FFF7E4
:102B50003DFA601C84B20E4800888442E9DB002004
:102B60000249086092E70000002C01401800002094
:102B7000482000200E0000200C0000200000002053
:102B80000200002000A24A04080000201422E03ABB
:102B90001000002025640D0A000000003C00002009
:102BA00061646420312C302C256400002DE9F04153
:102BB00006460F46FEF715FE041E0D4618BF0120FF
:102BC000284320F00040C0F17F6000F1E040C00FDA
:102BD0000ED0301C18BF0120384320F00040C0F157
:102BE0007F6000F1E040C00F04BF0120FFF74CFE02
:102BF00020462946BDE8F081182C0008000000207E
:102C00003C00000068280008542C00083C0000200C
:102C10000C2C000078280008770000000004000059
:102C2000000000000000000000000000FF000000A5
:102C30000000000000000000010203040102030480
:102C40000607080902040608000000000000000052
:042C50000000000080
:0400000508000131BD
:00000001FF
