:020000040800F2
:10000000282C0020490100087124000869240008F8
:100010006D240008C91E00089F2C00080000000085
:100020000000000000000000000000001126000891
:100030006F22000800000000F924000825270008AE
:100040006301000863010008630100086301000800
:1000500063010008630100086301000863010008F0
:10006000630100086301000863010008CD1E000859
:1000700063010008630100086301000863010008D0
:1000800063010008630100086301000863010008C0
:1000900063010008630100086301000863010008B0
:1000A00063010008630100086301000863010008A0
:1000B0006301000863010008630100086301000890
:1000C0006301000863010008630100086301000880
:1000D00063010008DD2900086301000863010008CE
:1000E0006301000863010008630100086301000860
:1000F0006301000863010008630100086301000850
:10010000630100086301000863010008630100083F
:10011000630100086301000863010008630100082F
:10012000630100086301000863010008630100081F
:10013000DFF810D001F04CFD00480047B53600084C
:10014000AFF30080282C002006488047064800476F
:10015000FEE7FEE7FEE7FEE7FEE7FEE7FEE7FEE777
:10016000FEE7FEE765270008310100082DE9F04FA2
:100170004FF0000C4FF0000301EB9C5EBEF9025003
:10018000BEF900400EF5806EBEF90290BEF9008007
:100190000EF5806EBEF90270BEF900600EF5806E3D
:1001A000BEF902B0BEF900A00EF5806ED044D9446D
:1001B000A8EB4A0AA9EB4B0B4FEAA4044FEAA505AA
:1001C00004EBA60405EBA705A4EB6606A5EB670701
:1001D00004EBA80405EBA905A4EB6808A5EB6909E5
:1001E00006EBAB06A7EBAA07A6EB6B0B07EB6A0ABD
:1001F000458020F8044B478020F8046BA0F802905B
:1002000020F8048BA0F802A020F804BB03F101033E
:1002100093FAA3FCB3F5807FAED1A0EB82014FF03F
:10022000100312090FF2341000F1000006B403EBC2
:10023000430C6144A2F5803202EB8332B1F90250E3
:10024000B1F90040A1EB0301B0F902B0B0F900A090
:1002500000F10400A5EB040E0EFB0BFC0AEB4B0EA9
:1002600005FB0ACB04FB0ECAB1F90250B1F90040FC
:10027000A1EB0301B0F90290B0F9008000F1040095
:10028000A5EB040E0EFB09FC08EB490E05FB08C9A3
:1002900004FB0EC8B1F90250B1F90040A1EB030113
:1002A000B0F90270B0F9006000F10400A5EB040E93
:1002B0000EFB07FC06EB470E05FB06C704FB0EC64C
:1002C000B1F90250B1F9004001F10001D044D94424
:1002D000A8EB4A0AA9EB4B0B4FEAA4044FEAA50589
:1002E00004EB264405EB2745A4EBE636A5EBE73700
:1002F00004EB284405EB2945A4EBE838A5EBE939E4
:1003000006EB2B46A7EB2A47A6EBEB3B07EBEA3ABB
:100310004D800C8019444F800E801944A1F8029042
:10032000A1F800801944A1F802A021F804BBB2F59D
:10033000803283DA03EB430C6144A2F101025FEAED
:10034000024E18BFA0EB0C007FF476AF06BC4FEA5C
:10035000830392087FF46AAFBDE8F08F004000008D
:1003600000400000004000005DDD213BA3227E181C
:100370000000412D7EA5412D0000412D00C0004010
:100380005DDD82E75DDD213B7EA5412D0040000063
:100390000040000000400000AA2A94126B39460673
:1003A00049327C0CA8118E2349327C0CA3227E1882
:1003B00021F77931AA2A9412A8118E235DDD213B01
:1003C000A3227E180000412D95C6B13F461A2B1E70
:1003D00058EE3735BEB4C53EA8118E235DDD213BF6
:1003E00063A97138DF089A28B7CDC53E7EA5412D97
:1003F0000000412D00C0004063A92B1E21F7793178
:10040000BEB4C53EBEB47C0C58EE373561AC213B62
:1004100095C6BAF9BAE571383BA737355DDD82E795
:100420005DDD213B7EA5412D21F766D756D53F3DA9
:100430003BA78E23A811C9CAB7CDC53E61AC7E18B3
:10044000AA2AC1C295C6B13FBEB47C0C00400000D0
:1004500000400000004000001E3BB504693E9201D0
:10046000C83C2403EB356409C83C24036B394606B9
:100470006C30060E1E3BB504EB356409AA2A9412B3
:100480006B39460649327C0CAE240917AF37D607C4
:10049000882E8D0F7E1E5D1BEB356409AA2A9412EF
:1004A00024188C1F1E34F10AB3269015A8118E2330
:1004B00049327C0CA3227E18140B60276C30060E88
:1004C0007E1E5D1B7104FB2A882E8D0F461A2B1E83
:1004D000C7FD5A2E9D2C1211FE15E72021F7793108
:1004E000AA2A9412A8118E2387F05334B228131429
:1004F000480D202602EAE536B3269015DF089A2833
:100500009CE32B39AE2409177104FB2A5DDD213BE6
:10051000A3227E180000412D4ED7C53C9320EF1931
:100520008FFB6C2F78D1153E7E1E5D1B21F7793134
:10053000E2CB0F3F641CC61CB8F2683395C6B13FCE
:10054000461A2B1E58EE373597C1FB3F24188C1FD7
:1005500002EAE536F0BCEC3FFE15E720BAE571385B
:10056000A6B8853FD5133D2282E1DB39BEB4C53E36
:10057000A8118E235DDD213B40B1AF3D790FDA2418
:100580004DD9423C2EAE423C480D202656D53F3D2B
:100590008EAB823A140B602778D1153E63A971386F
:1005A000DF089A28B7CDC53EB1A71236A906CE29D5
:1005B00015CA4F3F78A668337104FB2A95C6B13F30
:1005C000BCA576303902212C38C3EC3F7EA5412DE5
:1005D0000000412D00C00040BCA5CE29C7FD5A2E09
:1005E000F0BCEC3F78A620268FFB6C2F09BAB13FF8
:1005F000B1A73D2257F976304DB74F3F63A92B1E67
:1006000021F77931BEB4C53E8EABEF19ECF47432EC
:100610005EB2153E2EAE9015B8F268332DB03F3D58
:1006200040B1121187F053342EAE423CBEB47C0C64
:1006300058EE373561AC213BA6B8D6072BEC123605
:10064000C8AADB39F0BC240302EAE53663A9713895
:1006500097C16EFEDCE7B03734A8E53695C6BAF927
:10066000BAE571383BA73735E2CB0FF59CE32B3960
:1006700078A6683378D173F082E1DB39EDA5793162
:100680004ED7EDEB6DDF823A99A56C2F5DDD82E7E9
:100690005DDD213B7EA5412D9CE33AE352DBB63B79
:1006A00099A5FB2A02EA19DF4DD9423CEDA59A280B
:1006B00087F026DB4ED7C53C78A6202621F766D7E3
:1006C00056D53F3D3BA78E23C7FDDFD363D3AF3D58
:1006D00034A8E720710494D078D1153E63A92B1E6D
:1006E000140B8CCD94CF723EC8AA5D1BA811C9CA49
:1006F000B7CDC53E61AC7E18241850C8E2CB0F3F81
:100700002EAE90157E1E25C615CA4F3F2DB09412F1
:10071000AE244AC451C8853F5EB28D0FAA2AC1C219
:1007200095C6B13FBEB47C0C6C308EC1E2C4D43FE0
:100730004DB76409EB35B1C038C3EC3F09BA460682
:100740001E3B2CC097C1FB3FF0BC240300400000BF
:100750000040000000400000D03E2E019B3F65009D
:10076000363FC9009A3D5B02363FC900693E92019F
:100770005F3C8803D03E2E019A3D5B021E3BB504D0
:10078000693E9201C83C2403D939E205023EF701D3
:10079000F43BED038E380E079A3D5B021E3BB50419
:1007A0003F373908313DC002463A7E05EB356409D2
:1007B000C83C24036B39460692348E0A5F3C88039A
:1007C0008E380E073433B70BF43BED03AF37D60743
:1007D000D231DF0C8A3B5104CE369D086C30060EB8
:1007E0001E3BB504EB356409022F2B0FB23A1A05F4
:1007F00005352B0A932D5010463A7E051E34F10A1A
:10080000212C7311D939E2053433B70BAA2A94127B
:100810006B39460649327C0C3129B413FD38AA06DF
:100820005B31410DB327D2148E380E076C30060EA3
:100830003226EE151F3872077B2FCA0EAE24091719
:10084000AF37D607882E8D0F262321183F3739085A
:10085000932D50109C213719CE369D089D2C1211D6
:100860000E204B1A5D360109A42BD3117E1E5D1B91
:10087000EB356409AA2A9412EB1C6C1C7835C70965
:10088000AF295413561B791D05352B0AB2281314B2
:10089000BE19841E92348E0AB327D21424188C1FDA
:1008A0001E34F10AB326901588169120A933540BF3
:1008B000B1254C16EA1493213433B70BAE24091733
:1008C0004A139222BF321A0CA923C417A8118E23EF
:1008D00049327C0CA3227E1805108824D231DF0C0B
:1008E0009C213719610E7E255B31410D9320EF1954
:1008F000BB0C7126E430A40D891FA71A140B6027C6
:100900006C30060E7E1E5D1B6D094C28F42F680EA0
:10091000721D121CC40735297B2FCA0E641CC61C0D
:100920001B061A2A022F2B0F561B791D7104FB2A56
:10093000882E8D0F461A2B1EC702D82B0E2EEE0FB7
:100940003519DC1E1C01B22C932D501024188C1F5D
:1009500072FF882D182DB11011173A20C7FD5A2E9D
:100960009D2C1211FE15E7201DFC282F212C731140
:10097000EA14932173FAF22FA42BD311D5133D223D
:10098000CAF8B830282B3412BF12E72221F7793188
:10099000AA2A9412A8118E2379F536322D2AF41240
:1009A00091103524D2F3EF32AF295413790FDA24A2
:1009B0002CF2A3333129B413610E7E2587F0533412
:1009C000B2281314480D2026E3EEFF3433287314A5
:1009D0002E0CC12641EDA535B327D214140B602788
:1009E000A1EB483633273115FA09FE2702EAE5362E
:1009F000B3269015DF089A2865E87E373226EE1573
:100A0000C4073529CBE61238B1254C16A906CE29E4
:100A100032E5A1382F25AB168D05652A9CE32B39CD
:100A2000AE2409177104FB2A08E2B0392B2466179B
:100A300055038F2B77E0303AA923C4173902212CB4
:100A4000E9DEAB3A262321181C01B22C5DDD213BE7
:100A5000A3227E180000412DD5DB923B1F22DB181C
:100A6000E4FECF2D4FDAFD3B9C213719C7FD5A2EEE
:100A7000CDD8643C17219319ABFCE42E4ED7C53C6E
:100A80009320EF198FFB6C2FD3D5213D0E204B1AED
:100A900073FAF22F5CD4783D891FA71A57F9763084
:100AA000E8D2C93D041F021B3CF8F93078D1153E4D
:100AB0007E1E5D1B21F779310CD05C3EF81DB81B02
:100AC00006F6F831A5CE9D3E721D121CECF4743270
:100AD00041CDD83EEB1C6C1CD2F3EF32E2CB0F3F82
:100AE000641CC61CB8F2683388CA403FDD1B201D59
:100AF0009FF1DF3332C96B3F561B791D87F05334AA
:100B0000E1C7913FCE1AD31D6FEFC63495C6B13FF2
:100B1000461A2B1E58EE37354EC5CC3FBE19841EE3
:100B200041EDA5350CC4E13F3519DC1E2BEC123626
:100B3000CFC2F13FAD18341F16EB7D3697C1FB3F96
:100B400024188C1F02EAE53665C000409B17E31F9E
:100B5000EFE84B3738BFFF3F11173A20DCE7B037DB
:100B600011BEF83F88169120CBE61238F0BCEC3F5E
:100B7000FE15E720BAE57138D4BBDB3F74153D2183
:100B8000AAE4CF38BFBAC43FEA1493219CE32B39BF
:100B9000AFB9A73F5F14E8218EE28439A6B8853F3C
:100BA000D5133D2282E1DB39A2B75D3F4A13922281
:100BB00077E0303AA5B6303FBF12E7226DDF823AC8
:100BC000AFB5FD3E34123B2364DED33ABEB4C53E1E
:100BD000A8118E235DDD213BD5B3883E1D11E22394
:100BE00057DC6D3BF2B2453E9110352452DBB63BEB
:100BF00015B2FC3D051088244FDAFD3B40B1AF3DF6
:100C0000790FDA244DD9423C71B05B3DED0E2C25B5
:100C10004DD8853CA9AF033D610E7E254ED7C53C1E
:100C2000E8AEA53CD40DCF2551D6033D2EAE423CB7
:100C3000480D202656D53F3D7BADDA3BBB0C7126D7
:100C40005CD4783DD0AC6D3B2E0CC12663D3AF3D58
:100C50002BACFA3AA10B11276DD2E33D8EAB823A51
:100C6000140B602778D1153EF8AA063A870AAF27F9
:100C700085D0453E6AAA8439FA09FE2794CF723E90
:100C8000E3A9FD386D094C28A5CE9D3E63A97138B6
:100C9000DF089A28B7CDC53EEBA8E1375208E72810
:100CA000CCCCEB3E7BA84B37C4073529E2CB0F3FBA
:100CB00012A8B13636078129FBCA303FB1A71236D8
:100CC000A906CE2915CA4F3F57A76E351B061A2A0B
:100CD00032C96B3F05A7C6348D05652A51C8853FCB
:100CE000BBA61934FF04B02A72C79C3F78A66833AC
:100CF0007104FB2A95C6B13F3EA6B232E303452BF1
:100D0000BAC5C43F0BA6F83155038F2BE2C4D43FBC
:100D1000E0A53931C702D82B0CC4E13FBCA5763021
:100D20003902212C38C3EC3FA1A5AF2FAA016A2CB0
:100D300066C2F53F8DA5E42E1C01B22C97C1FB3F86
:100D400081A5152E8E00FA2CCAC0FF3F7EA5412D2D
:100D50000000412D00C0004081A56A2C72FF882D43
:100D600038BFFF3F8DA58F2BE4FECF2D73BEFB3F19
:100D7000A1A5B02A56FE152EB0BDF53FBCA5CE29C3
:100D8000C7FD5A2EF0BCEC3FE0A5E72839FD9F2EA9
:100D900032BCE13F0BA6FE27ABFCE42E77BBD43F71
:100DA0003EA611271DFC282FBFBAC43F78A62026D7
:100DB0008FFB6C2F09BAB13FBBA62C2501FBAF2FCF
:100DC00056B99C3F05A7352473FAF22FA6B8853F84
:100DD00057A73B23E5F93430F8B76B3FB1A73D2265
:100DE00057F976304DB74F3F12A83D21CAF8B830B9
:100DF000A5B6303F7BA83A203CF8F93000B60F3F4B
:100E0000EBA8341FAEF739315EB5EB3E63A92B1E5C
:100E100021F77931BEB4C53EE3A9201D93F6B9315F
:100E200022B49D3E6AAA121C06F6F83188B3723EBF
:100E3000F8AA021B79F53632F2B2453E8EABEF19B5
:100E4000ECF474325EB2153E2BACDB185FF4B232B8
:100E5000CDB1E33DD0ACC417D2F3EF3240B1AF3DDA
:100E60007BADAB1645F32C33B5B0783D2EAE901567
:100E7000B8F268332DB03F3DE8AE73142CF2A333C3
:100E8000A9AF033DA9AF54139FF1DF3328AFC53C91
:100E900071B0341213F11934A9AE853C40B112116E
:100EA00087F053342EAE423C15B2EE0FFBEF8D347B
:100EB000B6ADFD3BF2B2CA0E6FEFC63441ADB63BE4
:100EC000D5B3A40DE3EEFF34D0AC6D3BBEB47C0CC7
:100ED00058EE373561AC213BAFB5540BCCED6E35D8
:100EE000F6ABD33AA5B62B0A41EDA5358EAB823AC7
:100EF000A2B70109B6ECDC3529AB303AA6B8D60763
:100F00002BEC1236C8AADB39AFB9AA06A1EB4836DA
:100F10006AAA8439BFBA7E0516EB7D360FAA2B3933
:100F2000D4BB51048CEAB136B7A9CF38F0BC240346
:100F300002EAE53663A9713811BEF70178E918377E
:100F400012A9123838BFC900EFE84B37C5A8B0372F
:100F500065C09BFF65E87E377BA84B3797C16EFE67
:100F6000DCE7B03734A8E536CFC240FD53E7E137C0
:100F7000F1A77D360CC413FCCBE61238B1A71236AC
:100F80004EC5E6FA42E6423874A7A53595C6BAF9C9
:100F9000BAE571383BA73735E1C78EF832E5A1389D
:100FA00005A7C63432C963F7AAE4CF38D3A65334B1
:100FB00088CA39F623E4FD38A4A6DF33E2CB0FF567
:100FC0009CE32B3978A6683341CDE6F315E3583915
:100FD00050A6EF32A5CEBFF28EE284392CA6743231
:100FE0000CD098F108E2B0390BA6F83178D173F043
:100FF00082E1DB39EDA57931E8D24FEFFCE0063A2A
:10100000D3A5F9305CD42DEE77E0303ABCA576302C
:10101000D3D50CEDF2DF593AA9A5F22F4ED7EDEB5F
:101020006DDF823A99A56C2FCDD8CFEAE9DEAB3AD5
:101030008DA5E42E4FDAB4E964DED33A85A55A2EA5
:10104000D5DB9AE8E1DDFA3A7FA5CF2D5DDD82E7B9
:101050005DDD213B7EA5412DE9DE6DE6DADC473B17
:101060007FA5B22C77E059E557DC6D3B85A5212C97
:1010700008E248E4D5DB923B8DA58F2B9CE33AE355
:1010800052DBB63B99A5FB2A32E52DE2D1DADA3BF9
:10109000A9A5652ACBE624E14FDAFD3BBCA5CE2904
:1010A00065E81DE0CED9203CD3A5352902EA19DF39
:1010B0004DD9423CEDA59A28A1EB18DECDD8643C71
:1010C0000BA6FE2741ED19DD4DD8853C2CA66027E7
:1010D000E3EE1EDCCDD7A53C50A6C12687F026DB6B
:1010E0004ED7C53C78A620262CF231DACFD6E43C88
:1010F000A4A67E25D2F33FD951D6033DD3A6DA2448
:1011000079F551D8D3D5213D05A7352421F766D7E8
:1011100056D53F3D3BA78E23CAF87FD6D8D45B3D3A
:1011200074A7E72273FA9BD55CD4783DB1A73D2222
:101130001DFCBBD4DFD3933DF1A79321C7FDDFD3C3
:1011400063D3AF3D34A8E72072FF06D3E8D2C93D90
:101150007BA83A201C0131D26DD2E33DC5A88C1F7B
:10116000C70261D1F2D1FC3D12A9DC1E710494D0FA
:1011700078D1153E63A92B1E1B06CCCFFED02D3E89
:10118000B7A9791DC40707CF85D0453E0FAAC61C55
:101190006D0947CE0CD05C3E6AAA121C140B8CCD94
:1011A00094CF723EC8AA5D1BBB0CD4CC1CCF883E2A
:1011B00029ABA71A610E21CCA5CE9D3E8EABEF19AF
:1011C000051073CB2ECEB13EF6AB3719A811C9CAA4
:1011D000B7CDC53E61AC7E184A1324CA41CDD83E76
:1011E000D0ACC417EA1483C9CCCCEB3E41AD09178F
:1011F0008816E8C857CCFD3EB6AD4C16241850C82A
:10120000E2CB0F3F2EAE9015BE19BEC76ECB203F6E
:10121000A9AED214561B31C7FBCA303F28AF1314F6
:10122000EB1CA8C688CA403FA9AF54137E1E25C632
:1012300015CA4F3F2DB094120E20A7C5A3C95D3F1C
:10124000B5B0D3119C212DC532C96B3F40B11211ED
:101250002623B9C4C1C8783FCDB15010AE244AC4CA
:1012600051C8853F5EB28D0F3226E0C3E1C7913F82
:10127000F2B2CA0EB3277BC372C79C3F88B3060E77
:1012800031291CC303C7A73F22B4410DAA2AC1C2FA
:1012900095C6B13FBEB47C0C212C6DC227C6BB3FA6
:1012A0005EB5B70B932D1DC2BAC5C43F00B6F10A97
:1012B000022FD3C14EC5CC3FA5B62B0A6C308EC1D0
:1012C000E2C4D43F4DB76409D2314FC176C4DB3F8D
:1012D000F8B79D08343315C10CC4E13FA6B8D60752
:1012E0009234E0C0A1C3E73F56B90E07EB35B1C059
:1012F00038C3EC3F09BA46063F3788C0CFC2F13F3A
:10130000BFBA7E058E3864C066C2F53F77BBB504B0
:10131000D93945C0FEC1F83F32BCED031E3B2CC09D
:1013200097C1FB3FF0BC24035F3C19C030C1FD3FB7
:10133000B0BD5B029A3D0BC0CAC0FF3F73BE9201B5
:10134000D03E03C065C0004038BFC900F0B480EA99
:101350000102D40F4200B2EB410F02D2024608460E
:1013600011464A0042D0C30DDDB2C1F3C752AD1AD7
:10137000202D35DAC1F3160141F4000204B15242C6
:10138000C5F1200602FA06F12A411044B3EBD05F02
:1013900023D0C4B1012DA0EBC35009DCF0BC4FF049
:1013A000004202EAC352DBB200F5000000F07ABA54
:1013B000400000F1807000EBC350A0F1807040EA63
:1013C000D170490009E0490841EAC071A0EBC3505F
:1013D00000F50000400800EBC350F0BC00F059BA23
:1013E0006142012202EB4101001BF6E7F0BC7047AD
:1013F00081F00041AAE780F00040A7E780EA0102FF
:1014000010B502F00043400022D04A001FD0010E68
:1014100001EB1261C0F35600C2F3560240F4000023
:1014200042F40002A0FB022000047F39140400D023
:10143000401C50EA124001D44000491EC2B20C06C2
:1014400004EBD010401C4008802A02D003E00020AA
:1014500010BD20F00100002900DA0020184310BD63
:1014600030B480EA010202F0004530F0004221F081
:10147000004013D090B1C30DD40DC2F31601C0F3D8
:101480001600E41A41F4000140F400027D34914258
:1014900001D3641C00E04900002C02DA30BC0020BB
:1014A00070474FF400000023914201D3891A03438F
:1014B00040084FEA4101F7D151B1914202D14FF0BA
:1014C000004105E002D24FF0010101E06FF001019F
:1014D00003EBC450284430BC00F0DBB92DE9FE4FCB
:1014E000804681EA0300C00F0C46009021F00041C5
:1014F00023F00045B8EB0200A94105D24046214641
:1015000090461C460B46024623F00040104347D04D
:10151000270DC7F30A00C3F30A510290401A019045
:1015200040286BDAC3F3130040F4801B0098924606
:1015300020B10023D2EB030A63EB0B0B0198594651
:10154000C0F14002504600F083F906460D46504671
:101550005946019A00F08BF910EB08006141002414
:1015600087EA115284EAE7731A4340D0009A62B3C3
:10157000019A012A4FEA075215DC001B61EB0201B8
:101580004FF0004202EA0752CDE90042001C41F54B
:10159000801132462B4600F0C2F903B0BDE8F08F4F
:1015A00040462146F9E7001B61EB0201001C41F5B2
:1015B000801300185B412018A2F5001747EB0301C8
:1015C00040EAD570B6196D4111E06D084FEA360654
:1015D00045EAC0754FEA0752001B61EB0201001C8F
:1015E00041F5801149084FEA300000195141324657
:1015F0002B4603B0BDE8F04F00F082B900980122FD
:1016000040000023D0EB020263EBE0730098214618
:101610004FEAE074B8EB000061EB0401E9E783F006
:1016200000435BE781F0004158E72DE9F04D81EA86
:10163000030404F0004B21F0004514464FF0000A6B
:1016400023F0004150EA050220D054EA01021DD0E7
:10165000C5F30A570246C5F31303C1F31300C1F3E0
:101660000A5640F4801543F48013A7EB0608101BBC
:10167000D64608F2FD3873EB050002D308F10108E5
:1016800001E092185B41B8F1000F03DA0020014637
:10169000BDE8F08D00204FF48011064684460EE030
:1016A000171B73EB050705D3121B63EB05030643FA
:1016B0004CEA010C49084FEA300092185B4150EAAD
:1016C0000107EDD152EA030012D082EA040083EA56
:1016D0000501084305D0101BAB4106D201220023AF
:1016E00006E000224FF0004302E06FF001025310C9
:1016F0001AEB06004CEB085110EB0A0041EB0B0112
:10170000BDE8F04D00F0FCB8C10F80EAE07008447D
:10171000CA079623002100F0C5B80EB5C10F80EAB4
:10172000E0700844CA07002140F233438DE80E0000
:101730000A460B4600F0F3F803B000BD20F000406D
:10174000C10DC0F3160040F400007F2901DA00202B
:101750007047962903DCC1F19601C840704796395D
:101760008840704700F0004230F000400AD0C10DC0
:1017700001F56071C0F3160042EA0151C20840074A
:101780001143704700200146704701F0004330B418
:1017900021F0004150EA010206D00A0DA2F5607264
:1017A000C1F31301002A02DC30BC00207047440F53
:1017B00044EAC104C100E01830BC00EBC25000F0A4
:1017C00068B830B50B46014600202022012409E00C
:1017D00021FA02F59D4205D303FA02F5491B04FAEA
:1017E00002F52844151EA2F10102F1DC30BD2DE9FD
:1017F000F05F0546002092469B4688460646814695
:1018000040241BE0284641464746224600F0F2F9B4
:1018100053465A46C01A914110D3114618462246E3
:1018200000F016F82D1A67EB01084F4622460120FA
:10183000002100F00DF817EB00094E41201EA4F125
:101840000104DFDC484631462A464346BDE8F09FA6
:10185000202A04DB203A00FA02F100207047914070
:10186000C2F1200320FA03F3194390407047202A65
:1018700006DBCB17203A41FA02F043EAE07306E0B8
:1018800041FA02F3D040C2F12002914008431946C8
:1018900070470029A8BF7047401C490008BF20F0CE
:1018A0000100704710B4B0FA80FC00FA0CF050EA66
:1018B000010404BF10BC704749B1CCF1200421FAE7
:1018C00004F411FA0CF118BF012121430843A3EBE2
:1018D0000C01CB1D4FEA00614FEA102042BF0020EF
:1018E00010BC704700EBC35010440029A4BF10BCCB
:1018F0007047401C490008BF20F0010010BC704731
:1019000010B5141E73F1000408DA401C41F1000107
:1019100092185B411A4301D120F0010010BD2DE95E
:10192000F04D92469B4611B1B1FA81F202E0B0FA55
:1019300080F220329046FFF78BFF04460F4640EAC4
:101940000A0041EA0B0153465A46084313D0114698
:1019500053EA010019D0C8F14002504600F04AF99C
:1019600005460E46504659464246FFF771FF08436A
:1019700005D0012004E020463946BDE8F08D002066
:10198000054346EAE0762C4337430A986305E40AA8
:10199000A0EB08000022FD0A44EA47540A3002D5B1
:1019A00000200146E9E7010510196941DDE9084514
:1019B00000196941BDE8F04DA2E72DE9FE4F81EA2B
:1019C000030404F0004421F0004100944FF0000BA8
:1019D00023F0004350EA01045ED052EA03045BD0D6
:1019E000C3F30A54C1F30A552C44A4F2F33401940E
:1019F000A0FB0254C1F3130141F48011C3F313039C
:101A000043F4801301FB024400FB034E840A970A4F
:101A100044EA815447EA8357A4FB076802958D0A7C
:101A200005FB07854FEA932C04FB0C542705029D08
:101A30004FEA065847EA1637B5EB08056EEB070C78
:101A4000870E920E47EA811742EA8312A7FB020132
:101A5000B6EB0B0164EB00042B0D43EA0C335E186C
:101A600044EB1C50DA465146E7FB0201C5F3130470
:101A70004FEA0B3343EA14534FEA0432019C43EA22
:101A80000603A4F10C040294009CCDE900B4FFF716
:101A900046FF03B0BDE8F08F00200146F9E770B5BE
:101AA00021F0004303430CD0C1F30A550024D5EBC9
:101AB000040564EB0403D617AD1AB34102DB002022
:101AC000014670BD201841EB025170BD2DE9F04D6B
:101AD00000231A461B1A8A4103DB00200146BDE899
:101AE000F08DC1F30A52C1F3130141F480154FF098
:101AF000000BD10702D100186D41521E0027044689
:101B000040F2FF11384601EB620A3E46804602462B
:101B100000204FF4801100F06DF8C2197141BB181C
:101B200046EB0100B4EB030C75EB000C04D3E41A94
:101B300065EB000517460E46241908F101006D41BA
:101B400080463428E3DDF91946EB0600091BA8415D
:101B500003D24FF0FF32134601E0002213461BEB85
:101B6000070046EB0A51BDE8F04DFFF7C9BEC1F3CF
:101B70000A52C1F3130140F2FF3341F480119A423B
:101B800002DA00200146704740F233439A42A2F243
:101B9000334202DC524200F02DB8FFF759BE00007C
:101BA00030B5041E71F1000404DB4FF000444042E4
:101BB00064EB0101141E73F1000405DB1C464FF0B9
:101BC0000043524263EB0403994208BF904230BD88
:101BD000064C074D06E0E06840F0010394E807007A
:101BE00098471034AC42F6D3FEF7A6FAA04100089D
:101BF000C0410008202A04DB203A21FA02F000212B
:101C0000704721FA02F3D040C2F12002914008430C
:101C10001946704700B58DB00121084600F06EFCF2
:101C20004FF4C06000F05EFC0B208DF80400002033
:101C30008DF805008DF8060001208DF8070001A839
:101C400000F018FC144800F045FA144802901448BB
:101C50000390002004904FF48060059000200690CF
:101C600080200790400008908000099020200A9072
:101C700000020B9000200C9002A9074800F0D9FA4E
:101C800001220621044800F0CBFA0121024800F0AD
:101C900015FA0DB000BD0000080002404C240140C0
:101CA0002800002000B587B00121480200F036FC72
:101CB0000121102000F032FC0220ADF804000020C9
:101CC0008DF8070001A91C4800F0D2FA002002900C
:101CD0008DF80C008DF80D000490059001208DF812
:101CE000180002A9154800F061F8002301220B2119
:101CF000124800F083F80121104800F021F801217A
:101D00000E4800F033F801210C4800F024F80B488D
:101D100000F0D0F800BF094800F03DF80028FAD1E3
:101D2000064800F0CCF800BF044800F02AF800286C
:101D3000FAD107B000BD00000010014000240140AE
:101D400021B1826842F00102826003E0826822F0E1
:101D500001028260704721B1826842F48072826021
:101D600003E0826822F480728260704721B1826849
:101D700042F48012826003E0826822F48012826062
:101D80007047014600208A6802F004020AB101206F
:101D900000E000207047014600208A6802F0080237
:101DA0000AB1012000E000207047000030B5024673
:101DB0000020002350680F4C20400D790C6844EA45
:101DC00005242043506090680B4C2040D1E9025418
:101DD0002C434D7944EA450420439060D06A20F4B6
:101DE00070000C7C641EE4B2234340EA0350D062CE
:101DF00030BD0000FFFEF0FFFDF7F1FFF0B5044637
:101E00000D4600200021092D11DDE068A5F10A062C
:101E100006EB4607072606FA07F18843A5F10A06EE
:101E200006EB460603FA06F10843E0600CE0206981
:101E300005EB4507072606FA07F1884305EB45063B
:101E400003FA06F108432061072A0FDA606B561E79
:101E500006EB86071F2606FA07F18843561E06EB97
:101E6000860605FA06F10843606322E00D2A0FDAC0
:101E7000206BD61F06EB86071F2606FA07F188435C
:101E8000D61F06EB860605FA06F10843206310E02C
:101E9000E06AA2F10D0606EB86071F2606FA07F197
:101EA0008843A2F10D0606EB860605FA06F1084303
:101EB000E062F0BD816841F008018160704781688F
:101EC00041F004018160704700BFFEE72DE9F04F4B
:101ED00091B00024A34600215F4800F0EFF80420F1
:101EE00000F0DEF8022000F0DBF800BF08E05B48FD
:101EF00030F8140000045A4941F82400601C84B2F0
:101F0000B4F5806FF3DB4FF4806255495548FEF716
:101F10002DF900F039FA01214F4800F0CFF80224E2
:101F20000FE0514850F8240050490988884206DDE6
:101F30004D4830F824004D4908804D480480601C0D
:101F400084B2B4F5007FECDB494800884FF41041BF
:101F500091FBF0F0474991FBF0F0474908600846D3
:101F6000016846A000F09EFE3F49414A128851F8A0
:101F70002200FFF7D2FBCDE90C013D490988090198
:101F8000394A52F82100FFF7C8FB054600224FF0FE
:101F9000804301F0A9FBCDE9060135490988C90054
:101FA000314A52F82100FFF7B8FB054600224FF0F6
:101FB000804301F099FBCDE902012D490988890090
:101FC000294A52F82100FFF7A8FB074600224FF0EC
:101FD000804301F089FB05460E46254909884900E2
:101FE000214A52F82100FFF798FB074600224FF0E4
:101FF000804301F079FB81462A463346FFF76EFAAB
:10200000CDE90001DDE90223FFF768FACDE904011B
:10201000DDE90623FFF762FACDE9080102F050F886
:10202000CDE90A01DDE90C23FFF7FFFACDE90E0146
:10203000FFF7ABFB83465846FFF794FB07460022A9
:10204000114BFFF7F2FA05462A460B460FA000F0A7
:1020500029FE11B0BDE8F08F0800024028000020E2
:102060002808002028180020282000200600002032
:102070000400002000A24A0400000020467265719E
:102080003A202564200D0A0000005940544844209D
:102090003A20252E3466202525200D0A0000000058
:1020A00000F0805111B10349086001E00249486025
:1020B00070470000040402400000024021B10268A1
:1020C00042F00102026004E002684FF6FE731A401B
:1020D0000260704701684FF6FE72114001600021F6
:1020E000016041608160C1604B49884208D14A4922
:1020F0000839496841F00F01474A083A51608AE0BF
:1021000045491431884208D143490839496841F0AA
:10211000F001414A083A51607DE03F492831884248
:1021200008D13D490839496841F470613A4A083A92
:10213000516070E038493C31884208D1364908394D
:10214000496841F47041344A083A516063E03249C9
:102150005031884208D130490839496841F470212A
:102160002D4A083A516056E02B496431884208D123
:1021700029490839496841F47001274A083A5160F1
:1021800049E025497831884208D12349083949680E
:1021900041F07061204A083A51603CE01F49884292
:1021A00006D1011F096841F00F01021F116032E0E2
:1021B0001A491431884208D11849091F096841F0A9
:1021C000F001164A121F116025E014492831884297
:1021D00008D11249091F096841F470610F4A121FA2
:1021E000116018E00D493C31884208D10B49091FA4
:1021F000096841F47041094A121F11600BE0074958
:102200005031884207D10549091F096841F47021FE
:10221000024A121F11607047080002400804024081
:102220001AB103680B43036002E003688B43036049
:10223000704710B50022026847F6F0739A430C6AA3
:102240008B6823430C6923434C6923438C692343E4
:10225000CC6923434C6A23438C6A23431A430260AC
:10226000CB6843600B6883604B68C36010BD7047E8
:102270002DE9F0410246002500260020002300241D
:10228000002791F803C00CF00F0591F803C00CF083
:10229000100CBCF1000F03D091F802C04CEA050508
:1022A00091F800C0BCF1000F31D0146800202BE081
:1022B0004FF0010C0CFA00F3B1F800C00CEA030671
:1022C0009E4220D183004FF00F0C0CFA03F7BC4361
:1022D00005FA03FC4CEA040491F803C0BCF1280F92
:1022E00006D14FF0010C0CFA00FCC2F814C00AE051
:1022F00091F803C0BCF1480F05D14FF0010C0CFA66
:1023000000FCC2F810C0401C0828D1D31460B1F8FA
:1023100000C0BCF1FF0F34DD546800202EE000F156
:10232000080C4FF0010808FA0CF3B1F800C00CEAF1
:1023300003069E4221D183004FF00F0C0CFA03F7E5
:10234000BC4305FA03FC4CEA040491F803C0BCF159
:10235000280F05D100F1080C08FA0CF8C2F8148017
:1023600091F803C0BCF1480F07D100F1080C4FF001
:10237000010808FA0CF8C2F81080401C0828CED3D7
:102380005460BDE8F08100002DE9F04F89B00024D1
:102390005DE0324830F824000FFA80F92F4850F8F9
:1023A00024004FEA204A4846FFF7AEF980464FF036
:1023B0008941FFF723F807464FF08E41FFF750F8A9
:1023C00005465046FFF7A0F980464FF08941FFF7D8
:1023D00015F807464FF08E41FFF742F806463146A2
:1023E0003046FFF70BF8294602902846FFF706F81B
:1023F00001900299FEF7AAFF0390FFF7B3F9CDE928
:10240000040101F05DFE0022154BCDE90601FFF746
:102410000CF90746FFF7B9F983465CB94FF08E41D6
:102420005846FEF7EBFF0746FFF788F90D4941F8DC
:1024300024000AE04FF08F415846FEF7DFFF0746C1
:10244000FFF77CF9074941F82400601C84B2B4F519
:10245000007F9EDB09B0BDE8F08F00002818002047
:10246000000090402820002000BFFEE700BFFEE7EC
:102470007047000070B5002100230F22C47804B318
:10248000154C246804F4E064C4F5E064210AC1F149
:102490000403CA40447804FA03F1847814402143C9
:1024A00009010E4C0678A155047804F01F0501249B
:1024B000AC4005786D11AD0005F1E025C5F800418F
:1024C00009E0047804F01F050124AC40044D0678AF
:1024D000761145F8264070BD0CED00E000E400E008
:1024E00080E100E002490143024A116070470000A8
:1024F0000000FA050CED00E07047000029B1064A23
:1025000052690243044B5A6104E0034A5269824310
:10251000014B5A61704700000010024029B1064A81
:1025200092690243044B9A6104E0034A9269824330
:10253000014B9A61704700000010024030B5002145
:102540000022002400232D4D6D6805F00C0121B1FF
:10255000042905D0082923D105E0294D056022E092
:10256000274D05601FE0254D6D6805F47012234D61
:102570006D6805F48034022505EB92421CB9214DAB
:10258000554305600BE01D4D6D6805F400351DB128
:102590001C4D5543056002E0194D5543056002E0AE
:1025A000174D056000BF00BF144D6D6805F0F001C8
:1025B0000909154D6B5C0568DD4045600F4D6D6880
:1025C00005F4E061090A104D6B5C4568DD408560EB
:1025D0000A4D6D6805F46051C90A0B4D6B5C456886
:1025E000DD40C560054D6D6805F44041890B074D20
:1025F0006B5CC568B5FBF3F5056130BD00100240AA
:1026000000127A0000093D00080000201800002098
:10261000704710B500F002F810BD00000CB50020A6
:10262000019000903348006840F4803031490860E0
:1026300000BF3048006800F4003000900198401C52
:102640000190009818B90198B0F5A06FF1D1294810
:10265000006800F4003010B10120009001E000207B
:1026600000900098012843D12348006840F01000F2
:10267000214908600846006820F003000860084609
:10268000006840F0020008601A4840681949486034
:102690000846406848600846406840F480604860EA
:1026A0000846406820F47C1048600846406840F4C2
:1026B000E81048600846006840F08070086000BF7D
:1026C0000C48006800F000700028F9D00948406804
:1026D00020F00300074948600846406840F00200C7
:1026E000486000BF0348406800F00C000828F9D19A
:1026F0000CBD00000010024000200240042808D158
:102700004FF0E021096941F004014FF0E02211612E
:1027100007E04FF0E021096921F004014FF0E022C9
:10272000116170477047000010B504466FF0040057
:10273000FFF7E4FFE11704EB5171C1F3C701074A4A
:1027400011701046007800EB4001C1EBC0104FF64D
:10275000FF7101EAC0000249088010BD1C00002082
:102760001E00002010B51348006840F00100114918
:10277000086008464068104908400E49486008460D
:1027800000680E4908400B4908600846006820F4BC
:10279000802008600846406820F4FE0048604FF43E
:1027A0001F008860FFF735FF4FF0006004490860A4
:1027B00010BD0000001002400000FFF8FFFFF6FE11
:1027C00008ED00E000B589B00121C802FFF7A6FEC0
:1027D00001210420FFF7A2FE4FF48070ADF8040041
:1027E00003208DF8060018208DF8070001A917486E
:1027F000FFF73EFD06A800F0E7F82320ADF81C0027
:102800000020ADF81800ADF81E00ADF81A0006A9BA
:102810000F4800F087F86020ADF808000120ADF8FF
:102820000A002020ADF80E000220ADF8100002A929
:10283000074800F02BF80121054800F017F80021A7
:10284000034800F007F809B000BD0000000801408F
:10285000002C014021B1028842F00102028004E014
:1028600002884FF6FE731A400280704731B1B0F80B
:10287000442042F40042A0F8442005E0B0F844208F
:10288000C2F30E02A0F844207047000070B5002487
:1028900000220023058C4FF6FE7635400584028C1D
:1028A0008388048B4FF68F752C40B51E2C400D8805
:1028B0002C43751E2A400D892A434D882A43144D06
:1028C000A8420BD0134DA84208D0134DA84205D002
:1028D000124DA84202D0124DA84213D14FF6F775FF
:1028E0002A404D892A434FF6FB752A408D882A439A
:1028F0004FF6FF652B404FF6FF552B408D892B433C
:10290000CD892B4383800483CD888586028470BD66
:10291000002C0140003401400040014000440140CF
:1029200000480140002202881D4B98420ED01D4BEA
:1029300098420BD0B0F1804F08D01B4B984205D085
:102940001A4B984202D01A4B984204D14FF68F731B
:102950001A404B881A43174B984207D0164B98429F
:1029600004D04FF6FF431A40CB881A4302808B886D
:1029700083850B8803850A4B98420BD0094B9842FC
:1029800008D00E4B984205D00D4B984202D00D4B0B
:10299000984201D10B7A038601238382704700009D
:1029A000002C0140003401400004004000080040B9
:1029B000000C0040001000400014004000400140A6
:1029C00000440140004801404FF6FF718180002122
:1029D0000180C180418001727047000010B540F253
:1029E00025510C4800F096F870B10A4800F04EF9F5
:1029F000C4B22146074800F04EF900BF4021054807
:102A000000F07BF80128F9D14021024800F060F87D
:102A100010BD00000038014010B586B00446012109
:102A20000420FFF77BFD01218803FFF777FD0121DB
:102A30000846FFF773FD4FF40070ADF81400032053
:102A40008DF8160018208DF8170005A91E48FFF70D
:102A50000FFC4FF48060ADF8140004208DF81700CF
:102A600005A91948FFF704FC01940020ADF80800FF
:102A7000ADF80A00ADF80C00ADF810000C20ADF870
:102A80000E0001A9114800F095F801210F4800F04F
:102A900028F840210D4800F01BF8012240F2255192
:102AA0000A4800F061F825208DF8000003208DF819
:102AB00001008DF8020001208DF803006846FFF741
:102AC000D9FC06B010BD00000008014000380140EC
:102AD00001F40072B2F5007F00D100BFCA4302804A
:102AE000704721B1828942F40052828104E08289D8
:102AF0004DF6FF731A408281704702460020B1F5FF
:102B0000007F00D100BF13880B400BB1012000E013
:102B10000020704770B502460024002300250020E5
:102B200040F66A16B14200D100BFC1F3421501F070
:102B30001F03012606FA03F3012D02D196893340C3
:102B400006E0022D02D1168A334001E0968A334016
:102B50000C12012606FA04F41688344013B10CB1A5
:102B6000012000E0002070BDF0B5034600240026DF
:102B70000025002040F66A17B94200D100BF184670
:102B8000C1F3421401F01F06012707FA06F5012CD4
:102B900001D10C3004E0022C01D1103000E01430DF
:102BA0001AB107682F43076002E00768AF43076068
:102BB000F0BD00002DE9F04786B005460E46002422
:102BC000A24600BFA1460027B08900B100BF2F4632
:102BD0002C8A4CF6FF700440F08804432C82AC89A8
:102BE0004EF6F3100440B0883189084371890843D8
:102BF0000443AC81AC8A4FF6FF400440B0890443E3
:102C0000AC8201A8FFF79AFC1F48874202D1DDF889
:102C100010A001E0DDF80CA0A88900F4004040B14C
:102C20000AEBCA0000EB0A1031684900B0FBF1F86A
:102C300007E00AEBCA0000EB0A1031688900B0FB1C
:102C4000F1F86420B8FBF0F004012009642101FBD5
:102C50001089A88900F4004040B1322000EBC9007F
:102C6000B0FBF1F000F00700044308E0322000EB75
:102C700009106421B0FBF1F000F00F0004432C8137
:102C800006B0BDE8F08700000038014001468888A2
:102C9000C0F308007047C1F308028280704700BF8C
:102CA000FEE700000FB4054B10B503A9044A0298D3
:102CB00000F06AF910BC5DF814FB000091360008C2
:102CC00020000020490050EAC12018BF04204A0D0E
:102CD00018BF40F0010040F2FF72B2EB515F08BF35
:102CE00040F00200012808BF052070472DE9F0419F
:102CF0004F1E00EBC7010446D1E9000115461E46F0
:102D000037F006020DD02A463346FEF756FE7F1EE8
:102D100004EBC703D3E90023FEF7E0FB37F006021C
:102D2000F1D1022F25D0042F13D0062F18BFBDE8F4
:102D3000F0812A463346FEF740FED4E90A23FEF727
:102D4000CDFB2A463346FEF738FED4E90823FEF7CA
:102D5000C5FB2A463346FEF730FED4E90623FEF7CC
:102D6000BDFB2A463346FEF728FED4E90423FEF7CE
:102D7000B5FB2A463346FEF720FED4E90223FEF7D0
:102D8000ADFB2A463346FEF718FED4E90023BDE822
:102D9000F041FEF7A3BB0000002213461046014994
:102DA000FEF743BC0000F03FFEF798BB002213463D
:102DB00010461146FEF739BC40F2013200204FF0B8
:102DC000E041FEF76CBE0000024A00201107FEF74A
:102DD00066BE000001FDFFFF02E008C8121F08C127
:102DE000002AFAD170477047002001E001C1121F8C
:102DF000002AFBD1704700000149086070470000BD
:102E0000240000202DE9FF5F82B00021DDE90430BD
:102E1000020DDDF840B0034318D044F61050A2F282
:102E2000FF3242431514119801281FD0A5EB0B0067
:102E3000401C5FEA000A4FF000064E4FDFF8389161
:102E4000B046504615D5CAF1000413E0119801248C
:102E50004AA3012801D16FEA0B010298119AC0E937
:102E60000031C0E9024206B0BDE8F09FCBF100009E
:102E7000DFE704460021404A491842EB0450CDE9FF
:102E8000001012E0E00707D032463B464046494674
:102E9000FEF793FD8046894632463B46104619466A
:102EA000FEF78BFD06460F466410002CEAD1DDE9E3
:102EB0000401DDE90023BAF1000F06DAFEF77DFD1B
:102EC00042464B46FEF779FD05E0FEF7AEFB424673
:102ED0004B46FEF7AAFB04460E460022284BFEF79F
:102EE0005FFE03D84FF0FF30014607E00022254B7C
:102EF00020463146FEF7F2FAFEF739FE102409E0CB
:102F0000002C0ADB0A220023FEF771FC039B3032FF
:102F10001A55641E50EA0102F2D1641C039AC4F1EE
:102F200011031444119A012A03D0012208430DD140
:102F30000AE0084304D000204FF0110B119072E713
:102F4000A3EB0B056D1E0DE05B4504DD4FF00002A9
:102F500005F1010504E003DA4FF00002A5F10105D7
:102F6000002AECD002981199C0E90231C0E900456D
:102F700079E70000000014400000F03F300000003E
:102F80000000F0430000E03F2DE9FF4F95B09A4666
:102F9000884606460025EEE1252877D100242746FD
:102FA000F94A0121039400E0044316F8013F203B55
:102FB00001FA03F01042F7D130782A2811D06FF0CF
:102FC0002F033078A0F13002092A16D8039A44F072
:102FD000020402EB820203EB42021044761C0390CF
:102FE000EFE758F8042B0392002A03DA504244F426
:102FF0000054039044F00204761C30782E2816D139
:1030000016F8010F44F004042A280DD06FF02F02A7
:103010003078A0F13003092B09D807EB870302EBC6
:103020004303C718761CF3E758F8047B761C307806
:103030006C280FD006DC4C2817D068280DD06A28E1
:1030400014D104E0742810D07A280FD10DE044F494
:1030500000140AE044F4801401E044F4401472784F
:10306000824202D104F58014761C761C30786628E2
:103070000BD013DC582877D009DC002875D0452800
:10308000F6D04628F4D047281AD193E118E06328F7
:1030900035D0642879D0652812D18BE1702873D09F
:1030A00008DC6728F1D069286FD06E280DD06F2812
:1030B00006D1ACE073282CD0752874D0782853D072
:1030C0005246179990476D1C54E1C4F302500228F0
:1030D00009D003280DD0D8F8001004280DD00D60B9
:1030E00008F1040846E1D8F80010EA17C1E90052D7
:1030F000F6E7D8F800100D80F2E70D70F0E718F849
:10310000041B8DF8001000208DF80100EB46012013
:1031100003E058F804BB4FF0FF3061074FF00001A7
:1031200002D40DE009F101018946B9420FDA814567
:10313000F8DB1BF809100029F4D108E009F10101BE
:1031400089468142FADB1BF809100029F6D1039861
:103150005346A0EB090721463846179A00F080FA3B
:10316000284400EB090507E044E008E10DE01BF806
:10317000010B524617999047B9F10109F7D253460E
:1031800021463846179AF2E039E00A21C4F3025288
:103190004FF0000B0091022A06D058F8040BC1171B
:1031A000032A09D00AE023E008F1070020F0070213
:1031B000F2E80201904605E000B2C117042A01D1ED
:1031C00040B2C117002906DA0A460021404261EBED
:1031D00002012D2202E0220504D52B228DF80420C5
:1031E000012203E0E20701D02022F7E7914657E0F1
:1031F0000A2100E010214FF0000B00910BE010219C
:103200004FF0000B44F004040827009103E008206D
:103210004FF0000B0090C4F30252022A05D058F878
:10322000040B0021032A08D008E008F1070020F071
:103230000702F2E80201904603E080B2042A00D1BE
:10324000C0B24FF0000922072AD53278702A07D081
:10325000DDF800C08CF0100C5CEA0B0C05D00EE021
:1032600040228DF80420012208E050EA010306D034
:1032700030238DF804308DF8052002229146009B02
:1032800083F0080353EA0B030AD150EA010201D18B
:10329000620705D530228DF804204FF001097F1E0A
:1032A0003278582A04D039A20C920CAA02920BE070
:1032B0003BA2F9E75B46009AFEF799FA0C9B9B5CF0
:1032C000029A521E0292137050EA0102F2D1029841
:1032D00004A9081A00F1200B600702D524F48034F9
:1032E00000E001275F4502DDA7EB0B0000E00020B6
:1032F00000EB0B01009003984944401A0390E0034F
:1033000006D453462146179A039800F0A9F90544BC
:10331000002706E001A85246C05D179990476D1C32
:103320007F1C4F45F6DBE0030CD553462146179A28
:10333000039800F095F9054404E0302052461799AF
:1033400090476D1C0099481E00900029F5DC08E0AC
:103350000298029952460078491C029117999047A9
:103360006D1CBBF10001ABF1010BF1DC5BE100F086
:1033700065F90544761C307800287FF40DAE19B04D
:103380002846BDE8F08F00000928010030313233B3
:103390003435363738396162636465660000000091
:1033A000303132333435363738394142434445467B
:1033B00000000000600700D4062708F1070020F095
:1033C0000700F0E80223804603F0004C5FEA0C009F
:1033D00001D097A009E0200501D596A005E0E007FF
:1033E00001D095A001E0AFF24C001390307823F0AB
:1033F000004365280CD006DC452809D046281DD09E
:1034000047287FD13BE0662818D067287AD136E07C
:103410000021112F01DB112000E0781CCDE9000113
:1034200004A90CA8FFF7EEFCDDE90D010C9A4FF0A2
:10343000000B07F10109109200914EE04FF000409F
:103440000097CDE9011004A90CA8FFF7DBFCDDE92A
:103450000D020C9B0F994FF0000B914610930092B8
:1034600011B9791C00EB0109B7EB090003D4C0F1D5
:10347000FF3B07F10109A9EB0700019042E0012F92
:1034800000DA01270021112F01DD112000E038466C
:10349000CDE9000104A90CA8FFF7B4FCDDE90D019A
:1034A0000C9A00914FF0000BB946109221070FD4EF
:1034B000009A4A4503DA914601E0A9F10109B9F100
:1034C000010F05DD109AA9F10101515C3029F4D0FA
:1034D000B84202DA10F1040F03DA0121CDE901103C
:1034E00010E0002803DC8344A9EB000102E0411C4A
:1034F000494500DD8946A0EB0B00401C01904FF0D0
:1035000000400290200705D40198484502DB4FF0A7
:10351000FF30019000208DF84B0002980DF14B0711
:10352000B0F1004F25D002200C902B200D90029876
:1035300000280CDA404202902D200D9007E00A216D
:103540000298FEF73EF93031029007F8011D0C9900
:10355000481E0C900029F2DC02980028EFD1791E59
:103560000D980870307800F0200040F0450007F812
:10357000020D11A8C01BC01D02901398007800B165
:10358000012000EB0901019801EBE0710298014470
:103590000398401A401E0390E00306D45346214688
:1035A000179A039800F05CF805441398007818B156
:1035B0005246179990476D1CE00323D55346214688
:1035C000179A039800F04CF805441BE0BBF1000F7C
:1035D00007DB0098584504DD1098179910F80B0088
:1035E00001E0179930205246904701980BF1010BEA
:1035F000401E05F10105019004D12E205246179975
:1036000090476D1CB9F10001A9F10109DEDC05E06C
:1036100017F8010B5246179990476D1C0299481EE6
:1036200002900029F4DC53462146179A03989EE63F
:103630002D0000002B000000200000002DE9F041CB
:10364000044600251E461746880404D405E0394682
:103650002020B0476D1C641EF9D52846BDE8F081D6
:103660002DE9F041044600251E469046C80301D5C9
:10367000302700E02027880404D505E0414638467D
:10368000B0476D1C641EF9D52846BDE8F0810000E6
:1036900070B504460D46E1B20548FFF7FCFA00BFDD
:1036A00080210348FFF729FA0028F9D0204670BD91
:1036B000003801404820FFF737F84FF4A060FEF7CC
:1036C00011FF4FF4E130FFF7A7F9FFF77BF8FEF7A2
:1036D000A1FAFEF7E7FA01210248FFF7BBF800BFA5
:1036E000FEE70000002C01402DE9F04D1D460C4680
:1036F00098B0174621F0004123F00043002814BF82
:103700004FF0010C4FF0000C0CEB440CFE4A0CEB9C
:1037100002064FEA620C66452BD33E0018BF012615
:1037200006EB45061644F94A964222D3F84A53EA74
:10373000070C02D0944205D148B918B000201146B8
:10374000BDE8F08D002808BF4FF0000C01D04FF00D
:10375000010C0CEB440212F5001F0AD8002F14BF15
:103760004FF0010C4FF0000C0CEB450212F5001F5E
:1037700007D918B03A462B462146BDE8F04DFFF771
:1037800013BB0022DFF88CA3002CB8BF534526DA08
:10379000DFF884C36345A8BF022220DADFF870C3D4
:1037A0009C451CDCDFF874C30CEB235CBCF1140FEC
:1037B00008DDCCF1340627FA06FC0CFA06F6BE4208
:1037C0000DD108E05FB9CCF1140623FA06FC0CFA1F
:1037D00006F69E4203D10CF00102C2F1020251EA48
:1037E000000C19D1002D17DA002C18BF022A01D0C5
:1037F000012A07D00220FFF7FFFA18B0BDE8F04D0C
:10380000FFF7CABA0220FFF7F7FAFFF7C5FA18B0B8
:1038100081F00041BDE8F08DB7F1000C6CD153454B
:1038200025D104F1804212F5801201BF002800204A
:10383000B74918B008BFBDE8F08DB548884207DC2D
:10384000002DA1BF6046294618B0BDE8F08D07E005
:10385000281E05DA80F0004118B06046BDE8F08D02
:10386000AF497944D1E9000118B0BDE8F08DDFF827
:10387000A0C2634525D1002D1FDA19B1514512D1DF
:10388000D8B909E0002840F0EC82A24A214618B0DD
:1038900062F31E01BDE8F08D0020214618B060F3F0
:1038A0001E01BDE8F08D08DA18B02346BDE8F04DE2
:1038B000024600206146FDF7B8BE18B02146BDE8BB
:1038C000F08D514518DAB5F1804F0DD0A5F1005CAF
:1038D000BCF1FF5C10D1B4F1000C0DDB18B06146F7
:1038E000BDE8F04D00F0ECBB234618B00246BDE841
:1038F000F04D1946FEF761B8060024F0004C3BD1AC
:10390000D9B1514533D1002C06DD002DA1BF0020D7
:10391000514618B0BDE8F08D002C01DD002D1BDBF9
:10392000002C13DA002D11DB012A4FF0000014BF28
:1039300078497C4918B0BDE8F08D022A18BF002CE8
:103940000AD0012A08D1002C06DA0AE0002CB8BF00
:10395000002D11DA012A04D0002018B00146BDE87C
:10396000F08D18B000204FF00041BDE8F08DA1F1BE
:103970004050B0F17F601AD0012000EBE47050EAB3
:10398000020421D0624C521E4FF0000B104304BFC2
:103990004FF0000B644C654883427CDD644A654807
:1039A00093421FDD884217DB002D25DB37E0002C1A
:1039B00000DA4AB1022A0CBF01204FF0FF3018B0E4
:1039C000BDE8F04DFDF7A9BE0120FFF715FA18B0CC
:1039D000BDE8F04DFFF7EAB94D4A8A4202DC002DFE
:1039E0000ADC1CE0814202DA002D18DA04E0484BC0
:1039F000994220DD002D12DD0220FFF7FDF9FFF7CF
:103A0000DBF905460E460022534658462146FDF78F
:103A1000D4FF18B066F31E012846BDE8F08D0220E1
:103A2000FFF7EAF9FFF7D0F90A46214618B062F32A
:103A30001E01BDE8F08D002230466146FDF7EFFD26
:103A400080460E466FF00102FEF729F84FF055321E
:103A5000394BFDF7E7FD42463346FDF7AEFF002246
:103A6000364BFDF7DFFD8246424633460491104651
:103A70001946FDF7A2FF5246049BFDF79EFF8A46BA
:103A800000904FF0C0422E4B40463146FDF795FF67
:103A90002C4A2B4B00E027E0CDE906015146009867
:103AA000FDF78BFF82460191274A284B404631465D
:103AB000FDF783FF5246019BFDF7B1FD82460B46A1
:103AC00002460591DDE90601FDF708FDDDE9062363
:103AD000002688463046FDF7A2FD5246059BFDF7BD
:103AE000A1FD024600F07EB90020B1F5801F07DA83
:103AF000352230466146FDF7D2FF06466FF03400AE
:103B000000EB215024E00000FFFF1F00FFFF0F002B
:103B10000000F03F0000F07F0000404301FCFFFF89
:103B2000320900000000F0FF0000F0BF0000E0419B
:103B30000000F043FFFFEF3F5555D53F0000E03F49
:103B40004715F73FFE822B6544DF5DF80BAE543E10
:103B5000A0F2FF300190C1F3130040F07F6141F00B
:103B600040510291FE498842D8BF002004DDFD4942
:103B70008142C8BF012001DD0D9008E000200D90BA
:103B80000198401C01900298A0F5801002900299C3
:103B9000F54878440B910D9900EBC100D0E9002362
:103BA0000F9330460A920B99FDF739FDCDE90601D6
:103BB000DDE90A2130460F9BFDF790FC02460B46DB
:103BC0000020EA49FDF731FD059102460B460090C1
:103BD000DDE90601FDF7F1FE1490E5488A464FF055
:103BE000000878440299006812904FF0005040EAB3
:103BF00061010D980F9B01EB804000F500210991B8
:103C00000A9A1298FDF70BFD32460B9BFDF70AFD51
:103C100042465346FDF7D1FE0646029140465146C4
:103C2000099B129AFDF7C9FEDDE90623FDF7FAFCB0
:103C30003246029BFDF7F3FC059B009AFDF7BDFEA3
:103C40000091149A0490534610461946FDF7B5FEAC
:103C500006460246C7480B46029106217844FFF704
:103C600045F8CDE90510029B324610461946FDF78E
:103C7000A4FEDDE90532FDF7A0FE05910646534698
:103C800040461946149AFDF729FC009B049AFDF75B
:103C900094FE3246059BFDF721FCCDE90510424616
:103CA000534610461946FDF788FE0022B24B02919A
:103CB0000A90FDF713FCDDE90532FDF70FFC0E4617
:103CC0004246AD4B4046FDF7AAFC029B0A9AFDF71F
:103CD000A6FCDDE90532FDF7A5FC424602910A90FB
:103CE000334610465146FDF768FECDE906015346BE
:103CF000149A02990A98FDF760FE8A4602903346AC
:103D0000424600990498FDF758FE5346029AFDF783
:103D1000E5FB82460B4602460591DDE90601FDF70B
:103D2000DDFBDDE90623002088460646FDF777FC2B
:103D30005246059BFDF776FC824609914FF06042A2
:103D40008E4B30464146FDF738FE049006918C4A72
:103D50008A4B50460999FDF730FE82460291894A06
:103D6000894B30464146FDF728FE5246029BFDF73F
:103D7000B5FB864B7B440D9A03EBC203D3E90023CA
:103D8000FDF7ACFB0E9007910198FDF7C6FC05917D
:103D9000DDE9061382460E9A0498FDF79FFB7C4AE4
:103DA0007A440D9B02EBC303D3E9002300930292F4
:103DB000FDF794FB5246059BFDF790FB00268846D5
:103DC00052463046059BFDF72AFC009B029AFDF700
:103DD00026FC069B049AFDF722FC079B0E9AFDF732
:103DE00021FC024600200B46029038462946FDF78A
:103DF000E4FD824601912B4638461946029AFDF7AA
:103E00000EFC32464346FDF7D8FD5246019BFDF7B6
:103E100065FB07468A463246434629460298FDF727
:103E2000CCFD05460E463A465346FDF757FB594A28
:103E30008846914221DBA8EB020353EA000210D12D
:103E40002A463346FDF7EBFBCDE90401524A534BBA
:103E500038465146FDF742FBDDE90423FDF7A0FE9D
:103E600021D20220FEF7C8FFFEF7A6FF0A46214630
:103E700018B062F31E01BDE8F08D494B28F00042F6
:103E80009A4210D3474A08EB020353EA00027FF438
:103E9000C6AD2A463346FDF7C2FB3A465346FDF708
:103EA0007FFE7FF6BCAD0022019228F000403E4923
:103EB0003E4A01EB2051824223DA481C4FF4801124
:103EC00021FA00F040443A4AC0F30A517A44394B8F
:103ED000A1F2FF31CB4020EA0303C0F3130040F40A
:103EE0008010C1F11401C84012680190B8F1000FB0
:103EF000BCBF4042019028463146FDF790FB054685
:103F00000E462A46334638465146FDF7E7FA4FF04B
:103F100000084246284B40460591FDF74EFDCDE98D
:103F20000601264A264B40460599FDF746FD0091BD
:103F300002902A46334640460599FDF770FB3A4603
:103F40005346FDF76FFB1F4A1F4BFDF736FD009BE5
:103F5000029AFDF7C3FA0746884602460B4635E04B
:103F60008E9803007AB60B007A0500000000F03F3F
:103F7000B2050000E00400000000084009C7EE3F61
:103F8000FD033ADCF5015B14E02F3EBEB8030000F0
:103F90007C03000000009040FE822B654715973C93
:103FA00000CC904000346F3F01FCFFFF0000E03F79
:103FB000C8020000FFFF0F00432EE63F396CA80C3B
:103FC000615C20BEEF39FAFE422EE63FDDE90601D4
:103FD000FDF784FADDE9062305460E46FDF71FFBD3
:103FE0003A464346FDF71EFB0F462A4633460090ED
:103FF00010461946FDF7E1FC824602462E488846E7
:104000000B4605217844FEF771FE52464346FDF704
:10401000D4FC2A463346FDF705FB80468A463B46DC
:1040200028463146009AFDF7C8FC3B46009AFDF74A
:1040300055FA0691009000224FF0804340465146C9
:10404000FDF7EDFA0F460C9042465346284631469E
:10405000FDF7B3FC3B460C9AFDF7E7FA069B009A86
:10406000FDF7DDFA2A463346FDF7D9FA0022134B55
:10407000FDF7D8FA054601980E4601EB00510815E8
:10408000002810DC28463146019AFDF708FDFEF7AE
:1040900019FE042808BFFEF797FE28463146019A0C
:1040A000FDF7FDFC05460B4618B02A46584621464A
:1040B000BDE8F04DFDF781BC680100000000F03F55
:1040C0002DE9F04106460F46FDF700FD041E0D46A2
:1040D00018BF0120284320F00040C0F17F6000F1AC
:1040E000E040C00F0ED0301C18BF0120384320F034
:1040F0000040C0F17F6000F1E040C00F04BF01202C
:10410000FEF77AFE20462946BDE8F0810000000057
:10411000000000000000F03F000000000000F83F39
:1041200000000000000000000000004003B8E23F73
:10413000000000000000000006D0CF43EBFD4C3E25
:10414000033333333333E33FFFAB6FDBB66DDB3F1A
:104150004D268F515555D53F01411DA96074D13F62
:1041600065DBC9934A86CD3FEF4E454A287ECA3F5C
:104170003E5555555555C53F93BDBE166CC166BFDE
:104180002CDE25AF6A56113FF16BD2C541BDBBBED7
:10419000D0A4BE726937663E000000000000000037
:1041A000C04100080000002028000000D82D0008B1
:1041B000E841000828000020002C0000E82D00083D
:1041C00000000000000000000000000001020304E5
:1041D00001020304060708090204060800000000A3
:0841E0000000000000000000D7
:0400000508000131BD
:00000001FF
