:020000040800F2
:10000000482D002049010008FD230008F5230008C1
:10001000F9230008951F0008572C00080000000075
:10002000000000000000000000000000BD250008E6
:10003000C72100080000000085240008D126000820
:100040006301000863010008630100086301000800
:1000500063010008630100086301000863010008F0
:10006000630100086301000863010008991F00088C
:1000700063010008630100086301000863010008D0
:1000800063010008630100086301000863010008C0
:1000900063010008630100086301000863010008B0
:1000A00063010008630100086301000863010008A0
:1000B0006301000863010008630100086301000890
:1000C0006301000863010008630100086301000880
:1000D0006301000895290008630100086301000816
:1000E0006301000863010008630100086301000860
:1000F0006301000863010008630100086301000850
:10010000630100086301000863010008630100083F
:10011000630100086301000863010008630100082F
:10012000630100086301000863010008630100081F
:10013000DFF810D001F06EFD00480047A53500083B
:10014000AFF30080482D002006488047064800474E
:10015000FEE7FEE7FEE7FEE7FEE7FEE7FEE7FEE777
:10016000FEE7FEE711270008310100082DE9F04FF6
:100170004FF0000C4FF0000301EB9C5EBEF9025003
:10018000BEF900400EF5806EBEF90290BEF9008007
:100190000EF5806EBEF90270BEF900600EF5806E3D
:1001A000BEF902B0BEF900A00EF5806ED044D9446D
:1001B000A8EB4A0AA9EB4B0B4FEAA4044FEAA505AA
:1001C00004EBA60405EBA705A4EB6606A5EB670701
:1001D00004EBA80405EBA905A4EB6808A5EB6909E5
:1001E00006EBAB06A7EBAA07A6EB6B0B07EB6A0ABD
:1001F000458020F8044B478020F8046BA0F802905B
:1002000020F8048BA0F802A020F804BB03F101033E
:1002100093FAA3FCB3F5807FAED1A0EB82014FF03F
:10022000100312090FF2341000F1000006B403EBC2
:10023000430C6144A2F5803202EB8332B1F90250E3
:10024000B1F90040A1EB0301B0F902B0B0F900A090
:1002500000F10400A5EB040E0EFB0BFC0AEB4B0EA9
:1002600005FB0ACB04FB0ECAB1F90250B1F90040FC
:10027000A1EB0301B0F90290B0F9008000F1040095
:10028000A5EB040E0EFB09FC08EB490E05FB08C9A3
:1002900004FB0EC8B1F90250B1F90040A1EB030113
:1002A000B0F90270B0F9006000F10400A5EB040E93
:1002B0000EFB07FC06EB470E05FB06C704FB0EC64C
:1002C000B1F90250B1F9004001F10001D044D94424
:1002D000A8EB4A0AA9EB4B0B4FEAA4044FEAA50589
:1002E00004EB264405EB2745A4EBE636A5EBE73700
:1002F00004EB284405EB2945A4EBE838A5EBE939E4
:1003000006EB2B46A7EB2A47A6EBEB3B07EBEA3ABB
:100310004D800C8019444F800E801944A1F8029042
:10032000A1F800801944A1F802A021F804BBB2F59D
:10033000803283DA03EB430C6144A2F101025FEAED
:10034000024E18BFA0EB0C007FF476AF06BC4FEA5C
:10035000830392087FF46AAFBDE8F08F004000008D
:1003600000400000004000005DDD213BA3227E181C
:100370000000412D7EA5412D0000412D00C0004010
:100380005DDD82E75DDD213B7EA5412D0040000063
:100390000040000000400000AA2A94126B39460673
:1003A00049327C0CA8118E2349327C0CA3227E1882
:1003B00021F77931AA2A9412A8118E235DDD213B01
:1003C000A3227E180000412D95C6B13F461A2B1E70
:1003D00058EE3735BEB4C53EA8118E235DDD213BF6
:1003E00063A97138DF089A28B7CDC53E7EA5412D97
:1003F0000000412D00C0004063A92B1E21F7793178
:10040000BEB4C53EBEB47C0C58EE373561AC213B62
:1004100095C6BAF9BAE571383BA737355DDD82E795
:100420005DDD213B7EA5412D21F766D756D53F3DA9
:100430003BA78E23A811C9CAB7CDC53E61AC7E18B3
:10044000AA2AC1C295C6B13FBEB47C0C00400000D0
:1004500000400000004000001E3BB504693E9201D0
:10046000C83C2403EB356409C83C24036B394606B9
:100470006C30060E1E3BB504EB356409AA2A9412B3
:100480006B39460649327C0CAE240917AF37D607C4
:10049000882E8D0F7E1E5D1BEB356409AA2A9412EF
:1004A00024188C1F1E34F10AB3269015A8118E2330
:1004B00049327C0CA3227E18140B60276C30060E88
:1004C0007E1E5D1B7104FB2A882E8D0F461A2B1E83
:1004D000C7FD5A2E9D2C1211FE15E72021F7793108
:1004E000AA2A9412A8118E2387F05334B228131429
:1004F000480D202602EAE536B3269015DF089A2833
:100500009CE32B39AE2409177104FB2A5DDD213BE6
:10051000A3227E180000412D4ED7C53C9320EF1931
:100520008FFB6C2F78D1153E7E1E5D1B21F7793134
:10053000E2CB0F3F641CC61CB8F2683395C6B13FCE
:10054000461A2B1E58EE373597C1FB3F24188C1FD7
:1005500002EAE536F0BCEC3FFE15E720BAE571385B
:10056000A6B8853FD5133D2282E1DB39BEB4C53E36
:10057000A8118E235DDD213B40B1AF3D790FDA2418
:100580004DD9423C2EAE423C480D202656D53F3D2B
:100590008EAB823A140B602778D1153E63A971386F
:1005A000DF089A28B7CDC53EB1A71236A906CE29D5
:1005B00015CA4F3F78A668337104FB2A95C6B13F30
:1005C000BCA576303902212C38C3EC3F7EA5412DE5
:1005D0000000412D00C00040BCA5CE29C7FD5A2E09
:1005E000F0BCEC3F78A620268FFB6C2F09BAB13FF8
:1005F000B1A73D2257F976304DB74F3F63A92B1E67
:1006000021F77931BEB4C53E8EABEF19ECF47432EC
:100610005EB2153E2EAE9015B8F268332DB03F3D58
:1006200040B1121187F053342EAE423CBEB47C0C64
:1006300058EE373561AC213BA6B8D6072BEC123605
:10064000C8AADB39F0BC240302EAE53663A9713895
:1006500097C16EFEDCE7B03734A8E53695C6BAF927
:10066000BAE571383BA73735E2CB0FF59CE32B3960
:1006700078A6683378D173F082E1DB39EDA5793162
:100680004ED7EDEB6DDF823A99A56C2F5DDD82E7E9
:100690005DDD213B7EA5412D9CE33AE352DBB63B79
:1006A00099A5FB2A02EA19DF4DD9423CEDA59A280B
:1006B00087F026DB4ED7C53C78A6202621F766D7E3
:1006C00056D53F3D3BA78E23C7FDDFD363D3AF3D58
:1006D00034A8E720710494D078D1153E63A92B1E6D
:1006E000140B8CCD94CF723EC8AA5D1BA811C9CA49
:1006F000B7CDC53E61AC7E18241850C8E2CB0F3F81
:100700002EAE90157E1E25C615CA4F3F2DB09412F1
:10071000AE244AC451C8853F5EB28D0FAA2AC1C219
:1007200095C6B13FBEB47C0C6C308EC1E2C4D43FE0
:100730004DB76409EB35B1C038C3EC3F09BA460682
:100740001E3B2CC097C1FB3FF0BC240300400000BF
:100750000040000000400000D03E2E019B3F65009D
:10076000363FC9009A3D5B02363FC900693E92019F
:100770005F3C8803D03E2E019A3D5B021E3BB504D0
:10078000693E9201C83C2403D939E205023EF701D3
:10079000F43BED038E380E079A3D5B021E3BB50419
:1007A0003F373908313DC002463A7E05EB356409D2
:1007B000C83C24036B39460692348E0A5F3C88039A
:1007C0008E380E073433B70BF43BED03AF37D60743
:1007D000D231DF0C8A3B5104CE369D086C30060EB8
:1007E0001E3BB504EB356409022F2B0FB23A1A05F4
:1007F00005352B0A932D5010463A7E051E34F10A1A
:10080000212C7311D939E2053433B70BAA2A94127B
:100810006B39460649327C0C3129B413FD38AA06DF
:100820005B31410DB327D2148E380E076C30060EA3
:100830003226EE151F3872077B2FCA0EAE24091719
:10084000AF37D607882E8D0F262321183F3739085A
:10085000932D50109C213719CE369D089D2C1211D6
:100860000E204B1A5D360109A42BD3117E1E5D1B91
:10087000EB356409AA2A9412EB1C6C1C7835C70965
:10088000AF295413561B791D05352B0AB2281314B2
:10089000BE19841E92348E0AB327D21424188C1FDA
:1008A0001E34F10AB326901588169120A933540BF3
:1008B000B1254C16EA1493213433B70BAE24091733
:1008C0004A139222BF321A0CA923C417A8118E23EF
:1008D00049327C0CA3227E1805108824D231DF0C0B
:1008E0009C213719610E7E255B31410D9320EF1954
:1008F000BB0C7126E430A40D891FA71A140B6027C6
:100900006C30060E7E1E5D1B6D094C28F42F680EA0
:10091000721D121CC40735297B2FCA0E641CC61C0D
:100920001B061A2A022F2B0F561B791D7104FB2A56
:10093000882E8D0F461A2B1EC702D82B0E2EEE0FB7
:100940003519DC1E1C01B22C932D501024188C1F5D
:1009500072FF882D182DB11011173A20C7FD5A2E9D
:100960009D2C1211FE15E7201DFC282F212C731140
:10097000EA14932173FAF22FA42BD311D5133D223D
:10098000CAF8B830282B3412BF12E72221F7793188
:10099000AA2A9412A8118E2379F536322D2AF41240
:1009A00091103524D2F3EF32AF295413790FDA24A2
:1009B0002CF2A3333129B413610E7E2587F0533412
:1009C000B2281314480D2026E3EEFF3433287314A5
:1009D0002E0CC12641EDA535B327D214140B602788
:1009E000A1EB483633273115FA09FE2702EAE5362E
:1009F000B3269015DF089A2865E87E373226EE1573
:100A0000C4073529CBE61238B1254C16A906CE29E4
:100A100032E5A1382F25AB168D05652A9CE32B39CD
:100A2000AE2409177104FB2A08E2B0392B2466179B
:100A300055038F2B77E0303AA923C4173902212CB4
:100A4000E9DEAB3A262321181C01B22C5DDD213BE7
:100A5000A3227E180000412DD5DB923B1F22DB181C
:100A6000E4FECF2D4FDAFD3B9C213719C7FD5A2EEE
:100A7000CDD8643C17219319ABFCE42E4ED7C53C6E
:100A80009320EF198FFB6C2FD3D5213D0E204B1AED
:100A900073FAF22F5CD4783D891FA71A57F9763084
:100AA000E8D2C93D041F021B3CF8F93078D1153E4D
:100AB0007E1E5D1B21F779310CD05C3EF81DB81B02
:100AC00006F6F831A5CE9D3E721D121CECF4743270
:100AD00041CDD83EEB1C6C1CD2F3EF32E2CB0F3F82
:100AE000641CC61CB8F2683388CA403FDD1B201D59
:100AF0009FF1DF3332C96B3F561B791D87F05334AA
:100B0000E1C7913FCE1AD31D6FEFC63495C6B13FF2
:100B1000461A2B1E58EE37354EC5CC3FBE19841EE3
:100B200041EDA5350CC4E13F3519DC1E2BEC123626
:100B3000CFC2F13FAD18341F16EB7D3697C1FB3F96
:100B400024188C1F02EAE53665C000409B17E31F9E
:100B5000EFE84B3738BFFF3F11173A20DCE7B037DB
:100B600011BEF83F88169120CBE61238F0BCEC3F5E
:100B7000FE15E720BAE57138D4BBDB3F74153D2183
:100B8000AAE4CF38BFBAC43FEA1493219CE32B39BF
:100B9000AFB9A73F5F14E8218EE28439A6B8853F3C
:100BA000D5133D2282E1DB39A2B75D3F4A13922281
:100BB00077E0303AA5B6303FBF12E7226DDF823AC8
:100BC000AFB5FD3E34123B2364DED33ABEB4C53E1E
:100BD000A8118E235DDD213BD5B3883E1D11E22394
:100BE00057DC6D3BF2B2453E9110352452DBB63BEB
:100BF00015B2FC3D051088244FDAFD3B40B1AF3DF6
:100C0000790FDA244DD9423C71B05B3DED0E2C25B5
:100C10004DD8853CA9AF033D610E7E254ED7C53C1E
:100C2000E8AEA53CD40DCF2551D6033D2EAE423CB7
:100C3000480D202656D53F3D7BADDA3BBB0C7126D7
:100C40005CD4783DD0AC6D3B2E0CC12663D3AF3D58
:100C50002BACFA3AA10B11276DD2E33D8EAB823A51
:100C6000140B602778D1153EF8AA063A870AAF27F9
:100C700085D0453E6AAA8439FA09FE2794CF723E90
:100C8000E3A9FD386D094C28A5CE9D3E63A97138B6
:100C9000DF089A28B7CDC53EEBA8E1375208E72810
:100CA000CCCCEB3E7BA84B37C4073529E2CB0F3FBA
:100CB00012A8B13636078129FBCA303FB1A71236D8
:100CC000A906CE2915CA4F3F57A76E351B061A2A0B
:100CD00032C96B3F05A7C6348D05652A51C8853FCB
:100CE000BBA61934FF04B02A72C79C3F78A66833AC
:100CF0007104FB2A95C6B13F3EA6B232E303452BF1
:100D0000BAC5C43F0BA6F83155038F2BE2C4D43FBC
:100D1000E0A53931C702D82B0CC4E13FBCA5763021
:100D20003902212C38C3EC3FA1A5AF2FAA016A2CB0
:100D300066C2F53F8DA5E42E1C01B22C97C1FB3F86
:100D400081A5152E8E00FA2CCAC0FF3F7EA5412D2D
:100D50000000412D00C0004081A56A2C72FF882D43
:100D600038BFFF3F8DA58F2BE4FECF2D73BEFB3F19
:100D7000A1A5B02A56FE152EB0BDF53FBCA5CE29C3
:100D8000C7FD5A2EF0BCEC3FE0A5E72839FD9F2EA9
:100D900032BCE13F0BA6FE27ABFCE42E77BBD43F71
:100DA0003EA611271DFC282FBFBAC43F78A62026D7
:100DB0008FFB6C2F09BAB13FBBA62C2501FBAF2FCF
:100DC00056B99C3F05A7352473FAF22FA6B8853F84
:100DD00057A73B23E5F93430F8B76B3FB1A73D2265
:100DE00057F976304DB74F3F12A83D21CAF8B830B9
:100DF000A5B6303F7BA83A203CF8F93000B60F3F4B
:100E0000EBA8341FAEF739315EB5EB3E63A92B1E5C
:100E100021F77931BEB4C53EE3A9201D93F6B9315F
:100E200022B49D3E6AAA121C06F6F83188B3723EBF
:100E3000F8AA021B79F53632F2B2453E8EABEF19B5
:100E4000ECF474325EB2153E2BACDB185FF4B232B8
:100E5000CDB1E33DD0ACC417D2F3EF3240B1AF3DDA
:100E60007BADAB1645F32C33B5B0783D2EAE901567
:100E7000B8F268332DB03F3DE8AE73142CF2A333C3
:100E8000A9AF033DA9AF54139FF1DF3328AFC53C91
:100E900071B0341213F11934A9AE853C40B112116E
:100EA00087F053342EAE423C15B2EE0FFBEF8D347B
:100EB000B6ADFD3BF2B2CA0E6FEFC63441ADB63BE4
:100EC000D5B3A40DE3EEFF34D0AC6D3BBEB47C0CC7
:100ED00058EE373561AC213BAFB5540BCCED6E35D8
:100EE000F6ABD33AA5B62B0A41EDA5358EAB823AC7
:100EF000A2B70109B6ECDC3529AB303AA6B8D60763
:100F00002BEC1236C8AADB39AFB9AA06A1EB4836DA
:100F10006AAA8439BFBA7E0516EB7D360FAA2B3933
:100F2000D4BB51048CEAB136B7A9CF38F0BC240346
:100F300002EAE53663A9713811BEF70178E918377E
:100F400012A9123838BFC900EFE84B37C5A8B0372F
:100F500065C09BFF65E87E377BA84B3797C16EFE67
:100F6000DCE7B03734A8E536CFC240FD53E7E137C0
:100F7000F1A77D360CC413FCCBE61238B1A71236AC
:100F80004EC5E6FA42E6423874A7A53595C6BAF9C9
:100F9000BAE571383BA73735E1C78EF832E5A1389D
:100FA00005A7C63432C963F7AAE4CF38D3A65334B1
:100FB00088CA39F623E4FD38A4A6DF33E2CB0FF567
:100FC0009CE32B3978A6683341CDE6F315E3583915
:100FD00050A6EF32A5CEBFF28EE284392CA6743231
:100FE0000CD098F108E2B0390BA6F83178D173F043
:100FF00082E1DB39EDA57931E8D24FEFFCE0063A2A
:10100000D3A5F9305CD42DEE77E0303ABCA576302C
:10101000D3D50CEDF2DF593AA9A5F22F4ED7EDEB5F
:101020006DDF823A99A56C2FCDD8CFEAE9DEAB3AD5
:101030008DA5E42E4FDAB4E964DED33A85A55A2EA5
:10104000D5DB9AE8E1DDFA3A7FA5CF2D5DDD82E7B9
:101050005DDD213B7EA5412DE9DE6DE6DADC473B17
:101060007FA5B22C77E059E557DC6D3B85A5212C97
:1010700008E248E4D5DB923B8DA58F2B9CE33AE355
:1010800052DBB63B99A5FB2A32E52DE2D1DADA3BF9
:10109000A9A5652ACBE624E14FDAFD3BBCA5CE2904
:1010A00065E81DE0CED9203CD3A5352902EA19DF39
:1010B0004DD9423CEDA59A28A1EB18DECDD8643C71
:1010C0000BA6FE2741ED19DD4DD8853C2CA66027E7
:1010D000E3EE1EDCCDD7A53C50A6C12687F026DB6B
:1010E0004ED7C53C78A620262CF231DACFD6E43C88
:1010F000A4A67E25D2F33FD951D6033DD3A6DA2448
:1011000079F551D8D3D5213D05A7352421F766D7E8
:1011100056D53F3D3BA78E23CAF87FD6D8D45B3D3A
:1011200074A7E72273FA9BD55CD4783DB1A73D2222
:101130001DFCBBD4DFD3933DF1A79321C7FDDFD3C3
:1011400063D3AF3D34A8E72072FF06D3E8D2C93D90
:101150007BA83A201C0131D26DD2E33DC5A88C1F7B
:10116000C70261D1F2D1FC3D12A9DC1E710494D0FA
:1011700078D1153E63A92B1E1B06CCCFFED02D3E89
:10118000B7A9791DC40707CF85D0453E0FAAC61C55
:101190006D0947CE0CD05C3E6AAA121C140B8CCD94
:1011A00094CF723EC8AA5D1BBB0CD4CC1CCF883E2A
:1011B00029ABA71A610E21CCA5CE9D3E8EABEF19AF
:1011C000051073CB2ECEB13EF6AB3719A811C9CAA4
:1011D000B7CDC53E61AC7E184A1324CA41CDD83E76
:1011E000D0ACC417EA1483C9CCCCEB3E41AD09178F
:1011F0008816E8C857CCFD3EB6AD4C16241850C82A
:10120000E2CB0F3F2EAE9015BE19BEC76ECB203F6E
:10121000A9AED214561B31C7FBCA303F28AF1314F6
:10122000EB1CA8C688CA403FA9AF54137E1E25C632
:1012300015CA4F3F2DB094120E20A7C5A3C95D3F1C
:10124000B5B0D3119C212DC532C96B3F40B11211ED
:101250002623B9C4C1C8783FCDB15010AE244AC4CA
:1012600051C8853F5EB28D0F3226E0C3E1C7913F82
:10127000F2B2CA0EB3277BC372C79C3F88B3060E77
:1012800031291CC303C7A73F22B4410DAA2AC1C2FA
:1012900095C6B13FBEB47C0C212C6DC227C6BB3FA6
:1012A0005EB5B70B932D1DC2BAC5C43F00B6F10A97
:1012B000022FD3C14EC5CC3FA5B62B0A6C308EC1D0
:1012C000E2C4D43F4DB76409D2314FC176C4DB3F8D
:1012D000F8B79D08343315C10CC4E13FA6B8D60752
:1012E0009234E0C0A1C3E73F56B90E07EB35B1C059
:1012F00038C3EC3F09BA46063F3788C0CFC2F13F3A
:10130000BFBA7E058E3864C066C2F53F77BBB504B0
:10131000D93945C0FEC1F83F32BCED031E3B2CC09D
:1013200097C1FB3FF0BC24035F3C19C030C1FD3FB7
:10133000B0BD5B029A3D0BC0CAC0FF3F73BE9201B5
:10134000D03E03C065C0004038BFC900F0B480EA99
:101350000102D40F4200B2EB410F02D2024608460E
:1013600011464A0042D0C30DDDB2C1F3C752AD1AD7
:10137000202D35DAC1F3160141F4000204B15242C6
:10138000C5F1200602FA06F12A411044B3EBD05F02
:1013900023D0C4B1012DA0EBC35009DCF0BC4FF049
:1013A000004202EAC352DBB200F5000000F096BA38
:1013B000400000F1807000EBC350A0F1807040EA63
:1013C000D170490009E0490841EAC071A0EBC3505F
:1013D00000F50000400800EBC350F0BC00F075BA07
:1013E0006142012202EB4101001BF6E7F0BC7047AD
:1013F00081F00041AAE780F00040A7E780EA0102FF
:1014000010B502F00043400022D04A001FD0010E68
:1014100001EB1261C0F35600C2F3560240F4000023
:1014200042F40002A0FB022000047F39140400D023
:10143000401C50EA124001D44000491EC2B20C06C2
:1014400004EBD010401C4008802A02D003E00020AA
:1014500010BD20F00100002900DA0020184310BD63
:1014600030B480EA010202F0004530F0004221F081
:10147000004013D090B1C30DD40DC2F31601C0F3D8
:101480001600E41A41F4000140F400027D34914258
:1014900001D3641C00E04900002C02DA30BC0020BB
:1014A00070474FF400000023914201D3891A03438F
:1014B00040084FEA4101F7D151B1914202D14FF0BA
:1014C000004105E002D24FF0010101E06FF001019F
:1014D00003EBC450284430BC00F0F7B92DE9FE4FAF
:1014E00081EA030404F0004421F0004100944FF02D
:1014F000000B23F0004350EA01045ED052EA0304DB
:101500005BD0C3F30A54C1F30A552C44A4F2F3345C
:101510000194A0FB0254C1F3130141F48011C3F301
:10152000130343F4801301FB024400FB034E840ABF
:10153000970A44EA815447EA8357A4FB0768029557
:101540008D0A05FB07854FEA932C04FB0C542705F5
:10155000029D4FEA065847EA1637B5EB08056EEBD1
:10156000070C870E920E47EA811742EA8312A7FB07
:101570000201B6EB0B0164EB00042B0D43EA0C33C4
:101580005E1844EB1C50DA465146E7FB0201C5F3F6
:1015900013044FEA0B3343EA14534FEA0432019C1D
:1015A00043EA0603A4F10C040294009CCDE900B4C4
:1015B00000F0D1F903B0BDE8F08F00200146F9E753
:1015C0002DE9F04D81EA030404F0004B21F00045C1
:1015D00014464FF0000A23F0004150EA050220D0E3
:1015E00054EA01021DD0C5F30A570246C5F313039E
:1015F000C1F31300C1F30A5640F4801543F480137D
:10160000A7EB0608101BD64608F2FD3873EB050061
:1016100002D308F1010801E092185B41B8F1000F14
:1016200003DA00200146BDE8F08D00204FF4801160
:10163000064684460EE0171B73EB050705D3121B05
:1016400063EB050306434CEA010C49084FEA3000FE
:1016500092185B4150EA0107EDD152EA030012D023
:1016600082EA040083EA0501084305D0101BAB4160
:1016700006D20122002306E000224FF0004302E0E0
:101680006FF0010253101AEB06004CEB085110EBFF
:101690000A0041EB0B01BDE8F04D00F04DB9C10F60
:1016A00080EAE0700844CA079623002100F016B9CA
:1016B00096230022114600F011B90EB5C10F80EA41
:1016C000E0700844CA07002140F233438DE80E0061
:1016D0000A460B4600F03FF903B000BD0EB540F2DC
:1016E000334102910021CDE900110A460B4600F07A
:1016F00032F903B000BD20F00040C10DC0F3160068
:1017000040F400007F2901DA00207047962903DCAD
:10171000C1F19601C840704796398840704770B54E
:10172000C1F30A5201F000450024C1F3130140F255
:10173000FF3341F480119A4201DA002070BD40F27B
:1017400033439A42A2F2334203DC524200F0ADF836
:1017500000E090402C43F1D0404270BD00F00042C8
:1017600030F000400AD0C10D01F56071C0F31600E1
:1017700042EA0151C2084007114370470020014668
:101780007047000030B5041E71F1000404DB4FF017
:101790000044404264EB0101141E73F1000405DBB8
:1017A0001C464FF00043524263EB04038B4208BFD8
:1017B000824230BD30B5041E71F1000404DB4FF0ED
:1017C0000044404264EB0101141E73F1000405DB88
:1017D0001C464FF00043524263EB0403994208BF9A
:1017E000904230BD01F0004330B421F0004150EA96
:1017F000010206D00A0DA2F56072C1F31301002A9E
:1018000002DC30BC00207047440F44EAC104C10030
:10181000E01830BC00EBC25000F057B830B50B46B2
:10182000014600202022012409E021FA02F59D4210
:1018300005D303FA02F5491B04FA02F52844151EE4
:10184000A2F10102F1DC30BD2DE9F05F0546002078
:1018500092469B4688460646814640241BE0284621
:1018600041464746224600F020F853465A46C01AE1
:10187000914110D311461846224600F0DDF92D1A89
:1018800067EB01084F4622460120002100F0D4F901
:1018900017EB00094E41201EA4F10104DFDC48468D
:1018A00031462A464346BDE8F09F202A04DB203A11
:1018B00021FA02F00021704721FA02F3D040C2F170
:1018C000200291400843194670470029A8BF70477D
:1018D000401C490008BF20F00100704710B4B0FA66
:1018E00080FC00FA0CF050EA010404BF10BC704701
:1018F00049B1CCF1200421FA04F411FA0CF118BF1B
:10190000012121430843A3EB0C01CB1D4FEA0061E9
:101910004FEA102042BF002010BC704700EBC350BC
:1019200010440029A4BF10BC7047401C490008BFE8
:1019300020F0010010BC704710B5141E73F10004B4
:1019400008DA401C41F1000192185B411A4301D1B1
:1019500020F0010010BD2DE9F04D92469B4611B1DB
:10196000B1FA81F202E0B0FA80F22032904600F043
:1019700063F904460F4640EA0A0041EA0B01534668
:101980005A46084313D0114653EA010019D0C8F152
:1019900040025046FFF789FF05460E46504659461D
:1019A000424600F049F9084305D0012004E02046F2
:1019B0003946BDE8F08D0020054346EAE0762C4329
:1019C00037430A986305E40AA0EB08000022FD0AE9
:1019D00044EA47540A3002D500200146E9E70105F0
:1019E00010196941DDE9084500196941BDE8F04D6C
:1019F000A2E72DE9FE4F804681EA0300C00F0C46A6
:101A0000009021F0004123F00045B8EB0200A9410D
:101A100005D24046214690461C460B46024623F01E
:101A20000040104347D0270DC7F30A00C3F30A5103
:101A30000290401A019040286BDAC3F3130040F47F
:101A4000801B0098924620B10023D2EB030A63EB7F
:101A50000B0B01985946C0F14002504600F0ECF8DB
:101A600006460D4650465946019A00F0F4F810EB30
:101A700008006141002487EA115284EAE7731A439F
:101A800040D0009A62B3019A012A4FEA075215DC4E
:101A9000001B61EB02014FF0004202EA0752CDE960
:101AA0000042001C41F5801132462B46FFF753FFE0
:101AB00003B0BDE8F08F40462146F9E7001B61EB1B
:101AC0000201001C41F5801300185B412018A2F5AB
:101AD000001747EB030140EAD570B6196D4111E0DC
:101AE0006D084FEA360645EAC0754FEA0752001BFB
:101AF00061EB0201001C41F5801149084FEA3000FA
:101B00000019514132462B4603B0BDE8F04FFFF7B4
:101B100013BF0098012240000023D0EB020263EBC8
:101B2000E073009821464FEAE074B8EB000061EBE7
:101B30000401E9E783F000435BE781F0004158E7E7
:101B40002DE9F04D00231A461B1A8A4103DB0020C1
:101B50000146BDE8F08DC1F30A52C1F3130141F40F
:101B600080154FF0000BD10702D100186D41521EB5
:101B70000027044640F2FF11384601EB620A3E4658
:101B80008046024600204FF48011FFF78EFEC219F6
:101B90007141BB1846EB0100B4EB030C75EB000C74
:101BA00004D3E41A65EB000517460E46241908F124
:101BB00001006D4180463428E3DDF91946EB06004B
:101BC000091BA84103D24FF0FF32134601E0002267
:101BD00013461BEB070046EB0A51BDE8F04DFFF73B
:101BE000ABBEC1F30A52C1F3130140F2FF3341F41B
:101BF00080119A4202DA00200146704740F23343D6
:101C00009A42A2F2334202DC5242FFF74EBE00F08B
:101C100013B80000064C074D06E0E06840F00103F1
:101C200094E8070098471034AC42F6D3FEF784FAE4
:101C3000DC3B0008FC3B0008202A04DB203A00FAC9
:101C400002F1002070479140C2F1200320FA03F313
:101C5000194390407047202A06DBCB17203A41FAFF
:101C600002F043EAE07306E041FA02F3D040C2F129
:101C700020029140084319467047000000B58DB01E
:101C80000121084600F000FC4FF4C06000F0F0FBBA
:101C90000B208DF8040000208DF805008DF806005B
:101CA00001208DF8070001A800F0AAFB144800F0FD
:101CB000BDF9144802901448039000200490134882
:101CC0000088059000200690802007904000089032
:101CD0008000099000200A904FF400500B900020E3
:101CE0000C9002A9064800F050FA01220221044893
:101CF00000F042FA0121024800F08CF90DB000BD5D
:101D0000080002404C240140440000200400002050
:101D100000B587B00121480200F0C6FB0121102068
:101D200000F0C2FB0220ADF8040000208DF807008F
:101D300001A91D4800F048FA1C4800F04FF80020A7
:101D400002908DF80C008DF80D0004900590012094
:101D50008DF8180002A9154800F08EF80023012222
:101D60000B21124800F0B0F80121104800F020F8D3
:101D700001210E4800F060F801210C4800F023F822
:101D80000A4800F0FDF800BF084800F06AF8002893
:101D9000FAD1064800F0F9F800BF044800F057F8FF
:101DA0000028FAD107B000BD001001400024014016
:101DB00021B1826842F00102826003E0826822F071
:101DC00001028260704721B1826842F480728260B1
:101DD00003E0826822F480728260704710B5044686
:101DE0001248844208D10121401500F06DFB00210A
:101DF000601500F069FB17E00D48844208D101210D
:101E0000001500F061FB0021201500F05DFB0BE0E8
:101E10000848844208D10121C80300F055FB002185
:101E20004FF4004000F050FB10BD000000240140C2
:101E300000280140003C014021B1826842F4801238
:101E4000826003E0826822F480128260704701465B
:101E500000208A6802F004020AB1012000E000209C
:101E60007047014600208A6802F008020AB101208A
:101E700000E000207047000030B50246002000233B
:101E800050680F4C20400D790C6844EA052420432B
:101E9000506090680B4C2040D1E902542C434D799E
:101EA00044EA450420439060D06A20F470000C7C22
:101EB000641EE4B2234340EA0350D06230BD000008
:101EC000FFFEF0FFFDF7F1FFF0B504460D460020E0
:101ED0000021092D11DDE068A5F10A0606EB460791
:101EE000072606FA07F18843A5F10A0606EB46061F
:101EF00003FA06F10843E0600CE0206905EB4507B2
:101F0000072606FA07F1884305EB450603FA06F1B2
:101F100008432061072A0FDA606B561E06EB86071E
:101F20001F2606FA07F18843561E06EB860605FAB9
:101F300006F10843606322E00D2A0FDA206BD61FFA
:101F400006EB86071F2606FA07F18843D61F06EB25
:101F5000860605FA06F10843206310E0E06AA2F164
:101F60000D0606EB86071F2606FA07F18843A2F145
:101F70000D0606EB860605FA06F10843E062F0BDA1
:101F8000816841F0080181607047816841F0040177
:101F90008160704700BFFEE710B50021114800F0D6
:101FA00039F8022000F028F8002401200E490860CA
:101FB000802407E00D4830F8140000040C4941F873
:101FC0002400641CB4F5906FF4DB4FF48062084980
:101FD0000848FEF7CBF80A2001F0ACFA00F080F9CF
:101FE00010BD000008000240200000204400002036
:101FF000440900204419002000F0805111B1034928
:10200000086001E002494860704700000404024093
:102010000000024021B1026842F00102026004E0C7
:1020200002684FF6FE731A400260704701684FF66F
:10203000FE72114001600021016041608160C16059
:102040004B49884208D14A490839496841F00F0193
:10205000474A083A51608AE045491431884208D11C
:1020600043490839496841F0F001414A083A516052
:102070007DE03F492831884208D13D490839496807
:1020800041F470613A4A083A516070E038493C3195
:10209000884208D136490839496841F47041344AC8
:1020A000083A516063E032495031884208D13049E2
:1020B0000839496841F470212D4A083A516056E0C8
:1020C0002B496431884208D129490839496841F4CB
:1020D0007001274A083A516049E025497831884221
:1020E00008D123490839496841F07061204A083A0B
:1020F00051603CE01F49884206D1011F096841F048
:102100000F01021F116032E01A491431884208D1D0
:102110001849091F096841F0F001164A121F1160A1
:1021200025E014492831884208D11249091F09685D
:1021300041F470610F4A121F116018E00D493C31E3
:10214000884208D10B49091F096841F47041094AC6
:10215000121F11600BE007495031884207D1054931
:10216000091F096841F47021024A121F116070476B
:1021700008000240080402401AB103680B430360E0
:1021800002E003688B430360704710B500220268C9
:1021900047F6F0739A430C6A8B6823430C69234318
:1021A0004C6923438C692343CC6923434C6A234302
:1021B0008C6A23431A430260CB6843600B688360D8
:1021C0004B68C36010BD70472DE9F0410246002501
:1021D0000026002000230024002791F803C00CF003
:1021E0000F0591F803C00CF0100CBCF1000F03D0E8
:1021F00091F802C04CEA050591F800C0BCF1000F4F
:1022000031D0146800202BE04FF0010C0CFA00F3E1
:10221000B1F800C00CEA03069E4220D183004FF0C3
:102220000F0C0CFA03F7BC4305FA03FC4CEA040458
:1022300091F803C0BCF1280F06D14FF0010C0CFA45
:1022400000FCC2F814C00AE091F803C0BCF1480FCA
:1022500005D14FF0010C0CFA00FCC2F810C0401C74
:102260000828D1D31460B1F800C0BCF1FF0F34DDF1
:10227000546800202EE000F1080C4FF0010808FA25
:102280000CF3B1F800C00CEA03069E4221D1830092
:102290004FF00F0C0CFA03F7BC4305FA03FC4CEAB1
:1022A000040491F803C0BCF1280F05D100F1080C1B
:1022B00008FA0CF8C2F8148091F803C0BCF1480F7A
:1022C00007D100F1080C4FF0010808FA0CF8C2F829
:1022D0001080401C0828CED35460BDE8F081000077
:1022E0002DE9F04F89B000245DE0324830F8240039
:1022F0000FFA80F92F4850F824004FEA204A484648
:10230000FFF7CDF980464FF08941FFF777F8074690
:102310004FF08E41FFF7A4F805465046FFF7BFF98E
:1023200080464FF08941FFF769F807464FF08E412C
:10233000FFF796F8064631463046FFF75FF8294624
:1023400002902846FFF75AF801900299FEF7FEFF27
:102350000390FFF703FACDE9040101F019FC002214
:10236000154BCDE90601FFF72BF90746FFF73AFABF
:1023700083465CB94FF08E415846FFF73FF8074659
:10238000FFF7B9F90D4941F824000AE04FF08F41F9
:102390005846FFF733F80746FFF7ADF9074941F80C
:1023A0002400601C84B2B4F5007F9EDB09B0BDE858
:1023B000F08F0000441900200000904044210020CC
:1023C00070B5044600250FE05CB12146084800F0D6
:1023D0003EFC00BF8021064800F06BFB0028F9D0CE
:1023E00000E070BD681CC5B2032DEDDB00BFF8E74F
:1023F0000038014000BFFEE700BFFEE77047000065
:1024000070B5002100230F22C47804B3154C246852
:1024100004F4E064C4F5E064210AC1F10403CA4095
:10242000447804FA03F184781440214309010E4CE6
:102430000678A155047804F01F050124AC40057806
:102440006D11AD0005F1E025C5F8004109E0047803
:1024500004F01F050124AC40044D0678761145F8C0
:10246000264070BD0CED00E000E400E080E100E0FB
:1024700002490143024A1160704700000000FA055A
:102480000CED00E07047000029B1064A5269024392
:10249000044B5A6104E0034A52698243014B5A617A
:1024A000704700000010024029B1064A92690243B9
:1024B000044B9A6104E0034A92698243014B9A619A
:1024C000704700000010024029B1064AD26802435A
:1024D000044BDA6004E0034AD2688243014BDA60BD
:1024E000704700000010024030B500210022002497
:1024F00000232D4D6D6805F00C0121B1042905D094
:10250000082923D105E0294D056022E0274D05600B
:102510001FE0254D6D6805F47012234D6D6805F4BC
:102520008034022505EB92421CB9214D55430560CC
:102530000BE01D4D6D6805F400351DB11C4D554374
:10254000056002E0194D5543056002E0174D056036
:1025500000BF00BF144D6D6805F0F0010909154D6D
:102560006B5C0568DD4045600F4D6D6805F4E0610A
:10257000090A104D6B5C4568DD4085600A4D6D6849
:1025800005F46051C90A0B4D6B5C4568DD40C560C0
:10259000054D6D6805F44041890B074D6B5CC568BE
:1025A000B5FBF3F5056130BD0010024000127A0062
:1025B00000093D002400002034000020704710B5C1
:1025C00000F002F810BD00000CB500200190009052
:1025D0003348006840F480303149086000BF30481B
:1025E000006800F4003000900198401C01900098B1
:1025F00018B90198B0F5A06FF1D12948006800F42E
:10260000003010B10120009001E0002000900098FF
:10261000012843D12348006840F010002149086098
:102620000846006820F0030008600846006840F093
:10263000020008601A484068194948600846406826
:1026400048600846406840F480604860084640683A
:1026500020F47C1048600846406840F4E810486068
:102660000846006840F08070086000BF0C480068B1
:1026700000F000700028F9D00948406820F00300FD
:10268000074948600846406840F00200486000BFC3
:102690000348406800F00C000828F9D10CBD000088
:1026A0000010024000200240042808D14FF0E02131
:1026B000096941F004014FF0E022116107E04FF099
:1026C000E021096921F004014FF0E0221161704717
:1026D0007047000010B504466FF00400FFF7E4FFF8
:1026E000E11704EB5171C1F3C701074A117010469D
:1026F000007800EB4001C1EBC0104FF6FF7101EA1A
:10270000C0000249088010BD380000203A000020B7
:1027100010B51348006840F00100114908600846F0
:102720004068104908400E494860084600680E4954
:1027300008400B4908600846006820F480200860C3
:102740000846406820F4FE0048604FF41F0088608F
:10275000FFF735FF4FF000600449086010BD00002E
:10276000001002400000FFF8FFFFF6FE08ED00E059
:1027700000B589B00121C802FFF796FE01210420AF
:10278000FFF792FE4FF48070ADF8040003208DF83F
:10279000060018208DF8070001A91848FFF714FD5E
:1027A00006A800F0EDF816480088ADF81C001548A2
:1027B0000088ADF818000020ADF81E00ADF81A0032
:1027C00006A9114800F08AF86020ADF80800012041
:1027D000ADF80A000220ADF80E00ADF8100002A915
:1027E000094800F02FF80121074800F01BF80021EC
:1027F000054800F00BF809B000BD000000080140DA
:102800000000002002000020002C014021B10288BD
:1028100042F00102028004E002884FF6FE731A4083
:102820000280704731B1B0F8442042F40042A0F871
:10283000442005E0B0F84420C2F30E02A0F8442082
:102840007047000070B5002400220023058C4FF66D
:10285000FE7635400584028C8388048B4FF68F7595
:102860002C40B51E2C400D882C43751E2A400D8926
:102870002A434D882A43144DA8420BD0134DA84239
:1028800008D0134DA84205D0124DA84202D0124DD7
:10289000A84213D14FF6F7752A404D892A434FF6C7
:1028A000FB752A408D882A434FF6FF652B404FF673
:1028B000FF552B408D892B43CD892B438380048387
:1028C000CD888586028470BD002C01400034014013
:1028D00000400140004401400048014000220288BD
:1028E0001D4B98420ED01D4B98420BD0B0F1804F3B
:1028F00008D01B4B984205D01A4B984202D01A4B75
:10290000984204D14FF68F731A404B881A43174BE5
:10291000984207D0164B984204D04FF6FF431A4016
:10292000CB881A4302808B8883850B8803850A4BEA
:1029300098420BD0094B984208D00E4B984205D0D4
:102940000D4B984202D00D4B984201D10B7A038671
:102950000123838270470000002C014000340140B5
:102960000004004000080040000C0040001000403F
:102970000014004000400140004401400048014074
:102980004FF6FF71818000210180C180418001727A
:102990007047000010B540F225510C4800F096F841
:1029A00070B10A4800F04EF9C4B22146074800F061
:1029B0004EF900BF4021054800F07BF80128F9D10D
:1029C0004021024800F060F810BD000000380140CE
:1029D00010B586B0044601210420FFF765FD0121F2
:1029E0008803FFF761FD01210846FFF75DFD4FF405
:1029F0000070ADF8140003208DF8160018208DF833
:102A0000170005A91E48FFF7DFFB4FF48060ADF803
:102A1000140004208DF8170005A91948FFF7D4FB0E
:102A200001940020ADF80800ADF80A00ADF80C00E4
:102A3000ADF810000C20ADF80E0001A9114800F00F
:102A400095F801210F4800F028F840210D4800F0CA
:102A50001BF8012240F225510A4800F061F82520B8
:102A60008DF8000003208DF801008DF80200012090
:102A70008DF803006846FFF7C3FC06B010BD0000E8
:102A8000000801400038014001F40072B2F5007FF7
:102A900000D100BFCA430280704721B1828942F44D
:102AA0000052828104E082894DF6FF731A408281D0
:102AB000704702460020B1F5007F00D100BF1388A7
:102AC0000B400BB1012000E00020704770B50246BA
:102AD000002400230025002040F66A16B14200D1F0
:102AE00000BFC1F3421501F01F03012606FA03F3EC
:102AF000012D02D19689334006E0022D02D1168ABB
:102B0000334001E0968A33400C12012606FA04F4A1
:102B10001688344013B10CB1012000E0002070BDD4
:102B2000F0B50346002400260025002040F66A1771
:102B3000B94200D100BF1846C1F3421401F01F068C
:102B4000012707FA06F5012C01D10C3004E0022C14
:102B500001D1103000E014301AB107682F4307602C
:102B600002E00768AF430760F0BD00002DE9F047C1
:102B700086B005460E460024A24600BFA1460027A7
:102B8000B08900B100BF2F462C8A4CF6FF7004407C
:102B9000F08804432C82AC894EF6F3100440B088D0
:102BA00031890843718908430443AC81AC8A4FF6EC
:102BB000FF400440B0890443AC8201A8FFF794FCB5
:102BC0001F48874202D1DDF810A001E0DDF80CA01B
:102BD000A88900F4004040B10AEBCA0000EB0A10DB
:102BE00031684900B0FBF1F807E00AEBCA0000EBDE
:102BF0000A1031688900B0FBF1F86420B8FBF0F0EE
:102C000004012009642101FB1089A88900F4004017
:102C100040B1322000EBC900B0FBF1F000F007003A
:102C2000044308E0322000EB09106421B0FBF1F00E
:102C300000F00F0004432C8106B0BDE8F0870000CF
:102C40000038014001468888C0F308007047C1F38E
:102C500008028280704700BFFEE700000FB4054BFA
:102C600010B503A9044A029800F0E0F810BC5DF822
:102C700014FB0000813500083C00002002E008C879
:102C8000121F08C1002AFAD170477047002001E0E6
:102C900001C1121F002AFBD17047000001490860E2
:102CA00070470000400000202DE9FF5F82B0002146
:102CB000DDE90430020DDDF840B0034318D044F6DE
:102CC0001050A2F2FF3242431514119801281FD070
:102CD000A5EB0B00401C5FEA000A4FF000064E4FC8
:102CE000DFF83891B046504615D5CAF1000413E01C
:102CF000119801244AA3012801D16FEA0B0102981F
:102D0000119AC0E90031C0E9024206B0BDE8F09F67
:102D1000CBF10000DFE704460021404A491842EBAE
:102D20000450CDE9001012E0E00707D032463B46E0
:102D300040464946FEF7D2FB8046894632463B462E
:102D400010461946FEF7CAFB06460F466410002CD3
:102D5000EAD1DDE90401DDE90023BAF1000F06DA6A
:102D6000FEF7BCFB42464B46FEF7B8FB05E0FEF71C
:102D700027FC42464B46FEF723FC04460E46002243
:102D8000284BFEF717FD03D84FF0FF30014607E050
:102D90000022254B20463146FEF72BFEFEF721FF91
:102DA000102409E0002C0ADB0A220023FEF74CFD68
:102DB000039B30321A55641E50EA0102F2D1641CA2
:102DC000039AC4F111031444119A012A03D0012279
:102DD00008430DD10AE0084304D000204FF0110B46
:102DE000119072E7A3EB0B056D1E0DE05B4504DD52
:102DF0004FF0000205F1010504E003DA4FF0000294
:102E0000A5F10105002AECD002981199C0E9023120
:102E1000C0E9004579E70000000014400000F03FE1
:102E2000300000000000F0430000E03F2DE9FF4FBC
:102E300095B09A46884606460025EEE1252877D1CA
:102E400000242746F94A0121039400E0044316F8C0
:102E5000013F203B01FA03F01042F7D130782A28D5
:102E600011D06FF02F033078A0F13002092A16D864
:102E7000039A44F0020402EB820203EB4202104484
:102E8000761C0390EFE758F8042B0392002A03DA2C
:102E9000504244F40054039044F00204761C30780D
:102EA0002E2816D116F8010F44F004042A280DD05C
:102EB0006FF02F023078A0F13003092B09D807EB0F
:102EC000870302EB4303C718761CF3E758F8047B2B
:102ED000761C30786C280FD006DC4C2817D0682878
:102EE0000DD06A2814D104E0742810D07A280FD1AC
:102EF0000DE044F400140AE044F4801401E044F4CA
:102F000040147278824202D104F58014761C761C3B
:102F1000307866280BD013DC582877D009DC0028DD
:102F200075D04528F6D04628F4D047281AD193E129
:102F300018E0632835D0642879D0652812D18BE158
:102F4000702873D008DC6728F1D069286FD06E280C
:102F50000DD06F2806D1ACE073282CD0752874D022
:102F6000782853D05246179990476D1C54E1C4F30A
:102F70000250022809D003280DD0D8F800100428E8
:102F80000DD00D6008F1040846E1D8F80010EA17EA
:102F9000C1E90052F6E7D8F800100D80F2E70D7095
:102FA000F0E718F8041B8DF8001000208DF80100E0
:102FB000EB46012003E058F804BB4FF0FF306107F7
:102FC0004FF0000102D40DE009F101018946B94238
:102FD0000FDA8145F8DB1BF809100029F4D108E06D
:102FE00009F1010189468142FADB1BF80910002929
:102FF000F6D103985346A0EB090721463846179AA5
:1030000000F080FA284400EB090507E044E008E1FD
:103010000DE01BF8010B524617999047B9F10109D1
:10302000F7D2534621463846179AF2E039E00A2192
:10303000C4F302524FF0000B0091022A06D058F858
:10304000040BC117032A09D00AE023E008F10700A6
:1030500020F00702F2E80201904605E000B2C11735
:10306000042A01D140B2C117002906DA0A4600211C
:10307000404261EB02012D2202E0220504D52B2201
:103080008DF80420012203E0E20701D02022F7E7B7
:10309000914657E00A2100E010214FF0000B00910B
:1030A0000BE010214FF0000B44F0040408270091BE
:1030B00003E008204FF0000B0090C4F30252022AF4
:1030C00005D058F8040B0021032A08D008E008F1C5
:1030D000070020F00702F2E80201904603E080B208
:1030E000042A00D1C0B24FF0000922072AD5327855
:1030F000702A07D0DDF800C08CF0100C5CEA0B0CD5
:1031000005D00EE040228DF80420012208E050EAAC
:10311000010306D030238DF804308DF805200222FB
:103120009146009B83F0080353EA0B030AD150EA4F
:10313000010201D1620705D530228DF804204FF03D
:1031400001097F1E3278582A04D039A20C920CAAA9
:1031500002920BE03BA2F9E75B46009AFEF774FB94
:103160000C9B9B5C029A521E0292137050EA010261
:10317000F2D1029804A9081A00F1200B600702D5C9
:1031800024F4803400E001275F4502DDA7EB0B004B
:1031900000E0002000EB0B01009003984944401A26
:1031A0000390E00306D453462146179A039800F093
:1031B000A9F90544002706E001A85246C05D179909
:1031C00090476D1C7F1C4F45F6DBE0030CD5534642
:1031D0002146179A039800F095F9054404E0302041
:1031E0005246179990476D1C0099481E009000297F
:1031F000F5DC08E00298029952460078491C0291D9
:10320000179990476D1CBBF10001ABF1010BF1DC8C
:103210005BE100F065F90544761C307800287FF406
:103220000DAE19B02846BDE8F08F00000928010056
:10323000303132333435363738396162636465662C
:1032400000000000303132333435363738394142EE
:103250004344454600000000600700D4062708F1FB
:10326000070020F00700F0E80223804603F0004C3E
:103270005FEA0C0001D097A009E0200501D596A0D7
:1032800005E0E00701D095A001E0AFF24C001390FB
:10329000307823F0004365280CD006DC452809D09F
:1032A00046281DD047287FD13BE0662818D06728E4
:1032B0007AD136E00021112F01DB112000E0781CCB
:1032C000CDE9000104A90CA8FFF7EEFCDDE90D0132
:1032D0000C9A4FF0000B07F10109109200914EE09B
:1032E0004FF000400097CDE9011004A90CA8FFF7AA
:1032F000DBFCDDE90D020C9B0F994FF0000B9146B2
:103300001093009211B9791C00EB0109B7EB090089
:1033100003D4C0F1FF3B07F10109A9EB07000190BD
:1033200042E0012F00DA01270021112F01DD1120D9
:1033300000E03846CDE9000104A90CA8FFF7B4FC71
:10334000DDE90D010C9A00914FF0000BB946109287
:1033500021070FD4009A4A4503DA914601E0A9F10A
:103360000109B9F1010F05DD109AA9F10101515CC4
:103370003029F4D0B84202DA10F1040F03DA012147
:10338000CDE9011010E0002803DC8344A9EB000123
:1033900002E0411C494500DD8946A0EB0B00401CC2
:1033A00001904FF000400290200705D40198484555
:1033B00002DB4FF0FF30019000208DF84B000298A7
:1033C0000DF14B07B0F1004F25D002200C902B20BF
:1033D0000D90029800280CDA404202902D200D90AA
:1033E00007E00A210298FEF719FA3031029007F837
:1033F000011D0C99481E0C900029F2DC029800284F
:10340000EFD1791E0D980870307800F0200040F060
:10341000450007F8020D11A8C01BC01D02901398AB
:10342000007800B1012000EB0901019801EBE07187
:10343000029801440398401A401E0390E00306D40A
:1034400053462146179A039800F05CF805441398F8
:10345000007818B15246179990476D1CE00323D5A8
:1034600053462146179A039800F04CF805441BE098
:10347000BBF1000F07DB0098584504DD1098179941
:1034800010F80B0001E01799302052469047019840
:103490000BF1010B401E05F10105019004D12E2016
:1034A0005246179990476D1CB9F10001A9F1010925
:1034B000DEDC05E017F8010B5246179990476D1CAA
:1034C0000299481E02900029F4DC53462146179ABF
:1034D00003989EE62D0000002B0000002000000055
:1034E0002DE9F041044600251E461746880404D401
:1034F00005E039462020B0476D1C641EF9D52846EA
:10350000BDE8F0812DE9F041044600251E469046B5
:10351000C80301D5302700E02027880404D505E042
:1035200041463846B0476D1C641EF9D52846BDE8B3
:10353000F08100000146114A12884A434FF0E0230F
:103540005A6100229A611A46126942F001021A6118
:1035500000BF4FF0E022106900F001021AB100F440
:103560008032002AF5D04FF0E022126922F00102E9
:103570004FF0E0231A6100229A6170473A00002060
:1035800070B504460D46E1B20548FFF760FB00BF89
:1035900080210348FFF78DFA0028F9D0204670BD3E
:1035A0000038014090B04FF0000B4820FFF792F830
:1035B0004FF4A060FEF75CFF4FF4E130FFF708FA2C
:1035C000FFF7D6F8FEF75AFBFEF7A2FB3220FFF713
:1035D000B1FF0121FE48FFF719F9A4E2FD48006898
:1035E0000128FAD10020FC490880FC490880FC49E8
:1035F0000880FC490880FC49088002240FE0FB4851
:1036000050F82400F4490988884206DDF74830F86C
:103610002400F1490880F6480480601C84B2B4F5A7
:10362000007FECDB00241FE0C4F50071EF4A52F884
:103630002100FEF742F807460022EE4BFDF74EFF51
:103640000022ED4BCDE90A01FDF7BAFFCDE90C01EF
:10365000FEF765F801460F90E8A0FFF7FFFAFF209C
:10366000FEF7AEFE601C84B2B4F5007FDCDBE6A0A2
:10367000FFF7F4FAFF20FEF7A3FEE3A0FFF7EEFA50
:10368000FF20FEF79DFEE0A0FFF7E8FAFF20FEF71F
:1036900097FEDDA0FFF7E2FAFF20FEF791FEDAA029
:1036A000FFF7DCFAFF20FEF78BFED7A0FFF7D6FA74
:1036B000FF20FEF785FED4A0FFF7D0FAFF20FEF72B
:1036C0007FFED1A0FFF7CAFAFF20FEF779FED148AE
:1036D0000088401C8002D0490988491C4843C449DD
:1036E000098890FBF1F0CD4991FBF0F0CC490860DE
:1036F00008460068FDF7F2FF07460022C94BFEF7B7
:1037000041F810D2C6480068FDF7D2FF0F90FEF7CF
:1037100025F807463A460B46C3A0FFF79FFAFF205D
:10372000FEF74EFE47E0BE480068FDF7D7FF0746AC
:103730000022BC4BFEF73EF81ED8B9480068FDF7E2
:10374000CDFF07460022BC4BFEF71CF814D2B4484C
:103750000068FDF7ADFFB9490E90FDF781FE0F90AF
:10376000FDF7FCFF07463A460B46B5A0FFF776FA91
:10377000FF20FEF725FE1EE0A9480068FDF7AEFF1A
:1037800007460022AC4BFEF715F814D8A448006891
:10379000FDF78EFF8046AF49FDF762FE0746FDF755
:1037A000DDFF02460B46CDE90E01ABA0FFF756FA4E
:1037B000FF20FEF705FE8D498D4A128851F8220040
:1037C000FDF76DFF80464FF08B41FDF749FE074640
:1037D000FDF7C4FF4FF06632A44BCDE90C01FDF7B5
:1037E0007DFECDE90E01FDF7FDFF054600205CE002
:1037F0007F4909884900C91E01447C4A52F82110BA
:10380000764A1288914209DD794909884900C91E22
:103810000144764A32F82110704A118074490988AF
:1038200001EB4101C91E0144704A52F821106C4A53
:10383000128891420ADD6E49098801EB4101C91ED7
:1038400001446A4A32F82110654A118068490988A2
:103850008900C91E0144654A52F82110614A128844
:10386000914209DD624909888900C91E01445F4A05
:1038700032F821105B4A11805D49098801EB810112
:10388000C91E0144594A52F82110574A12889142E0
:103890000ADD5749098801EB8101C91E0144534AD9
:1038A00032F82110504A1180401C0728A0DB4B48F9
:1038B0000088FDF7FDFE0B90FDF750FF0746002244
:1038C0004D4BFDF77DFE4FF06632684BCDE90C01A4
:1038D000FDF704FECDE90E01FDF784FF06464048E2
:1038E0000088FDF7E5FE0B90FDF738FF0022424B04
:1038F000CDE90C01FDF764FE4FF066325B4BCDE97C
:103900000E01FDF7EBFD0746FDF76CFF81463548DC
:103910000088FDF7CDFE0B90FDF720FF0022364B0F
:10392000CDE90C01FDF74CFE07464FF066324F4BD8
:10393000FDF7D4FDCDE90E01FDF754FF82462A487C
:103940000088FDF7B5FE0B90FDF708FF0746002243
:10395000294BFDF735FE4FF06632444BCDE90C01A3
:10396000FDF7BCFDCDE90E01FDF73CFF834628467F
:10397000FDF7F4FECDE90A0159465846FDF73EFD34
:10398000514604905046FDF739FD4946039048469C
:10399000FDF734FD314602903046FDF72FFD0190D2
:1039A0000299FDF7D3FC80460399FDF7CFFC07464B
:1039B0000499FDF7CBFC0590FDF7D0FECDE906019B
:1039C00000F0E6F8CDE90801DDE90A2350E0000047
:1039D000002C0140200000200E00002010000020DC
:1039E00012000020140000201600002044210020B6
:1039F0000C000020000069400000B04061646420B9
:103A0000312C302C2564000061646420312C302C72
:103A100030000000000000200200002000A24A0444
:103A20000800002000408F4074332E7478743D22CB
:103A3000256620487A22000080842E4100007A44C6
:103A400074332E7478743D22252E3366206B487AA9
:103A5000220000000024744974332E7478743D22CF
:103A6000252E3366204D487A2200000066660A4003
:103A7000FDF7A6FD00222C4BCDE90C01FDF72EFD34
:103A800002460B46CDE90E0128A0FFF7E7F8FF201C
:103A9000FEF796FC2AA0FFF7E1F8FF20FEF790FC66
:103AA00029463046FDF7DCFC0F90FDF757FE074630
:103AB0003A460B4625A0FFF7D1F8FF20FEF780FC21
:103AC00029464846FDF7CCFC0F90FDF747FE074618
:103AD0003A460B4621A0FFF7C1F8FF20FEF770FC25
:103AE00029465046FDF7BCFC0F90FDF737FE074610
:103AF0003A460B461DA0FFF7B1F8FF20FEF760FC29
:103B000029465846FDF7ACFC0F90FDF727FE074607
:103B10003A460B4619A0FFF7A1F8FF20FEF750FC2C
:103B200000201A49086059E50000594074312E748C
:103B300078743D22252E34662025252200000000C1
:103B40007431302E7478743D223122007431312E5C
:103B50007478743D22252E33662200007431322E93
:103B60007478743D22252E33662200007431332E82
:103B70007478743D22252E33662200007431342E71
:103B80007478743D22252E33662200002000002028
:103B90002DE9F04106460F46FDF7D2FF041E0D4603
:103BA00018BF0120284320F00040C0F17F6000F1E1
:103BB000E040C00F0ED0301C18BF0120384320F069
:103BC0000040C0F17F6000F1E040C00F04BF012061
:103BD000FFF764F820462946BDE8F081FC3B000869
:103BE00000000020440000007C2C0008403C00083D
:103BF00044000020042D00008C2C0008CF0200009F
:103C000000040000000000000000000000000000B0
:103C10000000000000000000FF00000000000000A5
:103C20000000000001020304010203040607080962
:103C30000204060800000000000000000000000070
:0400000508000131BD
:00000001FF
