:020000040800F2
:10000000380C00204901000801130008D511000830
:10001000FD120008DB0F00080918000800000000AE
:10002000000000000000000000000000A51400080F
:10003000DF0F000800000000AD130008B91500082C
:100040006301000863010008630100086301000800
:1000500063010008630100086301000863010008F0
:1000600063010008630100086301000863010008E0
:1000700063010008630100086301000863010008D0
:1000800063010008630100086301000863010008C0
:1000900063010008630100086301000863010008B0
:1000A00063010008630100086301000863010008A0
:1000B0006301000863010008630100086301000890
:1000C0006301000863010008630100086301000880
:1000D0006301000863010008630100086301000870
:1000E0006301000863010008630100086301000860
:1000F0006301000863010008630100086301000850
:10010000630100086301000863010008630100083F
:10011000630100086301000863010008630100082F
:10012000630100086301000863010008630100081F
:10013000DFF810D000F0E8FE004800477D200008FE
:10014000AFF30080380C002006488047064800477F
:10015000FEE7FEE7FEE7FEE7FEE7FEE7FEE7FEE777
:10016000FEE7FEE7BD150008310100082DE9F04F5C
:100170004FF0000C4FF0000301EB1C6EBEF9025073
:10018000BEF900400EF5807EBEF90290BEF90080F7
:100190000EF5807EBEF90270BEF900600EF5807E1D
:1001A000BEF902B0BEF900A00EF5807ED044D9445D
:1001B000A8EB4A0AA9EB4B0B4FEAA4044FEAA505AA
:1001C00004EBA60405EBA705A4EB6606A5EB670701
:1001D00004EBA80405EBA905A4EB6808A5EB6909E5
:1001E00006EBAB06A7EBAA07A6EB6B0B07EB6A0ABD
:1001F000458020F8044B478020F8046BA0F802905B
:1002000020F8048BA0F802A020F804BB03F101033E
:1002100093FAA3FC402BAFD1A0EB82014FF0100367
:1002200012090FF2361000F1000006B403EB430C84
:100230006144A2F5803202EB8332B1F90250B1F988
:100240000040A1EB0301B0F902B0B0F900A000F149
:100250000400A5EB040E0EFB0BFC0AEB4B0E05FB9A
:100260000ACB04FB0ECAB1F90250B1F90040A1EB70
:100270000301B0F90290B0F9008000F10400A5EB91
:10028000040E0EFB09FC08EB490E05FB08C904FB34
:100290000EC8B1F90250B1F90040A1EB0301B0F969
:1002A0000270B0F9006000F10400A5EB040E0EFB33
:1002B00007FC06EB470E05FB06C704FB0EC6B1F9AB
:1002C0000250B1F9004001F10001D044D944A8EB3B
:1002D0004A0AA9EB4B0B4FEAA4044FEAA50504EB2D
:1002E000264405EB2745A4EBE636A5EBE73704EB00
:1002F000284405EB2945A4EBE838A5EBE93906EBE2
:100300002B46A7EB2A47A6EBEB3B07EBEA3A4D80DF
:100310000C8019444F800E801944A1F80290A1F876
:1003200000801944A1F802A021F804BBB2F5803284
:1003300083DA03EB430C6144A2F101025FEA024E4F
:1003400018BFA0EB0C007FF476AF06BC4FEA830326
:1003500092087FF46AAFBDE8F08F004000000040D3
:100360000000004000005DDD213BA3227E1800005C
:10037000412D7EA5412D0000412D00C000405DDDD6
:1003800082E75DDD213B7EA5412D0040000000405D
:10039000000000400000AA2A94126B394606493238
:1003A0007C0CA8118E2349327C0CA3227E1821F7E5
:1003B0007931AA2A9412A8118E235DDD213BA32254
:1003C0007E180000412D95C6B13F461A2B1E58EEEF
:1003D0003735BEB4C53EA8118E235DDD213B63A930
:1003E0007138DF089A28B7CDC53E7EA5412D0000A3
:1003F000412D00C0004063A92B1E21F77931BEB406
:10040000C53EBEB47C0C58EE373561AC213B95C679
:10041000BAF9BAE571383BA737355DDD82E75DDDB6
:10042000213B7EA5412D21F766D756D53F3D3BA701
:100430008E23A811C9CAB7CDC53E61AC7E18AA2AC1
:10044000C1C295C6B13FBEB47C0C00400000004064
:100450000000004000001E3BB504693E9201C83C0C
:100460002403EB356409C83C24036B3946066C3021
:10047000060E1E3BB504EB356409AA2A94126B39AB
:10048000460649327C0CAE240917AF37D607882EB2
:100490008D0F7E1E5D1BEB356409AA2A9412241869
:1004A0008C1F1E34F10AB3269015A8118E234932F1
:1004B0007C0CA3227E18140B60276C30060E7E1E67
:1004C0005D1B7104FB2A882E8D0F461A2B1EC7FD5B
:1004D0005A2E9D2C1211FE15E72021F77931AA2AF8
:1004E0009412A8118E2387F05334B2281314480DA8
:1004F000202602EAE536B3269015DF089A289CE309
:100500002B39AE2409177104FB2A5DDD213BA322A0
:100510007E180000412D4ED7C53C9320EF198FFB6C
:100520006C2F78D1153E7E1E5D1B21F77931E2CB11
:100530000F3F641CC61CB8F2683395C6B13F461A1B
:100540002B1E58EE373597C1FB3F24188C1F02EA4B
:10055000E536F0BCEC3FFE15E720BAE57138A6B8E9
:10056000853FD5133D2282E1DB39BEB4C53EA811DB
:100570008E235DDD213B40B1AF3D790FDA244DD9AB
:10058000423C2EAE423C480D202656D53F3D8EAB18
:10059000823A140B602778D1153E63A97138DF08C1
:1005A0009A28B7CDC53EB1A71236A906CE2915CADD
:1005B0004F3F78A668337104FB2A95C6B13FBCA5AE
:1005C00076303902212C38C3EC3F7EA5412D000046
:1005D000412D00C00040BCA5CE29C7FD5A2EF0BC5D
:1005E000EC3F78A620268FFB6C2F09BAB13FB1A74C
:1005F0003D2257F976304DB74F3F63A92B1E21F7A7
:100600007931BEB4C53E8EABEF19ECF474325EB2F4
:10061000153E2EAE9015B8F268332DB03F3D40B177
:10062000121187F053342EAE423CBEB47C0C58EE0F
:10063000373561AC213BA6B8D6072BEC1236C8AAD9
:10064000DB39F0BC240302EAE53663A9713897C1AF
:100650006EFEDCE7B03734A8E53695C6BAF9BAE5E0
:1006600071383BA73735E2CB0FF59CE32B3978A6E1
:10067000683378D173F082E1DB39EDA579314ED75B
:10068000EDEB6DDF823A99A56C2F5DDD82E75DDDD4
:10069000213B7EA5412D9CE33AE352DBB63B99A575
:1006A000FB2A02EA19DF4DD9423CEDA59A2887F0D2
:1006B00026DB4ED7C53C78A6202621F766D756D52F
:1006C0003F3D3BA78E23C7FDDFD363D3AF3D34A8A7
:1006D000E720710494D078D1153E63A92B1E140B2A
:1006E0008CCD94CF723EC8AA5D1BA811C9CAB7CDE4
:1006F000C53E61AC7E18241850C8E2CB0F3F2EAE29
:1007000090157E1E25C615CA4F3F2DB09412AE24FB
:100710004AC451C8853F5EB28D0FAA2AC1C295C690
:10072000B13FBEB47C0C6C308EC1E2C4D43F4DB737
:100730006409EB35B1C038C3EC3F09BA46061E3B2D
:100740002CC097C1FB3FF0BC2403F0B480EA010247
:10075000D40F4200B2EB410F02D2024608461146C6
:100760004A0042D0C30DDDB2C1F3C752AD1A202DED
:1007700035DAC1F3160141F4000204B15242C5F169
:10078000200602FA06F12A411044B3EBD05F23D0D1
:10079000C4B1012DA0EBC35009DCF0BC4FF0004206
:1007A00002EAC352DBB200F5000000F0D0BA40000C
:1007B00000F1807000EBC350A0F1807040EAD1706E
:1007C000490009E0490841EAC071A0EBC35000F5B7
:1007D0000000400800EBC350F0BC00F0AFBA61422B
:1007E000012202EB4101001BF6E7F0BC704781F0EB
:1007F0000041AAE780F00040A7E780EA010210B5B7
:1008000002F00043400022D04A001FD0010E01EB4D
:100810001261C0F35600C2F3560240F4000042F4E5
:100820000002A0FB022000047F39140400D0401C09
:1008300050EA124001D44000491EC2B20C0604EB3B
:10084000D010401C4008802A02D003E0002010BDD8
:1008500020F00100002900DA0020184310BD30B458
:1008600080EA010202F0004530F0004221F0004031
:1008700013D090B1C30DD40DC2F31601C0F316000E
:10088000E41A41F4000140F400027D34914201D3A6
:10089000641C00E04900002C02DA30BC00207047E4
:1008A0004FF400000023914201D3891A034340080A
:1008B0004FEA4101F7D151B1914202D14FF00041CD
:1008C00005E002D24FF0010101E06FF0010103EBFE
:1008D000C450284430BC00F031BA2DE9FE4F8046A8
:1008E00081EA0300C00F0C46009021F0004123F084
:1008F0000045B8EB0200A94105D24046214690468A
:100900001C460B46024623F00040104347D0270DFB
:10091000C7F30A00C3F30A510290401A019040281D
:100920006BDAC3F3130040F4801B0098924620B1A9
:100930000023D2EB030A63EB0B0B01985946C0F17D
:100940004002504600F0D9F906460D465046594639
:10095000019A00F0E1F910EB08006141002487EAF8
:10096000115284EAE7731A4340D0009A62B3019AA5
:10097000012A4FEA075215DC001B61EB02014FF020
:10098000004202EA0752CDE90042001C41F5801105
:1009900032462B4600F018FA03B0BDE8F08F40460F
:1009A0002146F9E7001B61EB0201001C41F58013B1
:1009B00000185B412018A2F5001747EB030140EA3D
:1009C000D570B6196D4111E06D084FEA360645EA5B
:1009D000C0754FEA0752001B61EB0201001C41F594
:1009E000801149084FEA30000019514132462B4628
:1009F00003B0BDE8F04F00F0D8B9009801224000E4
:100A00000023D0EB020263EBE073009821464FEA2B
:100A1000E074B8EB000061EB0401E9E783F0004308
:100A20005BE781F0004158E72DE9FE4F81EA0304BE
:100A300004F0004421F0004100944FF0000B23F03B
:100A4000004350EA01045ED052EA03045BD0C3F3D2
:100A50000A54C1F30A552C44A4F2F3340194A0FBC8
:100A60000254C1F3130141F48011C3F3130343F49F
:100A7000801301FB024400FB034E840A970A44EAF8
:100A8000815447EA8357A4FB076802958D0A05FB4A
:100A900007854FEA932C04FB0C542705029D4FEA6F
:100AA000065847EA1637B5EB08056EEB070C870EBC
:100AB000920E47EA811742EA8312A7FB0201B6EBC6
:100AC0000B0164EB00042B0D43EA0C335E1844EB7E
:100AD0001C50DA465146E7FB0201C5F313044FEA06
:100AE0000B3343EA14534FEA0432019C43EA0603F2
:100AF000A4F10C040294009CCDE900B400F064F968
:100B000003B0BDE8F08F00200146F9E72DE9F04D74
:100B100081EA030404F0004B21F0004514464FF035
:100B2000000A23F0004150EA050220D054EA0102F5
:100B30001DD0C5F30A570246C5F31303C1F31300D2
:100B4000C1F30A5640F4801543F48013A7EB06085E
:100B5000101BD64608F2FD3873EB050002D308F1EE
:100B6000010801E092185B41B8F1000F03DA0020A0
:100B70000146BDE8F08D00204FF480110646844602
:100B80000EE0171B73EB050705D3121B63EB050380
:100B900006434CEA010C49084FEA300092185B41C9
:100BA00050EA0107EDD152EA030012D082EA0400B4
:100BB00083EA0501084305D0101BAB4106D2012290
:100BC000002306E000224FF0004302E06FF0010234
:100BD00053101AEB06004CEB085110EB0A0041EBE6
:100BE0000B01BDE8F04D00F0E0B8C10F80EAE07005
:100BF0000844CA079623002100F0A9B80EB540F2B8
:100C0000334102910021CDE900110A460B4600F064
:100C1000DBF803B000BD00F0004220F00040C10D41
:100C2000C0F3160040F400007F2901DA002070476D
:100C3000962903DCC1F19601C84001E0963988404D
:100C4000002AF4D04042704720F00040C10DC0F3AC
:100C5000160040F400007F2901DA00207047962931
:100C600003DCC1F19601C84070479639884070474F
:100C700000F0004230F000400AD0C10D01F5607173
:100C8000C0F3160042EA0151C20840071143704701
:100C900000200146704701F0004330B421F00041CC
:100CA00050EA010206D00A0DA2F56072C1F31301E9
:100CB000002A02DC30BC00207047440F44EAC10423
:100CC000C100E01830BC00EBC25000F037B830B5BE
:100CD0000B46014600202022012409E021FA02F5FA
:100CE0009D4205D303FA02F5491B04FA02F5284494
:100CF000151EA2F10102F1DC30BD202A04DB203AEE
:100D000000FA02F1002070479140C2F1200320FA5E
:100D100003F3194390407047202A06DBCB17203A93
:100D200041FA02F043EAE07306E041FA02F3D040F0
:100D3000C2F1200291400843194670470029A8BF1C
:100D40007047401C490008BF20F00100704710B4F4
:100D5000B0FA80FC00FA0CF050EA010404BF10BCA9
:100D6000704749B1CCF1200421FA04F411FA0CF1D6
:100D700018BF012121430843A3EB0C01CB1D4FEA0F
:100D800000614FEA102042BF002010BC704700EB0A
:100D9000C35010440029A4BF10BC7047401C490038
:100DA00008BF20F0010010BC704710B5141E73F18D
:100DB000000408DA401C41F1000192185B411A431B
:100DC00001D120F0010010BD2DE9F04D92469B4667
:100DD00011B1B1FA81F202E0B0FA80F2203290460D
:100DE000FFF78BFF04460F4640EA0A0041EA0B0179
:100DF00053465A46084313D0114653EA010019D00E
:100E0000C8F14002504600F091F805460E465046A3
:100E100059464246FFF771FF084305D0012004E020
:100E200020463946BDE8F08D0020054346EAE076CD
:100E30002C4337430A986305E40AA0EB080000221C
:100E4000FD0A44EA47540A3002D500200146E9E78A
:100E5000010510196941DDE9084500196941BDE83E
:100E6000F04DA2E72DE9F04D00231A461B1A8A41E6
:100E700003DB00200146BDE8F08DC1F30A52C1F347
:100E8000130141F480154FF0000BD10702D1001877
:100E90006D41521E0027044640F2FF11384601EB17
:100EA000620A3E468046024600204FF4801100F060
:100EB0003DF8C2197141BB1846EB0100B4EB030CBD
:100EC00075EB000C04D3E41A65EB000517460E46DB
:100ED000241908F101006D4180463428E3DDF91939
:100EE00046EB0600091BA84103D24FF0FF32134620
:100EF00001E0002213461BEB070046EB0A51BDE858
:100F0000F04DFFF752BF0000064C074D06E0E068C9
:100F100040F0010394E8070098471034AC42F6D340
:100F2000FFF70AF9E022000800230008202A04DB6A
:100F3000203A21FA02F00021704721FA02F3D04052
:100F4000C2F12002914008431946704770B521F064
:100F5000004303430CD0C1F30A550024D5EB04052C
:100F600064EB0403D617AD1AB34102DB002001463F
:100F700070BD201841EB025170BD0EB5C10F80EA63
:100F8000E0700844CA07002140F233438DE80E00A8
:100F90000A460B46FFF718FF03B000BD70B5C1F35A
:100FA0000A5201F000450024C1F3130140F2FF335F
:100FB00041F480119A4201DA002070BD40F23343BF
:100FC0009A42A2F2334203DC5242FFF7AFFF00E045
:100FD00090402C43F1D0404270BD00BFFEE7704707
:100FE0002DE9F041024600250026002000230024C0
:100FF000002791F803C00CF00F0591F803C00CF026
:10100000100CBCF1000F03D091F802C04CEA0505AA
:1010100091F800C0BCF1000F31D0146800202BE023
:101020004FF0010C0CFA00F3B1F800C00CEA030613
:101030009E4220D183004FF00F0C0CFA03F7BC4303
:1010400005FA03FC4CEA040491F803C0BCF1280F34
:1010500006D14FF0010C0CFA00FCC2F814C00AE0F3
:1010600091F803C0BCF1480F05D14FF0010C0CFA08
:1010700000FCC2F810C0401C0828D1D31460B1F89D
:1010800000C0BCF1FF0F34DD546800202EE000F1F9
:10109000080C4FF0010808FA0CF3B1F800C00CEA94
:1010A00003069E4221D183004FF00F0C0CFA03F788
:1010B000BC4305FA03FC4CEA040491F803C0BCF1FC
:1010C000280F05D100F1080C08FA0CF8C2F81480BA
:1010D00091F803C0BCF1480F07D100F1080C4FF0A4
:1010E000010808FA0CF8C2F81080401C0828CED37A
:1010F0005460BDE8F08100002DE9F04F89B0002474
:101100005DE0314830F824000FFA80F92E4850F89D
:1011100024004FEA204A4846FFF767FD80464FF01B
:101120008741FFF76AFB07464FF08E41FFF797FBB9
:1011300005465046FFF759FD80464FF08741FFF7BF
:101140005CFB07464FF08E41FFF789FB06463146B0
:101150003046FFF752FB294602902846FFF74DFB29
:1011600001900299FFF7F1FA0390FFF781FDCDE9B5
:10117000040100F0FFFF0022144BCDE90601FFF748
:10118000C5FC0746FFF787FD83465CB94FF08E41EB
:101190005846FFF732FB0746FFF756FD0C4941F86A
:1011A00024000AE04FF08F415846FFF726FB074620
:1011B000FFF74AFD064941F82400601C84B2802CE8
:1011C0009FDB09B0BDE8F08F3404002000007040C0
:1011D0003406002000BFFEE72DE9F04F8FB0002459
:1011E00000BF71E02046FFF709FD8246394A3A4BBD
:1011F000FFF71AFC07460022384BFFF715FC05469F
:101200000022374BFFF782FCCDE9040100F062FFBA
:101210000022344BCDE90601FFF706FCCDE90A01B7
:101220002046FFF7EBFC07462A4A2B4BFFF7FCFB57
:10123000054600222C4BFFF7F7FB0022284BCDE997
:101240000001FFF763FCCDE9020100F043FF824695
:101250000022264BFFF7E8FBCDE906012046FFF709
:10126000CDFC82461B4A1C4BFFF7DEFB05460022E5
:101270001F4BFFF7D9FB0022194BCDE90001FFF707
:1012800045FC074600F026FF00221A4BCDE902017B
:10129000FFF7CAFBCDE90401DDE90623FFF71DFBDB
:1012A000CDE90801DDE90A23FFF717FBCDE90C01C1
:1012B000FFF7F1FC81464846FFF7ADFC00040E49FC
:1012C00041F82400601C84B2FF2C8BDD0FB0BDE818
:1012D000F08F00001C2D4454FB2119404049D2409E
:1012E00000E0E5400040AF400068C0400018A54065
:1012F00000E07540007097403400002000BFFEE71A
:10130000704708B54FF4A06000F046F825208DF82E
:10131000000001208DF803008DF801008DF8020017
:10132000684600F001F808BD70B5002100230F22C7
:10133000C47804B3154C246804F4E064C4F5E06494
:10134000210AC1F10403CA40447804FA03F1847805
:101350001440214309010E4C0678A155047804F08D
:101360001F050124AC4005786D11AD0005F1E025A5
:10137000C5F8004109E0047804F01F050124AC40E1
:10138000044D0678761145F8264070BD0CED00E05E
:1013900000E400E080E100E002490143024A1160FC
:1013A000704700000000FA050CED00E070470000F7
:1013B00029B1064A92690243044B9A6104E0034A48
:1013C00092698243014B9A6170470000001002400D
:1013D00030B500210022002400232D4D6D6805F05A
:1013E0000C0121B1042905D0082923D105E0294D9C
:1013F000056022E0274D05601FE0254D6D6805F46E
:101400007012234D6D6805F48034022505EB92427D
:101410001CB9214D554305600BE01D4D6D6805F469
:1014200000351DB11C4D5543056002E0194D554373
:10143000056002E0174D056000BF00BF144D6D68E8
:1014400005F0F0010909154D6B5C0568DD4045604C
:101450000F4D6D6805F4E061090A104D6B5C45683D
:10146000DD4085600A4D6D6805F46051C90A0B4D79
:101470006B5C4568DD40C560054D6D6805F4404115
:10148000890B074D6B5CC568B5FBF3F5056130BD95
:101490000010024000127A0000093D0018000020F0
:1014A00028000020704710B500F002F810BD0000C1
:1014B0000CB50020019000903348006840F4803063
:1014C0003149086000BF3048006800F400300090E7
:1014D0000198401C0190009818B90198B0F5A06FD0
:1014E000F1D12948006800F4003010B101200090CB
:1014F00001E0002000900098012843D123480068B3
:1015000040F01000214908600846006820F00700FC
:1015100008600846006840F0020008601A48406809
:10152000194948600846406848600846406840F4E9
:10153000806048600846406820F47C104860084697
:10154000406840F4E81048600846006840F0807049
:10155000086000BF0C48006800F000700028F9D057
:101560000948406820F00300074948600846406881
:1015700040F00200486000BF0348406800F00C00E3
:101580000828F9D10CBD00000010024000200240E4
:10159000042808D14FF0E021096941F004014FF01F
:1015A000E022116107E04FF0E021096921F0040118
:1015B0004FF0E022116170477047000010B51348EA
:1015C000006840F001001149086008464068104971
:1015D00008400E494860084600680E4908400B491B
:1015E00008600846006820F48020086008464068CB
:1015F00020F4FE0048604FF41F008860FFF753FF9F
:101600004FF000600449086010BD00000010024067
:101610000000FFF8FFFFF6FE08ED00E021B182892F
:1016200042F40052828104E082894DF6FF731A4031
:101630008281704700B585B001210420FFF7B8FE14
:1016400001218803FFF7B4FE04208DF81300000287
:10165000ADF8100003208DF8120004A91748FFF719
:10166000BFFC18208DF813004FF40070ADF8100087
:1016700004A91248FFF7B4FC4FF416500090002064
:10168000ADF80C000C20ADF80A000020ADF8080001
:10169000ADF80600ADF804006946094800F044F8CA
:1016A000FFF72FFE012240F22551054800F017F800
:1016B00001210348FFF7B2FF05B000BD000801405B
:1016C0000038014002460020B1F5007F00D100BF84
:1016D00013880B400BB1012000E000207047F0B5EB
:1016E0000346002400260025002040F66A17B94270
:1016F00000D100BF1846C1F3421401F01F060127B4
:1017000007FA06F5012C01D10C3004E0022C01D1BE
:10171000103000E014301AB107682F43076002E070
:101720000768AF430760F0BD2DE9F04786B0054676
:101730000E460024A24600BFA1460027B08900B192
:1017400000BF2F462C8A4CF6FF700440F0880443FB
:101750002C82AC894EF6F3100440B08831890843DE
:10176000718908430443AC81AC8A4FF6FF400440C2
:10177000B0890443AC8201A8FFF72AFE1F488742C4
:1017800002D1DDF810A001E0DDF80CA0A88900F47A
:10179000004040B10AEBCA0000EB0A103168490072
:1017A000B0FBF1F807E00AEBCA0000EB0A10316861
:1017B0008900B0FBF1F86420B8FBF0F004012009C7
:1017C000642101FB1089A88900F4004040B1322057
:1017D00000EBC900B0FBF1F000F00700044308E0A3
:1017E000322000EB09106421B0FBF1F000F00F0093
:1017F00004432C8106B0BDE8F087000000380140AA
:10180000C1F308028280704700BFFEE70FB4054BAA
:1018100010B503A9044A029800F052FB10BC5DF811
:1018200014FB0000592000082C000020490050EA59
:10183000C12018BF04204A0D18BF40F0010040F23B
:10184000FF72B2EB515F08BF40F00200012808BFF1
:10185000052070472DE9F74F144694B00021C4E9E4
:1018600002111599079121F00045C9498D4206DC06
:101870001599C4E9000117B00020BDE8F08FC549F3
:10188000DFF814A3A9423CDD0799C44E0029C44FD8
:10189000C44A1599534619DDFFF7C0F8554506D0DF
:1018A000C14AC24BFFF7BAF8C4E900010AE04FF0A1
:1018B000D352BE4BFFF7B2F832463B46FFF7AEF8C5
:1018C000C4E9000117B00120BDE8F08FFFF705F86B
:1018D000554506D0B44AB54BFEF7FFFFC4E90001F9
:1018E0000AE04FF0D352B14BFEF7F7FF32463B46CA
:1018F000FEF7F3FFC4E9000117B04FF0FF30BDE879
:10190000F08FAB49A942159978DB21F0004183465D
:101910008846A84AA84BFFF787F80022A74BFEF796
:10192000DCFFFFF73BFB0990FFF727FB06460F465E
:101930009C4A5346FFF778F843465A46FFF771F83A
:1019400080468A46984A994B30463946FFF76CF8EC
:101950002A0D01250B9242465346FFF762F8032DEC
:10196000C4E9000139D00B98C1F30A51401A05EBC4
:1019700045111139814230DA9148C346784400EB71
:101980000510CDF80CA00C90D0E900233046394664
:10199000FFF74AF802460B46049106905846039911
:1019A000FFF73CF880468A4602460B4658460399A4
:1019B000FFF734F8049B069AFFF730F883460C983B
:1019C00003913946D0E902233046FFF72DF85A46F5
:1019D000039BFFF723F86D1CBDE707980028A2BF03
:1019E000099817B0BDE8F08F616881F0004161602F
:1019F000099817B04042BDE8F08FFFE7844615987C
:101A0000C1F31301C0F30A50A0F2F5304FEA601899
:101A100000F01F06C6F120001390002006900790EA
:101A200041F4801E05206D4676B1664A08EB000140
:101A30007A4452F8213002EB8101B3404A6813998D
:101A400022FA01F1194305E05F4908EB00027944ED
:101A500051F82210A1FB0E27A1FB0C131A449A4245
:101A600034BF0123002303EB070A05EB8003D3E90E
:101A700001B70F448F4234BF0121002193448B44AE
:101A800011B1934502D903E0934501D2012100E051
:101A90000021C3E901B7514445F82010011EA0F10F
:101AA0000100C1DC0298059F00F10050800F1290E8
:101AB0000298DDE903568000FFF75FFA8346284667
:101AC0000D91FFF79BF86FF01D02FFF73FFACDE98C
:101AD0000E013046FFF792F86FF03D02FFF736FA3D
:101AE00080468A463846FFF789F86FF05D02FFF7B7
:101AF0002DFA0746424653461191FEF7EEFEDDE908
:101B00000E23FEF7EAFE5A460D9BFEF7E6FE002581
:101B10000E465A4628460D9BFEF780FFDDE90E2350
:101B2000FEF77CFF42465346FEF778FF3A46119B8C
:101B3000FEF777FFDFF898A0244A5346FEF774FFBC
:101B400007468846234A244B31462846FEF76CFF59
:101B50003A464346FEF7C1FE074688464FF0A84284
:101B6000534631462846FEF75FFF3A464346FEF7A6
:101B7000B4FE159A12F0004F04D0129A81F0004181
:101B800052421292C4E90001129817B0BDE8F08FDA
:101B9000FB21E93F7CD90240FB21F93F7370032E02
:101BA0008A19A33B000040543163621A61B4D03DEE
:101BB000FB21394183C8C96D305FE43F0000E03F3D
:101BC00070080000EC070000CE070000182D4454F8
:101BD000FB21F93D3326A611460B113C2DE9FF4DA3
:101BE00021F0004807460C46B8F1795F08DAFFF7A4
:101BF000D5F9002801BF0020324904B0BDE8F08DBE
:101C00003A46234610461946FEF70EFF05460246A1
:101C10002D480E460B460621784400F05DF82A4612
:101C20003346FEF701FFDDE9022382468B46384644
:101C30002146FEF7F9FE04460F4652465B4628460B
:101C40003146FEF7F1FE22463B46FEF7E7FE074629
:101C50008A464FF0FF3228463146FFF777F91B4A94
:101C600090450ADA3A465346FEF7D8FE04B0002201
:101C7000BDE8F04D134BFEF7D4BE154A4245A8BF50
:101C8000A8F500154FF00004B8BF124D22462B46B0
:101C9000FEF7C4FE0646884622462B460020094928
:101CA000FEF7BCFE04460D463A46534630464146D2
:101CB000FEF7B4FE04B022462B46BDE8F04DFEF719
:101CC000B0BE00000000F03FA40500003333D33F56
:101CD0000000E93F0000D23F2DE9F0414F1E00EB2C
:101CE000C7010446D1E9000115461E4637F0060239
:101CF0000DD02A463346FEF797FE7F1E04EBC7033E
:101D0000D3E90023FEF7E9FD37F00602F1D1022FF7
:101D100025D0042F13D0062F18BFBDE8F0812A4626
:101D20003346FEF781FED4E90A23FEF7D6FD2A46A4
:101D30003346FEF779FED4E90823FEF7CEFD2A46A6
:101D40003346FEF771FED4E90623FEF7C6FD2A46A8
:101D50003346FEF769FED4E90423FEF7BEFD2A46AA
:101D60003346FEF761FED4E90223FEF7B6FD2A46AC
:101D70003346FEF759FED4E90023BDE8F041FEF7F3
:101D8000ACBD00002DE9FF4D054621F0004084B0B8
:101D90000C46B0F1795F0BDA2846FFF747FD0428BF
:101DA00008BF00F06FF8284608B02146BDE8F08D66
:101DB0002A460B461046FEF737FE06460F462A46D1
:101DC0002346FEF731FE804626488A4632463B4689
:101DD00005217844FFF780FF83461098029160B395
:101DE000214A224B40465146FEF71EFECDE9000136
:101DF0005A4640465146029BFEF716FE82468846EA
:101E0000DDE906014FF0FF32FFF7A0F852464346E6
:101E1000FEF704FE32463B46FEF706FEDDE90623EA
:101E2000FEF7FCFDDDE90023FEF7F8FD08B02A46C9
:101E30002346BDE8F04DFEF7F4BD0B465A4630464A
:101E40003946FEF7F1FD084A084BFEF746FD4246CB
:101E50005346FEF7E9FD08B02A462346BDE8F04D9B
:101E6000FEF73BBDE2040000495555555555C5BF29
:101E70000122FFF76BB80022134610461146FEF709
:101E800045BE0000024A00201107FFF75FB80000BE
:101E900001FDFFFF02E008C8121F08C1002AFAD1A5
:101EA00070477047002001E001C1121F002AFBD1DA
:101EB00070470000014908607047000030000020B2
:101EC0002DE9FF4F89B09B460446002506E02528F2
:101ED0000BD05A460B999047641C6D1C2078002843
:101EE000F5D10DB02846BDE8F08F0027B846012295
:101EF000474900E0074314F8013F203B02FA03F092
:101F00000842F7D120782E2819D114F8010F47F094
:101F100004072A280ED06FF02F022078A0F130019C
:101F200009290CD808EB880102EB410100EB0108FC
:101F3000641CF2E70A98641C50F8048B0A9020781D
:101F40000028CED0642808D0692806D075281ED075
:101F50005A460B9990476D1C58E00A994FF00A09B0
:101F600001C90A91002802DA40422D2102E0390518
:101F700004D52B218DF82010012103E0F90704D0AE
:101F80002021F7E78A4608AE0DE00021FAE70A991A
:101F90004FF00A0901C90A91F7E74946FEF797FE93
:101FA000303106F8011D0028F7D1ADEB060000F135
:101FB0002009780701D44FF00108C84502DDA8EBDD
:101FC000090000E000208046002706E008A85A46E5
:101FD000C05D0B9990476D1C7F1C5745F6DB04E0F4
:101FE00030205A460B9990476D1CB8F10001A8F1BA
:101FF0000108F5DC05E016F8010B5A460B999047ED
:102000006D1CB9F10001A9F10109F4DC641C65E75C
:102010000928010010B56FF00400FFF7B9FA0A486B
:1020200000680A49B0FBF1F00949087008460078D9
:1020300000EB4001C1EBC0104FF6FF7101EAC00098
:102040000449088010BD00000000002000127A0042
:10205000140000201600002070B504460D46E1B2C1
:102060000548FFF7CDFB00BF80210348FFF72AFB9F
:102070000028F9D0204670BD00380140FFF7CAFFA4
:10208000FFF7D8FAFFF7A8F84FF480720B490C4815
:10209000FEF76CF8FFF730F800240AE0094850F822
:1020A0002420AF2004FB00F107A0FFF7AFFB601C6A
:1020B00084B2FF2CF2DD00BFFEE7000034000020F8
:1020C0003404002034060020503A25642025642082
:1020D0000D0A000000B5254B21F0004287B09A425E
:1020E00003DC0022134600922BE0214B9A4208D1D8
:1020F00040B94FF00100FFF7DDFEFFF7BCFE07B06F
:1021000000BD03DBFFF7B4FE07B000BD02AAFFF776
:10211000A1FB10F003014FF001000DD0012914D0F4
:1021200002291AD00DF1080C9CE80F00FFF756FDAC
:1021300007B081F0004100BD0DF1080C00909CE853
:102140000F00FFF71FFE07B000BD0DF1080C9CE863
:102150000F00FFF743FD07B000BD0DF1080C009024
:102160009CE80F00FFF70EFEE2E70000FB21E93FCD
:102170000000F07F2DE9F04106460F46FEF772FEA3
:10218000041E0D4618BF0120284320F00040C0F176
:102190007F6000F1E040C00F0ED0301C18BF01205E
:1021A000384320F00040C0F17F6000F1E040C00FF4
:1021B00004BF0120FFF77EFE20462946BDE8F081DE
:1021C0004C5555555555A53F7751C1166CC156BF55
:1021D0009015CB19A001FA3EAD529C804F7E92BE65
:1021E000C4B1B4BD9EEE213ED43888BEE9FAA8BD84
:1021F00000004054FB21F93F3163621A61B4D03DC5
:102200000000601A61B4D03D7370032E8A19A33B9D
:102210000000002E8A19A33BC14920259A837B39EF
:1022200000000000000000006E83F9A22915444E52
:10223000D15727FCC0DD34F5999562DB4190433CD2
:10224000AB6351FE61C5BBDE3A6E24B7E0D24D42AE
:10225000EA2E49061C92D1091CEB1DFE3EA729B1AE
:10226000F53582E88444BB2E26709CE9417E5FB43C
:1022700039D69139F43953838B5F849C3B28F9BD5F
:10228000FF97F81F0F9805DE8B112FEF1F6D0A5A6D
:10229000CF7E366DB709CB27663F464F2DEA5F9E4E
:1022A000C7BA27757BF1E5EBF739073DEA92528A09
:1022B000B15FFB6B085D8D1FA6F810111111813FF6
:1022C000D561C119A0012ABF7DFEB157E31DC73EEC
:1022D000EB9C2B8AE6E55ABE7CD5CF5A3AD9E53D30
:1022E000002300080000002034000000941E0008B5
:1022F0003423000834000020040C0000A41E000851
:1023000000A24A04000000000000000001020304D3
:102310000607080900000000000000000102030495
:102320000102030406070809020406080000000071
:0423300000000000A9
:0400000508000131BD
:00000001FF
