:020000040800F2
:100000003804002049010008EB020008E302000860
:10001000E7020008BD0100082508000800000000F4
:100020000000000000000000000000009104000833
:10003000C10100080000000099030008D505000870
:100040006301000863010008630100086301000800
:1000500063010008630100086301000863010008F0
:1000600063010008630100086301000863010008E0
:1000700063010008630100086301000863010008D0
:1000800063010008630100086301000863010008C0
:1000900063010008630100086301000863010008B0
:1000A00063010008630100086301000863010008A0
:1000B0006301000863010008630100086301000890
:1000C0006301000863010008630100086301000880
:1000D0006301000863010008630100086301000870
:1000E0006301000863010008630100086301000860
:1000F0006301000863010008630100086301000850
:10010000630100086301000863010008630100083F
:10011000630100086301000863010008630100082F
:10012000630100086301000863010008630100081F
:10013000DFF810D000F030F800480047150A00083A
:10014000AFF3008038040020064880470648004787
:10015000FEE7FEE7FEE7FEE7FEE7FEE7FEE7FEE777
:10016000FEE7FEE7D90500083101000830B50B466F
:10017000014600202022012409E021FA02F59D42D7
:1001800005D303FA02F5491B04FA02F52844151EAB
:10019000A2F10102F1DC30BD064C074D06E0E0683B
:1001A00040F0010394E8070098471034AC42F6D3BE
:1001B000FFF7C2FF600A0008800A000800BFFEE7E0
:1001C000704700E0401E0028FCD170472DE9F04147
:1001D000024600250026002000230024002791F875
:1001E00003C00CF00F0591F803C00CF0100CBCF12B
:1001F000000F03D091F802C04CEA050591F800C049
:10020000BCF1000F31D0146800202BE04FF0010C3E
:100210000CFA00F3B1F800C00CEA03069E4220D1AC
:1002200083004FF00F0C0CFA03F7BC4305FA03FCF4
:100230004CEA040491F803C0BCF1280F06D14FF03A
:10024000010C0CFA00FCC2F814C00AE091F803C0DB
:10025000BCF1480F05D14FF0010C0CFA00FCC2F8BC
:1002600010C0401C0828D1D31460B1F800C0BCF104
:10027000FF0F34DD546800202EE000F1080C4FF031
:10028000010808FA0CF3B1F800C00CEA03069E421C
:1002900021D183004FF00F0C0CFA03F7BC4305FA91
:1002A00003FC4CEA040491F803C0BCF1280F05D10B
:1002B00000F1080C08FA0CF8C2F8148091F803C099
:1002C000BCF1480F07D100F1080C4FF0010808FA03
:1002D0000CF8C2F81080401C0828CED35460BDE84A
:1002E000F08100BFFEE700BFFEE7704708B54FF49E
:1002F000A06000F047F825208DF8000001208DF85F
:1003000003008DF801008DF80200684600F002F845
:1003100008BD000070B5002100230F22C47804B38B
:10032000154C246804F4E064C4F5E064210AC1F1CA
:100330000403CA40447804FA03F18478144021434A
:1003400009010E4C0678A155047804F01F0501241C
:10035000AC4005786D11AD0005F1E025C5F8004110
:1003600009E0047804F01F050124AC40044D067830
:10037000761145F8264070BD0CED00E000E400E089
:1003800080E100E002490143024A11607047000029
:100390000000FA050CED00E07047000029B1064AA4
:1003A00092690243044B9A6104E0034A92698243D2
:1003B000014B9A61704700000010024030B50021E7
:1003C0000022002400232D4D6D6805F00C0121B1A1
:1003D000042905D0082923D105E0294D056022E034
:1003E000274D05601FE0254D6D6805F47012234D03
:1003F0006D6805F48034022505EB92421CB9214D4D
:10040000554305600BE01D4D6D6805F400351DB1C9
:100410001C4D5543056002E0194D5543056002E04F
:10042000174D056000BF00BF144D6D6805F0F00169
:100430000909154D6B5C0568DD4045600F4D6D6821
:1004400005F4E061090A104D6B5C4568DD4085608C
:100450000A4D6D6805F46051C90A0B4D6B5C456827
:10046000DD40C560054D6D6805F44041890B074DC1
:100470006B5CC568B5FBF3F5056130BD001002404B
:1004800000127A0000093D0020000020300000200A
:100490007047000070B50446002510E0605D68B14B
:1004A000615D074800F0BAF900BF8021044800F000
:1004B00017F90028F9D0681CC5B200E070BDEDE75F
:1004C0000038014010B500F001F810BD0CB5002057
:1004D000019000903348006840F480303149086052
:1004E00000BF3048006800F4003000900198401CC4
:1004F0000190009818B90198B0F5A06FF1D1294882
:10050000006800F4003010B10120009001E00020EC
:1005100000900098012843D12348006840F0100063
:10052000214908600846006820F007000860084676
:10053000006840F0020008601A48406819494860A5
:100540000846406848600846406840F4806048605B
:100550000846406820F47C1048600846406840F433
:10056000E81048600846006840F08070086000BFEE
:100570000C48006800F000700028F9D00948406875
:1005800020F00300074948600846406840F0020038
:10059000486000BF0348406800F00C000828F9D10B
:1005A0000CBD00000010024000200240042808D1C9
:1005B0004FF0E021096941F004014FF0E0221161A0
:1005C00007E04FF0E021096921F004014FF0E0223B
:1005D000116170477047000010B51348006840F083
:1005E00001001149086008464068104908400E495A
:1005F0004860084600680E4908400B4908600846F4
:10060000006820F4802008600846406820F4FE005E
:1006100048604FF41F008860FFF754FF4FF0006000
:100620000449086010BD0000001002400000FFF8FF
:10063000FFFFF6FE08ED00E021B1828942F400528E
:10064000828104E082894DF6FF731A4082817047EF
:1006500000B585B001210420FFF7A0FE0121880329
:10066000FFF79CFE04208DF813000002ADF8100087
:1006700003208DF8120004A91748FFF7A7FD1820E2
:100680008DF813004FF40070ADF8100004A9124863
:10069000FFF79CFD4FF4165000900020ADF80C00C1
:1006A0000C20ADF80A000020ADF80800ADF80600F7
:1006B000ADF804006946094800F044F8FFF716FE5B
:1006C000012240F22551054800F017F801210348A6
:1006D000FFF7B2FF05B000BD00080140003801403F
:1006E00002460020B1F5007F00D100BF13880B4007
:1006F0000BB1012000E000207047F0B50346002454
:1007000000260025002040F66A17B94200D100BF3C
:100710001846C1F3421401F01F06012707FA06F537
:10072000012C01D10C3004E0022C01D1103000E08A
:1007300014301AB107682F43076002E00768AF431F
:100740000760F0BD2DE9F04786B005460E4600244F
:10075000A24600BFA1460027B08900B100BF2F46C6
:100760002C8A4CF6FF700440F08804432C82AC893C
:100770004EF6F3100440B08831890843718908436C
:100780000443AC81AC8A4FF6FF400440B089044377
:10079000AC8201A8FFF712FE1F48874202D1DDF8A4
:1007A00010A001E0DDF80CA0A88900F4004040B1E1
:1007B0000AEBCA0000EB0A1031684900B0FBF1F8FF
:1007C00007E00AEBCA0000EB0A1031688900B0FBB1
:1007D000F1F86420B8FBF0F004012009642101FB6A
:1007E0001089A88900F4004040B1322000EBC90014
:1007F000B0FBF1F000F00700044308E0322000EB0A
:1008000009106421B0FBF1F000F00F0004432C81CB
:1008100006B0BDE8F087000000380140C1F30802CF
:100820008280704700BFFEE70FB4084B10B504A9E3
:1008300002AA039800F01CF8044602A9002000F068
:10084000C1F8204610BC5DF814FB0000C509000883
:1008500002E008C8121F08C1002AFAD17047704789
:10086000002001E001C1121F002AFBD170470000E7
:100870002DE9FF4F89B09B460446002506E0252858
:100880000BD05A460B999047641C6D1C20780028A9
:10089000F5D10DB02846BDE8F08F0027B8460122FB
:1008A000474900E0074314F8013F203B02FA03F0F8
:1008B0000842F7D120782E2819D114F8010F47F0FB
:1008C00004072A280ED06FF02F022078A0F1300103
:1008D00009290CD808EB880102EB410100EB010863
:1008E000641CF2E70A98641C50F8048B0A90207884
:1008F0000028CED0642808D0692806D075281ED0DC
:100900005A460B9990476D1C58E00A994FF00A0916
:1009100001C90A91002802DA40422D2102E039057E
:1009200004D52B218DF82010012103E0F90704D014
:100930002021F7E78A4608AE0DE00021FAE70A9980
:100940004FF00A0901C90A91F7E74946FFF70EFC83
:10095000303106F8011D0028F7D1ADEB060000F19B
:100960002009780701D44FF00108C84502DDA8EB43
:10097000090000E000208046002706E008A85A464B
:10098000C05D0B9990476D1C7F1C5745F6DB04E05A
:1009900030205A460B9990476D1CB8F10001A8F120
:1009A0000108F5DC05E016F8010B5A460B99904753
:1009B0006D1CB9F10001A9F10109F4DC641C65E7C3
:1009C000092801000A68531C0B6010707047000072
:1009D00010B56FF00400FFF7E9FD0A4800680A4906
:1009E000B0FBF1F0094908700846007800EB4001BF
:1009F000C1EBC0104FF6FF7101EAC0000449088046
:100A000010BD00000000002000127A001C00002031
:100A10001E0000209AB0FFF7DBFFFFF719FE17E07A
:100A20000C480DA1026801A8FFF7FEFE01A8FFF720
:100A300031FD0A48FFF7C5FB06480068401C054920
:100A4000086008460068642801DD0020086000BFD7
:100A5000E6E70000140000202564000000DD6D00C2
:100A6000800A000800000020340000005008000840
:100A7000B40A0008340000200404000060080008E4
:100A800000A24A040000000000000000010203046C
:100A90000607080901000000010000000000000036
:100AA0000000000001020304010203040607080914
:040AB000020406082E
:0400000508000131BD
:00000001FF
